{
  "contracts/Verificacion.sol": {
    "Verificacion": {
      "abi": [
        {
          "inputs": [
            {
              "internalType": "uint256",
              "name": "_nitBanco",
              "type": "uint256"
            },
            {
              "internalType": "uint256",
              "name": "_claveBanco",
              "type": "uint256"
            }
          ],
          "stateMutability": "nonpayable",
          "type": "constructor"
        },
        {
          "inputs": [
            {
              "internalType": "uint256",
              "name": "nuevaClave",
              "type": "uint256"
            }
          ],
          "name": "actualizar_clave",
          "outputs": [],
          "stateMutability": "payable",
          "type": "function"
        },
        {
          "inputs": [
            {
              "internalType": "uint256",
              "name": "_a",
              "type": "uint256"
            },
            {
              "internalType": "uint256",
              "name": "_b",
              "type": "uint256"
            }
          ],
          "name": "dar_clave_secreta",
          "outputs": [
            {
              "internalType": "uint256",
              "name": "clave_secreta",
              "type": "uint256"
            }
          ],
          "stateMutability": "view",
          "type": "function"
        },
        {
          "inputs": [
            {
              "internalType": "uint256",
              "name": "_cedula",
              "type": "uint256"
            },
            {
              "internalType": "uint256",
              "name": "_claveReal",
              "type": "uint256"
            },
            {
              "internalType": "uint256",
              "name": "_claveIngresada",
              "type": "uint256"
            }
          ],
          "name": "verificar_zkp",
          "outputs": [
            {
              "internalType": "bool",
              "name": "resultado",
              "type": "bool"
            }
          ],
          "stateMutability": "view",
          "type": "function"
        }
      ],
      "evm": {
        "bytecode": {
          "linkReferences": {},
          "object": "608060405260405180604001604052807f1a2a3b6e2ba804a4d3466a5b9047b672da212172728e6fb903dda6771b25cbbc81526020017f108686857389327fd6b1872c112f3ff8daed6127eeba8d55103d6ebeab4db1e2815250600390600261006992919061028b565b50604051806040016040528060405180604001604052807f2e94b1fb1aafb2b2e7fb6776f3e50de2da86f19c844579629204c26d00d1a0f581526020017f2b4fe218a04bfafe9bc14f105fb31f59598664cf1bd25fd354697bfa6289bbf5815250815260200160405180604001604052807f2b23949fada2b6a6f499115a8ac5f1c3d455186df0f1353b7663c706627ae25d81526020017f076a8ba7e1c7d4551921f900598c7c57af8fef79fdc792f0ca4e9e2f3bdd4fd281525081525060059060026101379291906102cb565b5060405180604001604052807f2198f7f4ed785cf8a50a92310bc21b64e0b7acd3175cdd3dd8742110323c0ed581526020017f05227cbeb1683d376aa494f4f7584aa1b3756c5a5f7766c78fb8f0ecc0705636815250600990600261019d92919061028b565b503480156101aa57600080fd5b5060405161148438038061148483398181016040528101906101cc91906103b2565b81600081905550806001819055506040516101e69061031b565b604051809103906000f080158015610202573d6000803e3d6000fd5b50600c60006101000a81548173ffffffffffffffffffffffffffffffffffffffff021916908373ffffffffffffffffffffffffffffffffffffffff16021790555033600b60006101000a81548173ffffffffffffffffffffffffffffffffffffffff021916908373ffffffffffffffffffffffffffffffffffffffff16021790555050506103f2565b82600281019282156102ba579160200282015b828111156102b957825182559160200191906001019061029e565b5b5090506102c79190610328565b5090565b8260028002810192821561030a579160200282015b82811115610309578251829060026102f992919061028b565b50916020019190600201906102e0565b5b5090506103179190610345565b5090565b61073780610d4d83390190565b5b80821115610341576000816000905550600101610329565b5090565b5b80821115610365576000818161035c9190610369565b50600201610346565b5090565b506000815560010160009055565b600080fd5b6000819050919050565b61038f8161037c565b811461039a57600080fd5b50565b6000815190506103ac81610386565b92915050565b600080604083850312156103c9576103c8610377565b5b60006103d78582860161039d565b92505060206103e88582860161039d565b9150509250929050565b61094c806104016000396000f3fe6080604052600436106100345760003560e01c80635eb86fca14610039578063c880dc5714610076578063d19e6ebb146100b3575b600080fd5b34801561004557600080fd5b50610060600480360381019061005b9190610390565b6100cf565b60405161006d91906103df565b60405180910390f35b34801561008257600080fd5b5061009d600480360381019061009891906103fa565b6100e3565b6040516100aa9190610468565b60405180910390f35b6100cd60048036038101906100c89190610483565b6101ef565b005b60006100db83836102a5565b905092915050565b60008084905060008490506000849050600061010c6000548561010691906104df565b846102a5565b9050600c60009054906101000a900473ffffffffffffffffffffffffffffffffffffffff1673ffffffffffffffffffffffffffffffffffffffff16635fe8c13b60036005600960405180608001604052808781526020016000548b61017191906104df565b81526020018881526020016001548152506040518563ffffffff1660e01b81526004016101a19493929190610791565b602060405180830381865afa1580156101be573d6000803e3d6000fd5b505050506040513d601f19601f820116820180604052508101906101e29190610804565b9450505050509392505050565b600a3414610232576040517f08c379a0000000000000000000000000000000000000000000000000000000008152600401610229906108b4565b60405180910390fd5b80600181905550600b60009054906101000a900473ffffffffffffffffffffffffffffffffffffffff1673ffffffffffffffffffffffffffffffffffffffff166108fc349081150290604051600060405180830381858888f193505050501580156102a1573d6000803e3d6000fd5b5050565b6000808390506000839050600060015490506003836102c491906104df565b6003808584866102d491906104df565b6102de91906108d4565b6102e891906104df565b6102f291906108d4565b8284866102ff91906104df565b61030991906104df565b600386858761031891906104df565b61032291906108d4565b61032c91906104df565b61033691906104df565b61034091906104df565b61034a91906108d4565b935050505092915050565b600080fd5b6000819050919050565b61036d8161035a565b811461037857600080fd5b50565b60008135905061038a81610364565b92915050565b600080604083850312156103a7576103a6610355565b5b60006103b58582860161037b565b92505060206103c68582860161037b565b9150509250929050565b6103d98161035a565b82525050565b60006020820190506103f460008301846103d0565b92915050565b60008060006060848603121561041357610412610355565b5b60006104218682870161037b565b93505060206104328682870161037b565b92505060406104438682870161037b565b9150509250925092565b60008115159050919050565b6104628161044d565b82525050565b600060208201905061047d6000830184610459565b92915050565b60006020828403121561049957610498610355565b5b60006104a78482850161037b565b91505092915050565b7f4e487b7100000000000000000000000000000000000000000000000000000000600052601160045260246000fd5b60006104ea8261035a565b91506104f58361035a565b925082820190508082111561050d5761050c6104b0565b5b92915050565b600060029050919050565b600081905092915050565b6000819050919050565b61053c8161035a565b82525050565b600061054e8383610533565b60208301905092915050565b60008160001c9050919050565b6000819050919050565b600061058461057f8361055a565b610567565b9050919050565b60006105978254610571565b9050919050565b6000600182019050919050565b6105b481610513565b6105be818461051e565b92506105c982610529565b8060005b83811015610601576105de8261058b565b6105e88782610542565b96506105f38361059e565b9250506001810190506105cd565b505050505050565b600060029050919050565b600081905092915050565b6000819050919050565b600081905092915050565b61063d81610513565b6106478184610629565b925061065282610529565b8060005b8381101561068a576106678261058b565b6106718782610542565b965061067c8361059e565b925050600181019050610656565b505050505050565b600061069e8383610634565b60408301905092915050565b6000600282019050919050565b6106c081610609565b6106ca8184610614565b92506106d58261061f565b8060005b8381101561070557816106ec8782610692565b96506106f7836106aa565b9250506001810190506106d9565b505050505050565b600060049050919050565b600081905092915050565b6000819050919050565b6000602082019050919050565b6107438161070d565b61074d8184610718565b925061075882610723565b8060005b838110156107895781516107708782610542565b965061077b8361072d565b92505060018101905061075c565b505050505050565b6000610180820190506107a760008301876105ab565b6107b460408301866106b7565b6107c160c08301856105ab565b6107cf61010083018461073a565b95945050505050565b6107e18161044d565b81146107ec57600080fd5b50565b6000815190506107fe816107d8565b92915050565b60006020828403121561081a57610819610355565b5b6000610828848285016107ef565b91505092915050565b600082825260208201905092915050565b7f456c2076616c6f722064652065737461206f7065726163696f6e20657320646560008201527f2031302045544800000000000000000000000000000000000000000000000000602082015250565b600061089e602783610831565b91506108a982610842565b604082019050919050565b600060208201905081810360008301526108cd81610891565b9050919050565b60006108df8261035a565b91506108ea8361035a565b92508282026108f88161035a565b9150828204841483151761090f5761090e6104b0565b5b509291505056fea26469706673582212207db2545d27c4ca83a39bc94caae6a99be87afc7d5b59a4eaf76da45d4d72c60f64736f6c634300081a00336080604052348015600f57600080fd5b506107188061001f6000396000f3fe608060405234801561001057600080fd5b506004361061002b5760003560e01c80635fe8c13b14610030575b600080fd5b61004a60048036038101906100459190610643565b610060565b60405161005791906106c7565b60405180910390f35b600061057d565b7f30644e72e131a029b85045b68181585d2833e84879b9709143e1f593f00000018110610098576000805260206000f35b50565b600060405183815284602082015285604082015260408160608360076107d05a03fa9150816100ce576000805260206000f35b825160408201526020830151606082015260408360808360066107d05a03fa9150816100fe576000805260206000f35b505050505050565b600060808601600087017f1e87f974a86385ae5e6bcc63d046b45a70fcb38d83376d91821ef7e843a1bfc981527f0ea0f7c760484aac1ea5440d510ead26b56e311fdbe3d7de27a7c28640034af460208201526101a960008801357f1015c05bcde837b7ee03dfbfda7f6ee01dc0bbc2c08e55e5bfa648107218db5a7f2fdbe1ded26d3c8c5ec574c16c23d733c71b335314c7e815102280e36d77cc1f8461009b565b6101f960208801357f06189da5e3dcd5bd7364421927f56f39a02f6a1d0f738d12469e9a41d01ad2df7f128623aace631da559193ca07b3ef9da3ba20c45bac014190c69bd0a7475188b8461009b565b61024960408801357f2027ae03285c04e3e90e8184ea7dfb6387b39d793a8802c5b18432fd4e5472197f08258e6629376bca43b68e380bc96e627f88ca075edea2f3d73a6c00f21b41ae8461009b565b61029960608801357f28e23a33e865ae86ad208505b01934dc61efb9c58c752a998a716ef4474f4a587f2596d004e2c407270a3333a5386f1f46815faf818e5501d7f54b40267eb28a778461009b565b833582527f30644e72e131a029b85045b68181585d97816a916871ca8d3c208c16d87cfd4760208501357f30644e72e131a029b85045b68181585d97816a916871ca8d3c208c16d87cfd4703066020830152843560408301526020850135606083015260408501356080830152606085013560a08301527f114de35dc50cad62b29ea026cf28abd7008232018811f42894e92998dd36777660c08301527f0ec033a1ff45ca1c28a4d33a5bf6f60f94bbfaffd975a34074e63391ca69a6a960e08301527f0593146809489a45018ef8127007ad7609c93d3cbf63315338a00d4bce4a02026101008301527f29448b3b3f655d1bbd420fb784728db4dd86de21a58b2c6f153a7bfa248ab0a96101208301527f29aafae57422ea7cea6ddee2fd47fada99b2c496dd4faac47b08b5070626f1526101408301527f148f50df3bcbd9a41c5bb0a689bc6d870a11cee138619304b0e929ab28945bf4610160830152600088015161018083015260206000018801516101a08301527f198e9393920d483a7260bfb731fb5d25f1aa493335a9e71297e485b7aef312c26101c08301527f1800deef121f1e76426a00665e5c4479674322d4f75edadd46debd5cd992f6ed6101e08301527f090689d0585ff075ec9e99ad690c3395bc4b313370b38ef355acdadcd122975b6102008301527f12c85ea5db8c6deb4aab71808dcb408fe3d1e7690c43d37b4ce6cc0166fa7daa610220830152853561024083015260208601356102608301527f1fecf97d6fcd52d5a57d65d0af27cead56954a56be1facb0a85d21126593fecd6102808301527f11a15c808d51bbce83817023228846e7dbad533c53c2f981d09887c6b2541da66102a08301527f2e69ede1dcec1a55605f693a13908aed53445da2449ebfd1e78e56a24c932ff16102c08301527f276c9b7fed4802cea174217ccf7140225afff687b1e8fbbab2395b8c3499c1e86102e08301526020826103008460086107d05a03fa82518116935050505095945050505050565b60405161038081016040526105956000840135610067565b6105a26020840135610067565b6105af6040840135610067565b6105bc6060840135610067565b6105c9818486888a610106565b8060005260206000f35b600080fd5b600080fd5b6000819050826020600202820111156105f9576105f86105d8565b5b92915050565b60008190508260406002028201111561061b5761061a6105d8565b5b92915050565b60008190508260206004028201111561063d5761063c6105d8565b5b92915050565b600080600080610180858703121561065e5761065d6105d3565b5b600061066c878288016105dd565b945050604061067d878288016105ff565b93505060c061068e878288016105dd565b9250506101006106a087828801610621565b91505092959194509250565b60008115159050919050565b6106c1816106ac565b82525050565b60006020820190506106dc60008301846106b8565b9291505056fea2646970667358221220a45f5f96b0f462323288ecaa03898ff6c525304ef08d51f7b53e538382cb53e264736f6c634300081a0033",
          "opcodes": "PUSH1 0x80 PUSH1 0x40 MSTORE PUSH1 0x40 MLOAD DUP1 PUSH1 0x40 ADD PUSH1 0x40 MSTORE DUP1 PUSH32 0x1A2A3B6E2BA804A4D3466A5B9047B672DA212172728E6FB903DDA6771B25CBBC DUP2 MSTORE PUSH1 0x20 ADD PUSH32 0x108686857389327FD6B1872C112F3FF8DAED6127EEBA8D55103D6EBEAB4DB1E2 DUP2 MSTORE POP PUSH1 0x3 SWAP1 PUSH1 0x2 PUSH2 0x69 SWAP3 SWAP2 SWAP1 PUSH2 0x28B JUMP JUMPDEST POP PUSH1 0x40 MLOAD DUP1 PUSH1 0x40 ADD PUSH1 0x40 MSTORE DUP1 PUSH1 0x40 MLOAD DUP1 PUSH1 0x40 ADD PUSH1 0x40 MSTORE DUP1 PUSH32 0x2E94B1FB1AAFB2B2E7FB6776F3E50DE2DA86F19C844579629204C26D00D1A0F5 DUP2 MSTORE PUSH1 0x20 ADD PUSH32 0x2B4FE218A04BFAFE9BC14F105FB31F59598664CF1BD25FD354697BFA6289BBF5 DUP2 MSTORE POP DUP2 MSTORE PUSH1 0x20 ADD PUSH1 0x40 MLOAD DUP1 PUSH1 0x40 ADD PUSH1 0x40 MSTORE DUP1 PUSH32 0x2B23949FADA2B6A6F499115A8AC5F1C3D455186DF0F1353B7663C706627AE25D DUP2 MSTORE PUSH1 0x20 ADD PUSH32 0x76A8BA7E1C7D4551921F900598C7C57AF8FEF79FDC792F0CA4E9E2F3BDD4FD2 DUP2 MSTORE POP DUP2 MSTORE POP PUSH1 0x5 SWAP1 PUSH1 0x2 PUSH2 0x137 SWAP3 SWAP2 SWAP1 PUSH2 0x2CB JUMP JUMPDEST POP PUSH1 0x40 MLOAD DUP1 PUSH1 0x40 ADD PUSH1 0x40 MSTORE DUP1 PUSH32 0x2198F7F4ED785CF8A50A92310BC21B64E0B7ACD3175CDD3DD8742110323C0ED5 DUP2 MSTORE PUSH1 0x20 ADD PUSH32 0x5227CBEB1683D376AA494F4F7584AA1B3756C5A5F7766C78FB8F0ECC0705636 DUP2 MSTORE POP PUSH1 0x9 SWAP1 PUSH1 0x2 PUSH2 0x19D SWAP3 SWAP2 SWAP1 PUSH2 0x28B JUMP JUMPDEST POP CALLVALUE DUP1 ISZERO PUSH2 0x1AA JUMPI PUSH1 0x0 DUP1 REVERT JUMPDEST POP PUSH1 0x40 MLOAD PUSH2 0x1484 CODESIZE SUB DUP1 PUSH2 0x1484 DUP4 CODECOPY DUP2 DUP2 ADD PUSH1 0x40 MSTORE DUP2 ADD SWAP1 PUSH2 0x1CC SWAP2 SWAP1 PUSH2 0x3B2 JUMP JUMPDEST DUP2 PUSH1 0x0 DUP2 SWAP1 SSTORE POP DUP1 PUSH1 0x1 DUP2 SWAP1 SSTORE POP PUSH1 0x40 MLOAD PUSH2 0x1E6 SWAP1 PUSH2 0x31B JUMP JUMPDEST PUSH1 0x40 MLOAD DUP1 SWAP2 SUB SWAP1 PUSH1 0x0 CREATE DUP1 ISZERO DUP1 ISZERO PUSH2 0x202 JUMPI RETURNDATASIZE PUSH1 0x0 DUP1 RETURNDATACOPY RETURNDATASIZE PUSH1 0x0 REVERT JUMPDEST POP PUSH1 0xC PUSH1 0x0 PUSH2 0x100 EXP DUP2 SLOAD DUP2 PUSH20 0xFFFFFFFFFFFFFFFFFFFFFFFFFFFFFFFFFFFFFFFF MUL NOT AND SWAP1 DUP4 PUSH20 0xFFFFFFFFFFFFFFFFFFFFFFFFFFFFFFFFFFFFFFFF AND MUL OR SWAP1 SSTORE POP CALLER PUSH1 0xB PUSH1 0x0 PUSH2 0x100 EXP DUP2 SLOAD DUP2 PUSH20 0xFFFFFFFFFFFFFFFFFFFFFFFFFFFFFFFFFFFFFFFF MUL NOT AND SWAP1 DUP4 PUSH20 0xFFFFFFFFFFFFFFFFFFFFFFFFFFFFFFFFFFFFFFFF AND MUL OR SWAP1 SSTORE POP POP POP PUSH2 0x3F2 JUMP JUMPDEST DUP3 PUSH1 0x2 DUP2 ADD SWAP3 DUP3 ISZERO PUSH2 0x2BA JUMPI SWAP2 PUSH1 0x20 MUL DUP3 ADD JUMPDEST DUP3 DUP2 GT ISZERO PUSH2 0x2B9 JUMPI DUP3 MLOAD DUP3 SSTORE SWAP2 PUSH1 0x20 ADD SWAP2 SWAP1 PUSH1 0x1 ADD SWAP1 PUSH2 0x29E JUMP JUMPDEST JUMPDEST POP SWAP1 POP PUSH2 0x2C7 SWAP2 SWAP1 PUSH2 0x328 JUMP JUMPDEST POP SWAP1 JUMP JUMPDEST DUP3 PUSH1 0x2 DUP1 MUL DUP2 ADD SWAP3 DUP3 ISZERO PUSH2 0x30A JUMPI SWAP2 PUSH1 0x20 MUL DUP3 ADD JUMPDEST DUP3 DUP2 GT ISZERO PUSH2 0x309 JUMPI DUP3 MLOAD DUP3 SWAP1 PUSH1 0x2 PUSH2 0x2F9 SWAP3 SWAP2 SWAP1 PUSH2 0x28B JUMP JUMPDEST POP SWAP2 PUSH1 0x20 ADD SWAP2 SWAP1 PUSH1 0x2 ADD SWAP1 PUSH2 0x2E0 JUMP JUMPDEST JUMPDEST POP SWAP1 POP PUSH2 0x317 SWAP2 SWAP1 PUSH2 0x345 JUMP JUMPDEST POP SWAP1 JUMP JUMPDEST PUSH2 0x737 DUP1 PUSH2 0xD4D DUP4 CODECOPY ADD SWAP1 JUMP JUMPDEST JUMPDEST DUP1 DUP3 GT ISZERO PUSH2 0x341 JUMPI PUSH1 0x0 DUP2 PUSH1 0x0 SWAP1 SSTORE POP PUSH1 0x1 ADD PUSH2 0x329 JUMP JUMPDEST POP SWAP1 JUMP JUMPDEST JUMPDEST DUP1 DUP3 GT ISZERO PUSH2 0x365 JUMPI PUSH1 0x0 DUP2 DUP2 PUSH2 0x35C SWAP2 SWAP1 PUSH2 0x369 JUMP JUMPDEST POP PUSH1 0x2 ADD PUSH2 0x346 JUMP JUMPDEST POP SWAP1 JUMP JUMPDEST POP PUSH1 0x0 DUP2 SSTORE PUSH1 0x1 ADD PUSH1 0x0 SWAP1 SSTORE JUMP JUMPDEST PUSH1 0x0 DUP1 REVERT JUMPDEST PUSH1 0x0 DUP2 SWAP1 POP SWAP2 SWAP1 POP JUMP JUMPDEST PUSH2 0x38F DUP2 PUSH2 0x37C JUMP JUMPDEST DUP2 EQ PUSH2 0x39A JUMPI PUSH1 0x0 DUP1 REVERT JUMPDEST POP JUMP JUMPDEST PUSH1 0x0 DUP2 MLOAD SWAP1 POP PUSH2 0x3AC DUP2 PUSH2 0x386 JUMP JUMPDEST SWAP3 SWAP2 POP POP JUMP JUMPDEST PUSH1 0x0 DUP1 PUSH1 0x40 DUP4 DUP6 SUB SLT ISZERO PUSH2 0x3C9 JUMPI PUSH2 0x3C8 PUSH2 0x377 JUMP JUMPDEST JUMPDEST PUSH1 0x0 PUSH2 0x3D7 DUP6 DUP3 DUP7 ADD PUSH2 0x39D JUMP JUMPDEST SWAP3 POP POP PUSH1 0x20 PUSH2 0x3E8 DUP6 DUP3 DUP7 ADD PUSH2 0x39D JUMP JUMPDEST SWAP2 POP POP SWAP3 POP SWAP3 SWAP1 POP JUMP JUMPDEST PUSH2 0x94C DUP1 PUSH2 0x401 PUSH1 0x0 CODECOPY PUSH1 0x0 RETURN INVALID PUSH1 0x80 PUSH1 0x40 MSTORE PUSH1 0x4 CALLDATASIZE LT PUSH2 0x34 JUMPI PUSH1 0x0 CALLDATALOAD PUSH1 0xE0 SHR DUP1 PUSH4 0x5EB86FCA EQ PUSH2 0x39 JUMPI DUP1 PUSH4 0xC880DC57 EQ PUSH2 0x76 JUMPI DUP1 PUSH4 0xD19E6EBB EQ PUSH2 0xB3 JUMPI JUMPDEST PUSH1 0x0 DUP1 REVERT JUMPDEST CALLVALUE DUP1 ISZERO PUSH2 0x45 JUMPI PUSH1 0x0 DUP1 REVERT JUMPDEST POP PUSH2 0x60 PUSH1 0x4 DUP1 CALLDATASIZE SUB DUP2 ADD SWAP1 PUSH2 0x5B SWAP2 SWAP1 PUSH2 0x390 JUMP JUMPDEST PUSH2 0xCF JUMP JUMPDEST PUSH1 0x40 MLOAD PUSH2 0x6D SWAP2 SWAP1 PUSH2 0x3DF JUMP JUMPDEST PUSH1 0x40 MLOAD DUP1 SWAP2 SUB SWAP1 RETURN JUMPDEST CALLVALUE DUP1 ISZERO PUSH2 0x82 JUMPI PUSH1 0x0 DUP1 REVERT JUMPDEST POP PUSH2 0x9D PUSH1 0x4 DUP1 CALLDATASIZE SUB DUP2 ADD SWAP1 PUSH2 0x98 SWAP2 SWAP1 PUSH2 0x3FA JUMP JUMPDEST PUSH2 0xE3 JUMP JUMPDEST PUSH1 0x40 MLOAD PUSH2 0xAA SWAP2 SWAP1 PUSH2 0x468 JUMP JUMPDEST PUSH1 0x40 MLOAD DUP1 SWAP2 SUB SWAP1 RETURN JUMPDEST PUSH2 0xCD PUSH1 0x4 DUP1 CALLDATASIZE SUB DUP2 ADD SWAP1 PUSH2 0xC8 SWAP2 SWAP1 PUSH2 0x483 JUMP JUMPDEST PUSH2 0x1EF JUMP JUMPDEST STOP JUMPDEST PUSH1 0x0 PUSH2 0xDB DUP4 DUP4 PUSH2 0x2A5 JUMP JUMPDEST SWAP1 POP SWAP3 SWAP2 POP POP JUMP JUMPDEST PUSH1 0x0 DUP1 DUP5 SWAP1 POP PUSH1 0x0 DUP5 SWAP1 POP PUSH1 0x0 DUP5 SWAP1 POP PUSH1 0x0 PUSH2 0x10C PUSH1 0x0 SLOAD DUP6 PUSH2 0x106 SWAP2 SWAP1 PUSH2 0x4DF JUMP JUMPDEST DUP5 PUSH2 0x2A5 JUMP JUMPDEST SWAP1 POP PUSH1 0xC PUSH1 0x0 SWAP1 SLOAD SWAP1 PUSH2 0x100 EXP SWAP1 DIV PUSH20 0xFFFFFFFFFFFFFFFFFFFFFFFFFFFFFFFFFFFFFFFF AND PUSH20 0xFFFFFFFFFFFFFFFFFFFFFFFFFFFFFFFFFFFFFFFF AND PUSH4 0x5FE8C13B PUSH1 0x3 PUSH1 0x5 PUSH1 0x9 PUSH1 0x40 MLOAD DUP1 PUSH1 0x80 ADD PUSH1 0x40 MSTORE DUP1 DUP8 DUP2 MSTORE PUSH1 0x20 ADD PUSH1 0x0 SLOAD DUP12 PUSH2 0x171 SWAP2 SWAP1 PUSH2 0x4DF JUMP JUMPDEST DUP2 MSTORE PUSH1 0x20 ADD DUP9 DUP2 MSTORE PUSH1 0x20 ADD PUSH1 0x1 SLOAD DUP2 MSTORE POP PUSH1 0x40 MLOAD DUP6 PUSH4 0xFFFFFFFF AND PUSH1 0xE0 SHL DUP2 MSTORE PUSH1 0x4 ADD PUSH2 0x1A1 SWAP5 SWAP4 SWAP3 SWAP2 SWAP1 PUSH2 0x791 JUMP JUMPDEST PUSH1 0x20 PUSH1 0x40 MLOAD DUP1 DUP4 SUB DUP2 DUP7 GAS STATICCALL ISZERO DUP1 ISZERO PUSH2 0x1BE JUMPI RETURNDATASIZE PUSH1 0x0 DUP1 RETURNDATACOPY RETURNDATASIZE PUSH1 0x0 REVERT JUMPDEST POP POP POP POP PUSH1 0x40 MLOAD RETURNDATASIZE PUSH1 0x1F NOT PUSH1 0x1F DUP3 ADD AND DUP3 ADD DUP1 PUSH1 0x40 MSTORE POP DUP2 ADD SWAP1 PUSH2 0x1E2 SWAP2 SWAP1 PUSH2 0x804 JUMP JUMPDEST SWAP5 POP POP POP POP POP SWAP4 SWAP3 POP POP POP JUMP JUMPDEST PUSH1 0xA CALLVALUE EQ PUSH2 0x232 JUMPI PUSH1 0x40 MLOAD PUSH32 0x8C379A000000000000000000000000000000000000000000000000000000000 DUP2 MSTORE PUSH1 0x4 ADD PUSH2 0x229 SWAP1 PUSH2 0x8B4 JUMP JUMPDEST PUSH1 0x40 MLOAD DUP1 SWAP2 SUB SWAP1 REVERT JUMPDEST DUP1 PUSH1 0x1 DUP2 SWAP1 SSTORE POP PUSH1 0xB PUSH1 0x0 SWAP1 SLOAD SWAP1 PUSH2 0x100 EXP SWAP1 DIV PUSH20 0xFFFFFFFFFFFFFFFFFFFFFFFFFFFFFFFFFFFFFFFF AND PUSH20 0xFFFFFFFFFFFFFFFFFFFFFFFFFFFFFFFFFFFFFFFF AND PUSH2 0x8FC CALLVALUE SWAP1 DUP2 ISZERO MUL SWAP1 PUSH1 0x40 MLOAD PUSH1 0x0 PUSH1 0x40 MLOAD DUP1 DUP4 SUB DUP2 DUP6 DUP9 DUP9 CALL SWAP4 POP POP POP POP ISZERO DUP1 ISZERO PUSH2 0x2A1 JUMPI RETURNDATASIZE PUSH1 0x0 DUP1 RETURNDATACOPY RETURNDATASIZE PUSH1 0x0 REVERT JUMPDEST POP POP JUMP JUMPDEST PUSH1 0x0 DUP1 DUP4 SWAP1 POP PUSH1 0x0 DUP4 SWAP1 POP PUSH1 0x0 PUSH1 0x1 SLOAD SWAP1 POP PUSH1 0x3 DUP4 PUSH2 0x2C4 SWAP2 SWAP1 PUSH2 0x4DF JUMP JUMPDEST PUSH1 0x3 DUP1 DUP6 DUP5 DUP7 PUSH2 0x2D4 SWAP2 SWAP1 PUSH2 0x4DF JUMP JUMPDEST PUSH2 0x2DE SWAP2 SWAP1 PUSH2 0x8D4 JUMP JUMPDEST PUSH2 0x2E8 SWAP2 SWAP1 PUSH2 0x4DF JUMP JUMPDEST PUSH2 0x2F2 SWAP2 SWAP1 PUSH2 0x8D4 JUMP JUMPDEST DUP3 DUP5 DUP7 PUSH2 0x2FF SWAP2 SWAP1 PUSH2 0x4DF JUMP JUMPDEST PUSH2 0x309 SWAP2 SWAP1 PUSH2 0x4DF JUMP JUMPDEST PUSH1 0x3 DUP7 DUP6 DUP8 PUSH2 0x318 SWAP2 SWAP1 PUSH2 0x4DF JUMP JUMPDEST PUSH2 0x322 SWAP2 SWAP1 PUSH2 0x8D4 JUMP JUMPDEST PUSH2 0x32C SWAP2 SWAP1 PUSH2 0x4DF JUMP JUMPDEST PUSH2 0x336 SWAP2 SWAP1 PUSH2 0x4DF JUMP JUMPDEST PUSH2 0x340 SWAP2 SWAP1 PUSH2 0x4DF JUMP JUMPDEST PUSH2 0x34A SWAP2 SWAP1 PUSH2 0x8D4 JUMP JUMPDEST SWAP4 POP POP POP POP SWAP3 SWAP2 POP POP JUMP JUMPDEST PUSH1 0x0 DUP1 REVERT JUMPDEST PUSH1 0x0 DUP2 SWAP1 POP SWAP2 SWAP1 POP JUMP JUMPDEST PUSH2 0x36D DUP2 PUSH2 0x35A JUMP JUMPDEST DUP2 EQ PUSH2 0x378 JUMPI PUSH1 0x0 DUP1 REVERT JUMPDEST POP JUMP JUMPDEST PUSH1 0x0 DUP2 CALLDATALOAD SWAP1 POP PUSH2 0x38A DUP2 PUSH2 0x364 JUMP JUMPDEST SWAP3 SWAP2 POP POP JUMP JUMPDEST PUSH1 0x0 DUP1 PUSH1 0x40 DUP4 DUP6 SUB SLT ISZERO PUSH2 0x3A7 JUMPI PUSH2 0x3A6 PUSH2 0x355 JUMP JUMPDEST JUMPDEST PUSH1 0x0 PUSH2 0x3B5 DUP6 DUP3 DUP7 ADD PUSH2 0x37B JUMP JUMPDEST SWAP3 POP POP PUSH1 0x20 PUSH2 0x3C6 DUP6 DUP3 DUP7 ADD PUSH2 0x37B JUMP JUMPDEST SWAP2 POP POP SWAP3 POP SWAP3 SWAP1 POP JUMP JUMPDEST PUSH2 0x3D9 DUP2 PUSH2 0x35A JUMP JUMPDEST DUP3 MSTORE POP POP JUMP JUMPDEST PUSH1 0x0 PUSH1 0x20 DUP3 ADD SWAP1 POP PUSH2 0x3F4 PUSH1 0x0 DUP4 ADD DUP5 PUSH2 0x3D0 JUMP JUMPDEST SWAP3 SWAP2 POP POP JUMP JUMPDEST PUSH1 0x0 DUP1 PUSH1 0x0 PUSH1 0x60 DUP5 DUP7 SUB SLT ISZERO PUSH2 0x413 JUMPI PUSH2 0x412 PUSH2 0x355 JUMP JUMPDEST JUMPDEST PUSH1 0x0 PUSH2 0x421 DUP7 DUP3 DUP8 ADD PUSH2 0x37B JUMP JUMPDEST SWAP4 POP POP PUSH1 0x20 PUSH2 0x432 DUP7 DUP3 DUP8 ADD PUSH2 0x37B JUMP JUMPDEST SWAP3 POP POP PUSH1 0x40 PUSH2 0x443 DUP7 DUP3 DUP8 ADD PUSH2 0x37B JUMP JUMPDEST SWAP2 POP POP SWAP3 POP SWAP3 POP SWAP3 JUMP JUMPDEST PUSH1 0x0 DUP2 ISZERO ISZERO SWAP1 POP SWAP2 SWAP1 POP JUMP JUMPDEST PUSH2 0x462 DUP2 PUSH2 0x44D JUMP JUMPDEST DUP3 MSTORE POP POP JUMP JUMPDEST PUSH1 0x0 PUSH1 0x20 DUP3 ADD SWAP1 POP PUSH2 0x47D PUSH1 0x0 DUP4 ADD DUP5 PUSH2 0x459 JUMP JUMPDEST SWAP3 SWAP2 POP POP JUMP JUMPDEST PUSH1 0x0 PUSH1 0x20 DUP3 DUP5 SUB SLT ISZERO PUSH2 0x499 JUMPI PUSH2 0x498 PUSH2 0x355 JUMP JUMPDEST JUMPDEST PUSH1 0x0 PUSH2 0x4A7 DUP5 DUP3 DUP6 ADD PUSH2 0x37B JUMP JUMPDEST SWAP2 POP POP SWAP3 SWAP2 POP POP JUMP JUMPDEST PUSH32 0x4E487B7100000000000000000000000000000000000000000000000000000000 PUSH1 0x0 MSTORE PUSH1 0x11 PUSH1 0x4 MSTORE PUSH1 0x24 PUSH1 0x0 REVERT JUMPDEST PUSH1 0x0 PUSH2 0x4EA DUP3 PUSH2 0x35A JUMP JUMPDEST SWAP2 POP PUSH2 0x4F5 DUP4 PUSH2 0x35A JUMP JUMPDEST SWAP3 POP DUP3 DUP3 ADD SWAP1 POP DUP1 DUP3 GT ISZERO PUSH2 0x50D JUMPI PUSH2 0x50C PUSH2 0x4B0 JUMP JUMPDEST JUMPDEST SWAP3 SWAP2 POP POP JUMP JUMPDEST PUSH1 0x0 PUSH1 0x2 SWAP1 POP SWAP2 SWAP1 POP JUMP JUMPDEST PUSH1 0x0 DUP2 SWAP1 POP SWAP3 SWAP2 POP POP JUMP JUMPDEST PUSH1 0x0 DUP2 SWAP1 POP SWAP2 SWAP1 POP JUMP JUMPDEST PUSH2 0x53C DUP2 PUSH2 0x35A JUMP JUMPDEST DUP3 MSTORE POP POP JUMP JUMPDEST PUSH1 0x0 PUSH2 0x54E DUP4 DUP4 PUSH2 0x533 JUMP JUMPDEST PUSH1 0x20 DUP4 ADD SWAP1 POP SWAP3 SWAP2 POP POP JUMP JUMPDEST PUSH1 0x0 DUP2 PUSH1 0x0 SHR SWAP1 POP SWAP2 SWAP1 POP JUMP JUMPDEST PUSH1 0x0 DUP2 SWAP1 POP SWAP2 SWAP1 POP JUMP JUMPDEST PUSH1 0x0 PUSH2 0x584 PUSH2 0x57F DUP4 PUSH2 0x55A JUMP JUMPDEST PUSH2 0x567 JUMP JUMPDEST SWAP1 POP SWAP2 SWAP1 POP JUMP JUMPDEST PUSH1 0x0 PUSH2 0x597 DUP3 SLOAD PUSH2 0x571 JUMP JUMPDEST SWAP1 POP SWAP2 SWAP1 POP JUMP JUMPDEST PUSH1 0x0 PUSH1 0x1 DUP3 ADD SWAP1 POP SWAP2 SWAP1 POP JUMP JUMPDEST PUSH2 0x5B4 DUP2 PUSH2 0x513 JUMP JUMPDEST PUSH2 0x5BE DUP2 DUP5 PUSH2 0x51E JUMP JUMPDEST SWAP3 POP PUSH2 0x5C9 DUP3 PUSH2 0x529 JUMP JUMPDEST DUP1 PUSH1 0x0 JUMPDEST DUP4 DUP2 LT ISZERO PUSH2 0x601 JUMPI PUSH2 0x5DE DUP3 PUSH2 0x58B JUMP JUMPDEST PUSH2 0x5E8 DUP8 DUP3 PUSH2 0x542 JUMP JUMPDEST SWAP7 POP PUSH2 0x5F3 DUP4 PUSH2 0x59E JUMP JUMPDEST SWAP3 POP POP PUSH1 0x1 DUP2 ADD SWAP1 POP PUSH2 0x5CD JUMP JUMPDEST POP POP POP POP POP POP JUMP JUMPDEST PUSH1 0x0 PUSH1 0x2 SWAP1 POP SWAP2 SWAP1 POP JUMP JUMPDEST PUSH1 0x0 DUP2 SWAP1 POP SWAP3 SWAP2 POP POP JUMP JUMPDEST PUSH1 0x0 DUP2 SWAP1 POP SWAP2 SWAP1 POP JUMP JUMPDEST PUSH1 0x0 DUP2 SWAP1 POP SWAP3 SWAP2 POP POP JUMP JUMPDEST PUSH2 0x63D DUP2 PUSH2 0x513 JUMP JUMPDEST PUSH2 0x647 DUP2 DUP5 PUSH2 0x629 JUMP JUMPDEST SWAP3 POP PUSH2 0x652 DUP3 PUSH2 0x529 JUMP JUMPDEST DUP1 PUSH1 0x0 JUMPDEST DUP4 DUP2 LT ISZERO PUSH2 0x68A JUMPI PUSH2 0x667 DUP3 PUSH2 0x58B JUMP JUMPDEST PUSH2 0x671 DUP8 DUP3 PUSH2 0x542 JUMP JUMPDEST SWAP7 POP PUSH2 0x67C DUP4 PUSH2 0x59E JUMP JUMPDEST SWAP3 POP POP PUSH1 0x1 DUP2 ADD SWAP1 POP PUSH2 0x656 JUMP JUMPDEST POP POP POP POP POP POP JUMP JUMPDEST PUSH1 0x0 PUSH2 0x69E DUP4 DUP4 PUSH2 0x634 JUMP JUMPDEST PUSH1 0x40 DUP4 ADD SWAP1 POP SWAP3 SWAP2 POP POP JUMP JUMPDEST PUSH1 0x0 PUSH1 0x2 DUP3 ADD SWAP1 POP SWAP2 SWAP1 POP JUMP JUMPDEST PUSH2 0x6C0 DUP2 PUSH2 0x609 JUMP JUMPDEST PUSH2 0x6CA DUP2 DUP5 PUSH2 0x614 JUMP JUMPDEST SWAP3 POP PUSH2 0x6D5 DUP3 PUSH2 0x61F JUMP JUMPDEST DUP1 PUSH1 0x0 JUMPDEST DUP4 DUP2 LT ISZERO PUSH2 0x705 JUMPI DUP2 PUSH2 0x6EC DUP8 DUP3 PUSH2 0x692 JUMP JUMPDEST SWAP7 POP PUSH2 0x6F7 DUP4 PUSH2 0x6AA JUMP JUMPDEST SWAP3 POP POP PUSH1 0x1 DUP2 ADD SWAP1 POP PUSH2 0x6D9 JUMP JUMPDEST POP POP POP POP POP POP JUMP JUMPDEST PUSH1 0x0 PUSH1 0x4 SWAP1 POP SWAP2 SWAP1 POP JUMP JUMPDEST PUSH1 0x0 DUP2 SWAP1 POP SWAP3 SWAP2 POP POP JUMP JUMPDEST PUSH1 0x0 DUP2 SWAP1 POP SWAP2 SWAP1 POP JUMP JUMPDEST PUSH1 0x0 PUSH1 0x20 DUP3 ADD SWAP1 POP SWAP2 SWAP1 POP JUMP JUMPDEST PUSH2 0x743 DUP2 PUSH2 0x70D JUMP JUMPDEST PUSH2 0x74D DUP2 DUP5 PUSH2 0x718 JUMP JUMPDEST SWAP3 POP PUSH2 0x758 DUP3 PUSH2 0x723 JUMP JUMPDEST DUP1 PUSH1 0x0 JUMPDEST DUP4 DUP2 LT ISZERO PUSH2 0x789 JUMPI DUP2 MLOAD PUSH2 0x770 DUP8 DUP3 PUSH2 0x542 JUMP JUMPDEST SWAP7 POP PUSH2 0x77B DUP4 PUSH2 0x72D JUMP JUMPDEST SWAP3 POP POP PUSH1 0x1 DUP2 ADD SWAP1 POP PUSH2 0x75C JUMP JUMPDEST POP POP POP POP POP POP JUMP JUMPDEST PUSH1 0x0 PUSH2 0x180 DUP3 ADD SWAP1 POP PUSH2 0x7A7 PUSH1 0x0 DUP4 ADD DUP8 PUSH2 0x5AB JUMP JUMPDEST PUSH2 0x7B4 PUSH1 0x40 DUP4 ADD DUP7 PUSH2 0x6B7 JUMP JUMPDEST PUSH2 0x7C1 PUSH1 0xC0 DUP4 ADD DUP6 PUSH2 0x5AB JUMP JUMPDEST PUSH2 0x7CF PUSH2 0x100 DUP4 ADD DUP5 PUSH2 0x73A JUMP JUMPDEST SWAP6 SWAP5 POP POP POP POP POP JUMP JUMPDEST PUSH2 0x7E1 DUP2 PUSH2 0x44D JUMP JUMPDEST DUP2 EQ PUSH2 0x7EC JUMPI PUSH1 0x0 DUP1 REVERT JUMPDEST POP JUMP JUMPDEST PUSH1 0x0 DUP2 MLOAD SWAP1 POP PUSH2 0x7FE DUP2 PUSH2 0x7D8 JUMP JUMPDEST SWAP3 SWAP2 POP POP JUMP JUMPDEST PUSH1 0x0 PUSH1 0x20 DUP3 DUP5 SUB SLT ISZERO PUSH2 0x81A JUMPI PUSH2 0x819 PUSH2 0x355 JUMP JUMPDEST JUMPDEST PUSH1 0x0 PUSH2 0x828 DUP5 DUP3 DUP6 ADD PUSH2 0x7EF JUMP JUMPDEST SWAP2 POP POP SWAP3 SWAP2 POP POP JUMP JUMPDEST PUSH1 0x0 DUP3 DUP3 MSTORE PUSH1 0x20 DUP3 ADD SWAP1 POP SWAP3 SWAP2 POP POP JUMP JUMPDEST PUSH32 0x456C2076616C6F722064652065737461206F7065726163696F6E206573206465 PUSH1 0x0 DUP3 ADD MSTORE PUSH32 0x2031302045544800000000000000000000000000000000000000000000000000 PUSH1 0x20 DUP3 ADD MSTORE POP JUMP JUMPDEST PUSH1 0x0 PUSH2 0x89E PUSH1 0x27 DUP4 PUSH2 0x831 JUMP JUMPDEST SWAP2 POP PUSH2 0x8A9 DUP3 PUSH2 0x842 JUMP JUMPDEST PUSH1 0x40 DUP3 ADD SWAP1 POP SWAP2 SWAP1 POP JUMP JUMPDEST PUSH1 0x0 PUSH1 0x20 DUP3 ADD SWAP1 POP DUP2 DUP2 SUB PUSH1 0x0 DUP4 ADD MSTORE PUSH2 0x8CD DUP2 PUSH2 0x891 JUMP JUMPDEST SWAP1 POP SWAP2 SWAP1 POP JUMP JUMPDEST PUSH1 0x0 PUSH2 0x8DF DUP3 PUSH2 0x35A JUMP JUMPDEST SWAP2 POP PUSH2 0x8EA DUP4 PUSH2 0x35A JUMP JUMPDEST SWAP3 POP DUP3 DUP3 MUL PUSH2 0x8F8 DUP2 PUSH2 0x35A JUMP JUMPDEST SWAP2 POP DUP3 DUP3 DIV DUP5 EQ DUP4 ISZERO OR PUSH2 0x90F JUMPI PUSH2 0x90E PUSH2 0x4B0 JUMP JUMPDEST JUMPDEST POP SWAP3 SWAP2 POP POP JUMP INVALID LOG2 PUSH5 0x6970667358 0x22 SLT KECCAK256 PUSH30 0xB2545D27C4CA83A39BC94CAAE6A99BE87AFC7D5B59A4EAF76DA45D4D72C6 0xF PUSH5 0x736F6C6343 STOP ADDMOD BYTE STOP CALLER PUSH1 0x80 PUSH1 0x40 MSTORE CALLVALUE DUP1 ISZERO PUSH1 0xF JUMPI PUSH1 0x0 DUP1 REVERT JUMPDEST POP PUSH2 0x718 DUP1 PUSH2 0x1F PUSH1 0x0 CODECOPY PUSH1 0x0 RETURN INVALID PUSH1 0x80 PUSH1 0x40 MSTORE CALLVALUE DUP1 ISZERO PUSH2 0x10 JUMPI PUSH1 0x0 DUP1 REVERT JUMPDEST POP PUSH1 0x4 CALLDATASIZE LT PUSH2 0x2B JUMPI PUSH1 0x0 CALLDATALOAD PUSH1 0xE0 SHR DUP1 PUSH4 0x5FE8C13B EQ PUSH2 0x30 JUMPI JUMPDEST PUSH1 0x0 DUP1 REVERT JUMPDEST PUSH2 0x4A PUSH1 0x4 DUP1 CALLDATASIZE SUB DUP2 ADD SWAP1 PUSH2 0x45 SWAP2 SWAP1 PUSH2 0x643 JUMP JUMPDEST PUSH2 0x60 JUMP JUMPDEST PUSH1 0x40 MLOAD PUSH2 0x57 SWAP2 SWAP1 PUSH2 0x6C7 JUMP JUMPDEST PUSH1 0x40 MLOAD DUP1 SWAP2 SUB SWAP1 RETURN JUMPDEST PUSH1 0x0 PUSH2 0x57D JUMP JUMPDEST PUSH32 0x30644E72E131A029B85045B68181585D2833E84879B9709143E1F593F0000001 DUP2 LT PUSH2 0x98 JUMPI PUSH1 0x0 DUP1 MSTORE PUSH1 0x20 PUSH1 0x0 RETURN JUMPDEST POP JUMP JUMPDEST PUSH1 0x0 PUSH1 0x40 MLOAD DUP4 DUP2 MSTORE DUP5 PUSH1 0x20 DUP3 ADD MSTORE DUP6 PUSH1 0x40 DUP3 ADD MSTORE PUSH1 0x40 DUP2 PUSH1 0x60 DUP4 PUSH1 0x7 PUSH2 0x7D0 GAS SUB STATICCALL SWAP2 POP DUP2 PUSH2 0xCE JUMPI PUSH1 0x0 DUP1 MSTORE PUSH1 0x20 PUSH1 0x0 RETURN JUMPDEST DUP3 MLOAD PUSH1 0x40 DUP3 ADD MSTORE PUSH1 0x20 DUP4 ADD MLOAD PUSH1 0x60 DUP3 ADD MSTORE PUSH1 0x40 DUP4 PUSH1 0x80 DUP4 PUSH1 0x6 PUSH2 0x7D0 GAS SUB STATICCALL SWAP2 POP DUP2 PUSH2 0xFE JUMPI PUSH1 0x0 DUP1 MSTORE PUSH1 0x20 PUSH1 0x0 RETURN JUMPDEST POP POP POP POP POP POP JUMP JUMPDEST PUSH1 0x0 PUSH1 0x80 DUP7 ADD PUSH1 0x0 DUP8 ADD PUSH32 0x1E87F974A86385AE5E6BCC63D046B45A70FCB38D83376D91821EF7E843A1BFC9 DUP2 MSTORE PUSH32 0xEA0F7C760484AAC1EA5440D510EAD26B56E311FDBE3D7DE27A7C28640034AF4 PUSH1 0x20 DUP3 ADD MSTORE PUSH2 0x1A9 PUSH1 0x0 DUP9 ADD CALLDATALOAD PUSH32 0x1015C05BCDE837B7EE03DFBFDA7F6EE01DC0BBC2C08E55E5BFA648107218DB5A PUSH32 0x2FDBE1DED26D3C8C5EC574C16C23D733C71B335314C7E815102280E36D77CC1F DUP5 PUSH2 0x9B JUMP JUMPDEST PUSH2 0x1F9 PUSH1 0x20 DUP9 ADD CALLDATALOAD PUSH32 0x6189DA5E3DCD5BD7364421927F56F39A02F6A1D0F738D12469E9A41D01AD2DF PUSH32 0x128623AACE631DA559193CA07B3EF9DA3BA20C45BAC014190C69BD0A7475188B DUP5 PUSH2 0x9B JUMP JUMPDEST PUSH2 0x249 PUSH1 0x40 DUP9 ADD CALLDATALOAD PUSH32 0x2027AE03285C04E3E90E8184EA7DFB6387B39D793A8802C5B18432FD4E547219 PUSH32 0x8258E6629376BCA43B68E380BC96E627F88CA075EDEA2F3D73A6C00F21B41AE DUP5 PUSH2 0x9B JUMP JUMPDEST PUSH2 0x299 PUSH1 0x60 DUP9 ADD CALLDATALOAD PUSH32 0x28E23A33E865AE86AD208505B01934DC61EFB9C58C752A998A716EF4474F4A58 PUSH32 0x2596D004E2C407270A3333A5386F1F46815FAF818E5501D7F54B40267EB28A77 DUP5 PUSH2 0x9B JUMP JUMPDEST DUP4 CALLDATALOAD DUP3 MSTORE PUSH32 0x30644E72E131A029B85045B68181585D97816A916871CA8D3C208C16D87CFD47 PUSH1 0x20 DUP6 ADD CALLDATALOAD PUSH32 0x30644E72E131A029B85045B68181585D97816A916871CA8D3C208C16D87CFD47 SUB MOD PUSH1 0x20 DUP4 ADD MSTORE DUP5 CALLDATALOAD PUSH1 0x40 DUP4 ADD MSTORE PUSH1 0x20 DUP6 ADD CALLDATALOAD PUSH1 0x60 DUP4 ADD MSTORE PUSH1 0x40 DUP6 ADD CALLDATALOAD PUSH1 0x80 DUP4 ADD MSTORE PUSH1 0x60 DUP6 ADD CALLDATALOAD PUSH1 0xA0 DUP4 ADD MSTORE PUSH32 0x114DE35DC50CAD62B29EA026CF28ABD7008232018811F42894E92998DD367776 PUSH1 0xC0 DUP4 ADD MSTORE PUSH32 0xEC033A1FF45CA1C28A4D33A5BF6F60F94BBFAFFD975A34074E63391CA69A6A9 PUSH1 0xE0 DUP4 ADD MSTORE PUSH32 0x593146809489A45018EF8127007AD7609C93D3CBF63315338A00D4BCE4A0202 PUSH2 0x100 DUP4 ADD MSTORE PUSH32 0x29448B3B3F655D1BBD420FB784728DB4DD86DE21A58B2C6F153A7BFA248AB0A9 PUSH2 0x120 DUP4 ADD MSTORE PUSH32 0x29AAFAE57422EA7CEA6DDEE2FD47FADA99B2C496DD4FAAC47B08B5070626F152 PUSH2 0x140 DUP4 ADD MSTORE PUSH32 0x148F50DF3BCBD9A41C5BB0A689BC6D870A11CEE138619304B0E929AB28945BF4 PUSH2 0x160 DUP4 ADD MSTORE PUSH1 0x0 DUP9 ADD MLOAD PUSH2 0x180 DUP4 ADD MSTORE PUSH1 0x20 PUSH1 0x0 ADD DUP9 ADD MLOAD PUSH2 0x1A0 DUP4 ADD MSTORE PUSH32 0x198E9393920D483A7260BFB731FB5D25F1AA493335A9E71297E485B7AEF312C2 PUSH2 0x1C0 DUP4 ADD MSTORE PUSH32 0x1800DEEF121F1E76426A00665E5C4479674322D4F75EDADD46DEBD5CD992F6ED PUSH2 0x1E0 DUP4 ADD MSTORE PUSH32 0x90689D0585FF075EC9E99AD690C3395BC4B313370B38EF355ACDADCD122975B PUSH2 0x200 DUP4 ADD MSTORE PUSH32 0x12C85EA5DB8C6DEB4AAB71808DCB408FE3D1E7690C43D37B4CE6CC0166FA7DAA PUSH2 0x220 DUP4 ADD MSTORE DUP6 CALLDATALOAD PUSH2 0x240 DUP4 ADD MSTORE PUSH1 0x20 DUP7 ADD CALLDATALOAD PUSH2 0x260 DUP4 ADD MSTORE PUSH32 0x1FECF97D6FCD52D5A57D65D0AF27CEAD56954A56BE1FACB0A85D21126593FECD PUSH2 0x280 DUP4 ADD MSTORE PUSH32 0x11A15C808D51BBCE83817023228846E7DBAD533C53C2F981D09887C6B2541DA6 PUSH2 0x2A0 DUP4 ADD MSTORE PUSH32 0x2E69EDE1DCEC1A55605F693A13908AED53445DA2449EBFD1E78E56A24C932FF1 PUSH2 0x2C0 DUP4 ADD MSTORE PUSH32 0x276C9B7FED4802CEA174217CCF7140225AFFF687B1E8FBBAB2395B8C3499C1E8 PUSH2 0x2E0 DUP4 ADD MSTORE PUSH1 0x20 DUP3 PUSH2 0x300 DUP5 PUSH1 0x8 PUSH2 0x7D0 GAS SUB STATICCALL DUP3 MLOAD DUP2 AND SWAP4 POP POP POP POP SWAP6 SWAP5 POP POP POP POP POP JUMP JUMPDEST PUSH1 0x40 MLOAD PUSH2 0x380 DUP2 ADD PUSH1 0x40 MSTORE PUSH2 0x595 PUSH1 0x0 DUP5 ADD CALLDATALOAD PUSH2 0x67 JUMP JUMPDEST PUSH2 0x5A2 PUSH1 0x20 DUP5 ADD CALLDATALOAD PUSH2 0x67 JUMP JUMPDEST PUSH2 0x5AF PUSH1 0x40 DUP5 ADD CALLDATALOAD PUSH2 0x67 JUMP JUMPDEST PUSH2 0x5BC PUSH1 0x60 DUP5 ADD CALLDATALOAD PUSH2 0x67 JUMP JUMPDEST PUSH2 0x5C9 DUP2 DUP5 DUP7 DUP9 DUP11 PUSH2 0x106 JUMP JUMPDEST DUP1 PUSH1 0x0 MSTORE PUSH1 0x20 PUSH1 0x0 RETURN JUMPDEST PUSH1 0x0 DUP1 REVERT JUMPDEST PUSH1 0x0 DUP1 REVERT JUMPDEST PUSH1 0x0 DUP2 SWAP1 POP DUP3 PUSH1 0x20 PUSH1 0x2 MUL DUP3 ADD GT ISZERO PUSH2 0x5F9 JUMPI PUSH2 0x5F8 PUSH2 0x5D8 JUMP JUMPDEST JUMPDEST SWAP3 SWAP2 POP POP JUMP JUMPDEST PUSH1 0x0 DUP2 SWAP1 POP DUP3 PUSH1 0x40 PUSH1 0x2 MUL DUP3 ADD GT ISZERO PUSH2 0x61B JUMPI PUSH2 0x61A PUSH2 0x5D8 JUMP JUMPDEST JUMPDEST SWAP3 SWAP2 POP POP JUMP JUMPDEST PUSH1 0x0 DUP2 SWAP1 POP DUP3 PUSH1 0x20 PUSH1 0x4 MUL DUP3 ADD GT ISZERO PUSH2 0x63D JUMPI PUSH2 0x63C PUSH2 0x5D8 JUMP JUMPDEST JUMPDEST SWAP3 SWAP2 POP POP JUMP JUMPDEST PUSH1 0x0 DUP1 PUSH1 0x0 DUP1 PUSH2 0x180 DUP6 DUP8 SUB SLT ISZERO PUSH2 0x65E JUMPI PUSH2 0x65D PUSH2 0x5D3 JUMP JUMPDEST JUMPDEST PUSH1 0x0 PUSH2 0x66C DUP8 DUP3 DUP9 ADD PUSH2 0x5DD JUMP JUMPDEST SWAP5 POP POP PUSH1 0x40 PUSH2 0x67D DUP8 DUP3 DUP9 ADD PUSH2 0x5FF JUMP JUMPDEST SWAP4 POP POP PUSH1 0xC0 PUSH2 0x68E DUP8 DUP3 DUP9 ADD PUSH2 0x5DD JUMP JUMPDEST SWAP3 POP POP PUSH2 0x100 PUSH2 0x6A0 DUP8 DUP3 DUP9 ADD PUSH2 0x621 JUMP JUMPDEST SWAP2 POP POP SWAP3 SWAP6 SWAP2 SWAP5 POP SWAP3 POP JUMP JUMPDEST PUSH1 0x0 DUP2 ISZERO ISZERO SWAP1 POP SWAP2 SWAP1 POP JUMP JUMPDEST PUSH2 0x6C1 DUP2 PUSH2 0x6AC JUMP JUMPDEST DUP3 MSTORE POP POP JUMP JUMPDEST PUSH1 0x0 PUSH1 0x20 DUP3 ADD SWAP1 POP PUSH2 0x6DC PUSH1 0x0 DUP4 ADD DUP5 PUSH2 0x6B8 JUMP JUMPDEST SWAP3 SWAP2 POP POP JUMP INVALID LOG2 PUSH5 0x6970667358 0x22 SLT KECCAK256 LOG4 PUSH0 PUSH0 SWAP7 0xB0 DELEGATECALL PUSH3 0x323288 0xEC 0xAA SUB DUP10 DUP16 0xF6 0xC5 0x25 ADDRESS 0x4E CREATE DUP14 MLOAD 0xF7 0xB5 RETURNDATACOPY MSTORE8 DUP4 DUP3 0xCB MSTORE8 0xE2 PUSH5 0x736F6C6343 STOP ADDMOD BYTE STOP CALLER "
        },
        "methodIdentifiers": {
          "actualizar_clave(uint256)": "d19e6ebb",
          "dar_clave_secreta(uint256,uint256)": "5eb86fca",
          "verificar_zkp(uint256,uint256,uint256)": "c880dc57"
        }
      }
    }
  }
}