{
  "_format": "hh-sol-artifact-1",
  "contractName": "Banco",
  "sourceName": "contracts/Banco.sol",
  "abi": [
    {
      "inputs": [],
      "stateMutability": "nonpayable",
      "type": "constructor"
    },
    {
      "inputs": [
        {
          "internalType": "string",
          "name": "_nombre",
          "type": "string"
        },
        {
          "internalType": "uint256",
          "name": "_documento",
          "type": "uint256"
        },
        {
          "internalType": "string",
          "name": "_nacimiento",
          "type": "string"
        },
        {
          "internalType": "string",
          "name": "_expedicion",
          "type": "string"
        },
        {
          "internalType": "uint256",
          "name": "_claveIngreso",
          "type": "uint256"
        }
      ],
      "name": "agregar_cliente",
      "outputs": [],
      "stateMutability": "nonpayable",
      "type": "function"
    },
    {
      "inputs": [
        {
          "internalType": "uint256",
          "name": "_cedula",
          "type": "uint256"
        },
        {
          "internalType": "string",
          "name": "_numero",
          "type": "string"
        },
        {
          "internalType": "string",
          "name": "_tipo",
          "type": "string"
        },
        {
          "internalType": "uint256",
          "name": "_saldo",
          "type": "uint256"
        }
      ],
      "name": "agregar_producto_cliente",
      "outputs": [],
      "stateMutability": "nonpayable",
      "type": "function"
    },
    {
      "inputs": [
        {
          "internalType": "address",
          "name": "",
          "type": "address"
        }
      ],
      "name": "bancos",
      "outputs": [
        {
          "internalType": "string",
          "name": "nombre",
          "type": "string"
        },
        {
          "internalType": "uint256",
          "name": "nit",
          "type": "uint256"
        },
        {
          "internalType": "uint256",
          "name": "clave",
          "type": "uint256"
        },
        {
          "internalType": "bool",
          "name": "pruebaGenerada",
          "type": "bool"
        }
      ],
      "stateMutability": "view",
      "type": "function"
    },
    {
      "inputs": [
        {
          "internalType": "address",
          "name": "",
          "type": "address"
        },
        {
          "internalType": "uint256",
          "name": "",
          "type": "uint256"
        }
      ],
      "name": "clientes",
      "outputs": [
        {
          "internalType": "string",
          "name": "nombre",
          "type": "string"
        },
        {
          "internalType": "uint256",
          "name": "documento",
          "type": "uint256"
        },
        {
          "internalType": "string",
          "name": "nacimiento",
          "type": "string"
        },
        {
          "internalType": "string",
          "name": "expedicion",
          "type": "string"
        },
        {
          "internalType": "uint256",
          "name": "claveIngreso",
          "type": "uint256"
        }
      ],
      "stateMutability": "view",
      "type": "function"
    },
    {
      "inputs": [
        {
          "internalType": "uint256",
          "name": "_nitIngresado",
          "type": "uint256"
        },
        {
          "internalType": "uint256",
          "name": "_cedulaUsuario",
          "type": "uint256"
        }
      ],
      "name": "dar_resultado_esperado",
      "outputs": [
        {
          "internalType": "uint256",
          "name": "",
          "type": "uint256"
        }
      ],
      "stateMutability": "view",
      "type": "function"
    },
    {
      "inputs": [
        {
          "internalType": "uint256",
          "name": "",
          "type": "uint256"
        }
      ],
      "name": "direccionesBancos",
      "outputs": [
        {
          "internalType": "address",
          "name": "",
          "type": "address"
        }
      ],
      "stateMutability": "view",
      "type": "function"
    },
    {
      "inputs": [
        {
          "internalType": "uint256",
          "name": "_nit",
          "type": "uint256"
        }
      ],
      "name": "existe_verificacion",
      "outputs": [
        {
          "internalType": "bool",
          "name": "",
          "type": "bool"
        }
      ],
      "stateMutability": "view",
      "type": "function"
    },
    {
      "inputs": [],
      "name": "generar_prueba",
      "outputs": [],
      "stateMutability": "payable",
      "type": "function"
    },
    {
      "inputs": [
        {
          "internalType": "uint256",
          "name": "_nit",
          "type": "uint256"
        }
      ],
      "name": "obtener_verificacion",
      "outputs": [
        {
          "internalType": "contract Verificacion",
          "name": "prueb",
          "type": "address"
        }
      ],
      "stateMutability": "view",
      "type": "function"
    },
    {
      "inputs": [
        {
          "internalType": "address",
          "name": "",
          "type": "address"
        },
        {
          "internalType": "uint256",
          "name": "",
          "type": "uint256"
        },
        {
          "internalType": "uint256",
          "name": "",
          "type": "uint256"
        }
      ],
      "name": "productos",
      "outputs": [
        {
          "internalType": "string",
          "name": "numero",
          "type": "string"
        },
        {
          "internalType": "string",
          "name": "tipo",
          "type": "string"
        },
        {
          "internalType": "uint256",
          "name": "saldo",
          "type": "uint256"
        }
      ],
      "stateMutability": "view",
      "type": "function"
    },
    {
      "inputs": [
        {
          "internalType": "uint256",
          "name": "",
          "type": "uint256"
        }
      ],
      "name": "pruebas",
      "outputs": [
        {
          "internalType": "contract Verificacion",
          "name": "",
          "type": "address"
        }
      ],
      "stateMutability": "view",
      "type": "function"
    },
    {
      "inputs": [
        {
          "internalType": "uint256",
          "name": "_cedula",
          "type": "uint256"
        },
        {
          "internalType": "uint256",
          "name": "_claveIngresada",
          "type": "uint256"
        },
        {
          "internalType": "uint256",
          "name": "_nitIngresado",
          "type": "uint256"
        },
        {
          "internalType": "uint256[2]",
          "name": "_pA",
          "type": "uint256[2]"
        },
        {
          "internalType": "uint256[2][2]",
          "name": "_pB",
          "type": "uint256[2][2]"
        },
        {
          "internalType": "uint256[2]",
          "name": "_pC",
          "type": "uint256[2]"
        }
      ],
      "name": "realizar_zkp",
      "outputs": [
        {
          "internalType": "bool",
          "name": "resultado",
          "type": "bool"
        }
      ],
      "stateMutability": "view",
      "type": "function"
    },
    {
      "inputs": [
        {
          "internalType": "string",
          "name": "_nombre",
          "type": "string"
        },
        {
          "internalType": "uint256",
          "name": "_nit",
          "type": "uint256"
        },
        {
          "internalType": "uint256",
          "name": "_clave",
          "type": "uint256"
        }
      ],
      "name": "registro_banco",
      "outputs": [],
      "stateMutability": "nonpayable",
      "type": "function"
    }
  ],
  "bytecode": "0x6080604052348015600f57600080fd5b50336000806101000a81548173ffffffffffffffffffffffffffffffffffffffff021916908373ffffffffffffffffffffffffffffffffffffffff16021790555061337a8061005f6000396000f3fe6080604052600436106100c25760003560e01c8063865bb4c21161007f578063aa75686a11610059578063aa75686a146102c9578063af7ad33b1461030a578063d855e2e014610333578063fe5bf17414610370576100c2565b8063865bb4c21461020d5780638ceac9d61461024d578063a94e163e1461028a576100c2565b80633066a61d146100c75780635d039db91461010457806366bf59101461012d5780636993d5fa1461016a5780637c8efe56146101a757806385c410fb146101e4575b600080fd5b3480156100d357600080fd5b506100ee60048036038101906100e99190611408565b61037a565b6040516100fb91906114b4565b60405180910390f35b34801561011057600080fd5b5061012b60048036038101906101269190611534565b6103b7565b005b34801561013957600080fd5b50610154600480360381019061014f9190611610565b61057a565b604051610161919061165f565b60405180910390f35b34801561017657600080fd5b50610191600480360381019061018c9190611408565b6107b2565b60405161019e9190611695565b60405180910390f35b3480156101b357600080fd5b506101ce60048036038101906101c99190611408565b610843565b6040516101db91906114b4565b60405180910390f35b3480156101f057600080fd5b5061020b600480360381019061020691906116b0565b610876565b005b34801561021957600080fd5b50610234600480360381019061022f9190611762565b6109c2565b604051610244949392919061181f565b60405180910390f35b34801561025957600080fd5b50610274600480360381019061026f9190611408565b610a87565b604051610281919061187a565b60405180910390f35b34801561029657600080fd5b506102b160048036038101906102ac9190611895565b610aba565b6040516102c0939291906118e8565b60405180910390f35b3480156102d557600080fd5b506102f060048036038101906102eb919061192d565b610c1e565b60405161030195949392919061196d565b60405180910390f35b34801561031657600080fd5b50610331600480360381019061032c91906119d5565b610e09565b005b34801561033f57600080fd5b5061035a60048036038101906103559190611ac0565b610f6b565b6040516103679190611695565b60405180910390f35b61037861119e565b005b60006003600083815260200190815260200160002060009054906101000a900473ffffffffffffffffffffffffffffffffffffffff169050919050565b60006040518060a001604052808a8a8080601f016020809104026020016040519081016040528093929190818152602001838380828437600081840152601f19601f82011690508083019250505050505050815260200188815260200187878080601f016020809104026020016040519081016040528093929190818152602001838380828437600081840152601f19601f82011690508083019250505050505050815260200185858080601f016020809104026020016040519081016040528093929190818152602001838380828437600081840152601f19601f820116905080830192505050505050508152602001838152509050600260003373ffffffffffffffffffffffffffffffffffffffff1673ffffffffffffffffffffffffffffffffffffffff168152602001908152602001600020819080600181540180825580915050600190039060005260206000209060050201600090919091909150600082015181600001908161052c9190611d80565b5060208201518160010155604082015181600201908161054c9190611d80565b5060608201518160030190816105629190611d80565b50608082015181600401555050505050505050505050565b6000806004600085815260200190815260200160002060009054906101000a900473ffffffffffffffffffffffffffffffffffffffff16905060006003600086815260200190815260200160002060009054906101000a900473ffffffffffffffffffffffffffffffffffffffff169050600080600090505b600260008573ffffffffffffffffffffffffffffffffffffffff1673ffffffffffffffffffffffffffffffffffffffff168152602001908152602001600020805490508110156107195785600260008673ffffffffffffffffffffffffffffffffffffffff1673ffffffffffffffffffffffffffffffffffffffff168152602001908152602001600020828154811061068f5761068e611e52565b5b9060005260206000209060050201600101540361070c57600260008573ffffffffffffffffffffffffffffffffffffffff1673ffffffffffffffffffffffffffffffffffffffff16815260200190815260200160002081815481106106f7576106f6611e52565b5b90600052602060002090600502016004015491505b80806001019150506105f3565b5060008273ffffffffffffffffffffffffffffffffffffffff16635eb86fca87896107449190611eb0565b846040518363ffffffff1660e01b8152600401610762929190611ee4565b602060405180830381865afa15801561077f573d6000803e3d6000fd5b505050506040513d601f19601f820116820180604052508101906107a39190611f22565b90508094505050505092915050565b6000806004600084815260200190815260200160002060009054906101000a900473ffffffffffffffffffffffffffffffffffffffff169050600160008273ffffffffffffffffffffffffffffffffffffffff1673ffffffffffffffffffffffffffffffffffffffff16815260200190815260200160002060030160009054906101000a900460ff16915050919050565b60036020528060005260406000206000915054906101000a900473ffffffffffffffffffffffffffffffffffffffff1681565b604051806080016040528085858080601f016020809104026020016040519081016040528093929190818152602001838380828437600081840152601f19601f82011690508083019250505050505050815260200183815260200182815260200160001515815250600160003373ffffffffffffffffffffffffffffffffffffffff1673ffffffffffffffffffffffffffffffffffffffff16815260200190815260200160002060008201518160000190816109329190611d80565b50602082015181600101556040820151816002015560608201518160030160006101000a81548160ff021916908315150217905550905050336004600084815260200190815260200160002060006101000a81548173ffffffffffffffffffffffffffffffffffffffff021916908373ffffffffffffffffffffffffffffffffffffffff16021790555050505050565b60016020528060005260406000206000915090508060000180546109e590611bad565b80601f0160208091040260200160405190810160405280929190818152602001828054610a1190611bad565b8015610a5e5780601f10610a3357610100808354040283529160200191610a5e565b820191906000526020600020905b815481529060010190602001808311610a4157829003601f168201915b5050505050908060010154908060020154908060030160009054906101000a900460ff16905084565b60046020528060005260406000206000915054906101000a900473ffffffffffffffffffffffffffffffffffffffff1681565b60056020528260005260406000206020528160005260406000208181548110610ae257600080fd5b90600052602060002090600302016000925092505050806000018054610b0790611bad565b80601f0160208091040260200160405190810160405280929190818152602001828054610b3390611bad565b8015610b805780601f10610b5557610100808354040283529160200191610b80565b820191906000526020600020905b815481529060010190602001808311610b6357829003601f168201915b505050505090806001018054610b9590611bad565b80601f0160208091040260200160405190810160405280929190818152602001828054610bc190611bad565b8015610c0e5780601f10610be357610100808354040283529160200191610c0e565b820191906000526020600020905b815481529060010190602001808311610bf157829003601f168201915b5050505050908060020154905083565b60026020528160005260406000208181548110610c3a57600080fd5b906000526020600020906005020160009150915050806000018054610c5e90611bad565b80601f0160208091040260200160405190810160405280929190818152602001828054610c8a90611bad565b8015610cd75780601f10610cac57610100808354040283529160200191610cd7565b820191906000526020600020905b815481529060010190602001808311610cba57829003601f168201915b505050505090806001015490806002018054610cf290611bad565b80601f0160208091040260200160405190810160405280929190818152602001828054610d1e90611bad565b8015610d6b5780601f10610d4057610100808354040283529160200191610d6b565b820191906000526020600020905b815481529060010190602001808311610d4e57829003601f168201915b505050505090806003018054610d8090611bad565b80601f0160208091040260200160405190810160405280929190818152602001828054610dac90611bad565b8015610df95780601f10610dce57610100808354040283529160200191610df9565b820191906000526020600020905b815481529060010190602001808311610ddc57829003601f168201915b5050505050908060040154905085565b6000604051806060016040528087878080601f016020809104026020016040519081016040528093929190818152602001838380828437600081840152601f19601f82011690508083019250505050505050815260200185858080601f016020809104026020016040519081016040528093929190818152602001838380828437600081840152601f19601f820116905080830192505050505050508152602001838152509050600560003373ffffffffffffffffffffffffffffffffffffffff1673ffffffffffffffffffffffffffffffffffffffff16815260200190815260200160002060008881526020019081526020016000208190806001815401808255809150506001900390600052602060002090600302016000909190919091506000820151816000019081610f3f9190611d80565b506020820151816001019081610f559190611d80565b5060408201518160020155505050505050505050565b6000806003600087815260200190815260200160002060009054906101000a900473ffffffffffffffffffffffffffffffffffffffff16905060006004600088815260200190815260200160002060009054906101000a900473ffffffffffffffffffffffffffffffffffffffff169050600080600090505b600260008473ffffffffffffffffffffffffffffffffffffffff1673ffffffffffffffffffffffffffffffffffffffff1681526020019081526020016000208054905081101561110a578a600260008573ffffffffffffffffffffffffffffffffffffffff1673ffffffffffffffffffffffffffffffffffffffff16815260200190815260200160002082815481106110805761107f611e52565b5b906000526020600020906005020160010154036110fd57600260008473ffffffffffffffffffffffffffffffffffffffff1673ffffffffffffffffffffffffffffffffffffffff16815260200190815260200160002081815481106110e8576110e7611e52565b5b90600052602060002090600502016004015491505b8080600101915050610fe4565b508273ffffffffffffffffffffffffffffffffffffffff1663a487a8e98b838c8b8b8b6040518763ffffffff1660e01b815260040161114e96959493929190612027565b602060405180830381865afa15801561116b573d6000803e3d6000fd5b505050506040513d601f19601f8201168201806040525081019061118f91906120b6565b93505050509695505050505050565b601434146111e1576040517f08c379a00000000000000000000000000000000000000000000000000000000081526004016111d890612155565b60405180910390fd5b6000600160003373ffffffffffffffffffffffffffffffffffffffff1673ffffffffffffffffffffffffffffffffffffffff168152602001908152602001600020600101549050600081600160003373ffffffffffffffffffffffffffffffffffffffff1673ffffffffffffffffffffffffffffffffffffffff1681526020019081526020016000206002015460405161127a906113bb565b611285929190611ee4565b604051809103906000f0801580156112a1573d6000803e3d6000fd5b509050806003600084815260200190815260200160002060006101000a81548173ffffffffffffffffffffffffffffffffffffffff021916908373ffffffffffffffffffffffffffffffffffffffff16021790555060018060003373ffffffffffffffffffffffffffffffffffffffff1673ffffffffffffffffffffffffffffffffffffffff16815260200190815260200160002060030160006101000a81548160ff02191690831515021790555060008054906101000a900473ffffffffffffffffffffffffffffffffffffffff1673ffffffffffffffffffffffffffffffffffffffff166108fc349081150290604051600060405180830381858888f193505050501580156113b6573d6000803e3d6000fd5b505050565b6111cf8061217683390190565b600080fd5b600080fd5b6000819050919050565b6113e5816113d2565b81146113f057600080fd5b50565b600081359050611402816113dc565b92915050565b60006020828403121561141e5761141d6113c8565b5b600061142c848285016113f3565b91505092915050565b600073ffffffffffffffffffffffffffffffffffffffff82169050919050565b6000819050919050565b600061147a61147561147084611435565b611455565b611435565b9050919050565b600061148c8261145f565b9050919050565b600061149e82611481565b9050919050565b6114ae81611493565b82525050565b60006020820190506114c960008301846114a5565b92915050565b600080fd5b600080fd5b600080fd5b60008083601f8401126114f4576114f36114cf565b5b8235905067ffffffffffffffff811115611511576115106114d4565b5b60208301915083600182028301111561152d5761152c6114d9565b5b9250929050565b60008060008060008060008060a0898b031215611554576115536113c8565b5b600089013567ffffffffffffffff811115611572576115716113cd565b5b61157e8b828c016114de565b985098505060206115918b828c016113f3565b965050604089013567ffffffffffffffff8111156115b2576115b16113cd565b5b6115be8b828c016114de565b9550955050606089013567ffffffffffffffff8111156115e1576115e06113cd565b5b6115ed8b828c016114de565b935093505060806116008b828c016113f3565b9150509295985092959890939650565b60008060408385031215611627576116266113c8565b5b6000611635858286016113f3565b9250506020611646858286016113f3565b9150509250929050565b611659816113d2565b82525050565b60006020820190506116746000830184611650565b92915050565b60008115159050919050565b61168f8161167a565b82525050565b60006020820190506116aa6000830184611686565b92915050565b600080600080606085870312156116ca576116c96113c8565b5b600085013567ffffffffffffffff8111156116e8576116e76113cd565b5b6116f4878288016114de565b94509450506020611707878288016113f3565b9250506040611718878288016113f3565b91505092959194509250565b600061172f82611435565b9050919050565b61173f81611724565b811461174a57600080fd5b50565b60008135905061175c81611736565b92915050565b600060208284031215611778576117776113c8565b5b60006117868482850161174d565b91505092915050565b600081519050919050565b600082825260208201905092915050565b60005b838110156117c95780820151818401526020810190506117ae565b60008484015250505050565b6000601f19601f8301169050919050565b60006117f18261178f565b6117fb818561179a565b935061180b8185602086016117ab565b611814816117d5565b840191505092915050565b6000608082019050818103600083015261183981876117e6565b90506118486020830186611650565b6118556040830185611650565b6118626060830184611686565b95945050505050565b61187481611724565b82525050565b600060208201905061188f600083018461186b565b92915050565b6000806000606084860312156118ae576118ad6113c8565b5b60006118bc8682870161174d565b93505060206118cd868287016113f3565b92505060406118de868287016113f3565b9150509250925092565b6000606082019050818103600083015261190281866117e6565b9050818103602083015261191681856117e6565b90506119256040830184611650565b949350505050565b60008060408385031215611944576119436113c8565b5b60006119528582860161174d565b9250506020611963858286016113f3565b9150509250929050565b600060a082019050818103600083015261198781886117e6565b90506119966020830187611650565b81810360408301526119a881866117e6565b905081810360608301526119bc81856117e6565b90506119cb6080830184611650565b9695505050505050565b600080600080600080608087890312156119f2576119f16113c8565b5b6000611a0089828a016113f3565b965050602087013567ffffffffffffffff811115611a2157611a206113cd565b5b611a2d89828a016114de565b9550955050604087013567ffffffffffffffff811115611a5057611a4f6113cd565b5b611a5c89828a016114de565b93509350506060611a6f89828a016113f3565b9150509295509295509295565b600081905082602060020282011115611a9857611a976114d9565b5b92915050565b600081905082604060020282011115611aba57611ab96114d9565b5b92915050565b6000806000806000806101608789031215611ade57611add6113c8565b5b6000611aec89828a016113f3565b9650506020611afd89828a016113f3565b9550506040611b0e89828a016113f3565b9450506060611b1f89828a01611a7c565b93505060a0611b3089828a01611a9e565b925050610120611b4289828a01611a7c565b9150509295509295509295565b7f4e487b7100000000000000000000000000000000000000000000000000000000600052604160045260246000fd5b7f4e487b7100000000000000000000000000000000000000000000000000000000600052602260045260246000fd5b60006002820490506001821680611bc557607f821691505b602082108103611bd857611bd7611b7e565b5b50919050565b60008190508160005260206000209050919050565b60006020601f8301049050919050565b600082821b905092915050565b600060088302611c407fffffffffffffffffffffffffffffffffffffffffffffffffffffffffffffffff82611c03565b611c4a8683611c03565b95508019841693508086168417925050509392505050565b6000611c7d611c78611c73846113d2565b611455565b6113d2565b9050919050565b6000819050919050565b611c9783611c62565b611cab611ca382611c84565b848454611c10565b825550505050565b600090565b611cc0611cb3565b611ccb818484611c8e565b505050565b5b81811015611cef57611ce4600082611cb8565b600181019050611cd1565b5050565b601f821115611d3457611d0581611bde565b611d0e84611bf3565b81016020851015611d1d578190505b611d31611d2985611bf3565b830182611cd0565b50505b505050565b600082821c905092915050565b6000611d5760001984600802611d39565b1980831691505092915050565b6000611d708383611d46565b9150826002028217905092915050565b611d898261178f565b67ffffffffffffffff811115611da257611da1611b4f565b5b611dac8254611bad565b611db7828285611cf3565b600060209050601f831160018114611dea5760008415611dd8578287015190505b611de28582611d64565b865550611e4a565b601f198416611df886611bde565b60005b82811015611e2057848901518255600182019150602085019450602081019050611dfb565b86831015611e3d5784890151611e39601f891682611d46565b8355505b6001600288020188555050505b505050505050565b7f4e487b7100000000000000000000000000000000000000000000000000000000600052603260045260246000fd5b7f4e487b7100000000000000000000000000000000000000000000000000000000600052601160045260246000fd5b6000611ebb826113d2565b9150611ec6836113d2565b9250828201905080821115611ede57611edd611e81565b5b92915050565b6000604082019050611ef96000830185611650565b611f066020830184611650565b9392505050565b600081519050611f1c816113dc565b92915050565b600060208284031215611f3857611f376113c8565b5b6000611f4684828501611f0d565b91505092915050565b82818337505050565b611f6460408383611f4f565b5050565b600060029050919050565b600081905092915050565b6000819050919050565b611f9460408383611f4f565b5050565b6000611fa48383611f88565b60408301905092915050565b600082905092915050565b6000604082019050919050565b611fd181611f68565b611fdb8184611f73565b9250611fe682611f7e565b8060005b8381101561201f57611ffc8284611fb0565b6120068782611f98565b965061201183611fbb565b925050600181019050611fea565b505050505050565b60006101608201905061203d6000830189611650565b61204a6020830188611650565b6120576040830187611650565b6120646060830186611f58565b61207160a0830185611fc8565b61207f610120830184611f58565b979650505050505050565b6120938161167a565b811461209e57600080fd5b50565b6000815190506120b08161208a565b92915050565b6000602082840312156120cc576120cb6113c8565b5b60006120da848285016120a1565b91505092915050565b7f456c2070726563696f20706172612067656e6572617220756e61205a4b50206560008201527f7320646520323020455448000000000000000000000000000000000000000000602082015250565b600061213f602b8361179a565b915061214a826120e3565b604082019050919050565b6000602082019050818103600083015261216e81612132565b905091905056fe608060405234801561001057600080fd5b506040516111cf3803806111cf83398181016040528101906100329190610139565b816000819055508060018190555060405161004c906100f1565b604051809103906000f080158015610068573d6000803e3d6000fd5b50600460006101000a81548173ffffffffffffffffffffffffffffffffffffffff021916908373ffffffffffffffffffffffffffffffffffffffff16021790555033600360006101000a81548173ffffffffffffffffffffffffffffffffffffffff021916908373ffffffffffffffffffffffffffffffffffffffff1602179055505050610179565b61073780610a9883390190565b600080fd5b6000819050919050565b61011681610103565b811461012157600080fd5b50565b6000815190506101338161010d565b92915050565b600080604083850312156101505761014f6100fe565b5b600061015e85828601610124565b925050602061016f85828601610124565b9150509250929050565b610910806101886000396000f3fe60806040526004361061003f5760003560e01c80635eb86fca14610044578063960d212f14610081578063a487a8e9146100ac578063d19e6ebb146100e9575b600080fd5b34801561005057600080fd5b5061006b600480360381019061006691906103ca565b610105565b6040516100789190610419565b60405180910390f35b34801561008d57600080fd5b50610096610119565b6040516100a39190610419565b60405180910390f35b3480156100b857600080fd5b506100d360048036038101906100ce919061047d565b610123565b6040516100e09190610527565b60405180910390f35b61010360048036038101906100fe9190610542565b610229565b005b600061011183836102df565b905092915050565b6000600154905090565b600080879050600086905060006101476000548b610141919061059e565b8a6102df565b9050600460009054906101000a900473ffffffffffffffffffffffffffffffffffffffff1673ffffffffffffffffffffffffffffffffffffffff16635fe8c13b88888860405180608001604052808781526020016000548a6101a9919061059e565b81526020018881526020016001548152506040518563ffffffff1660e01b81526004016101d99493929190610755565b602060405180830381865afa1580156101f6573d6000803e3d6000fd5b505050506040513d601f19601f8201168201806040525081019061021a91906107c8565b93505050509695505050505050565b600a341461026c576040517f08c379a000000000000000000000000000000000000000000000000000000000815260040161026390610878565b60405180910390fd5b80600181905550600360009054906101000a900473ffffffffffffffffffffffffffffffffffffffff1673ffffffffffffffffffffffffffffffffffffffff166108fc349081150290604051600060405180830381858888f193505050501580156102db573d6000803e3d6000fd5b5050565b6000808390506000839050600060015490506003836102fe919061059e565b60038085848661030e919061059e565b6103189190610898565b610322919061059e565b61032c9190610898565b828486610339919061059e565b610343919061059e565b6003868587610352919061059e565b61035c9190610898565b610366919061059e565b610370919061059e565b61037a919061059e565b6103849190610898565b935050505092915050565b600080fd5b6000819050919050565b6103a781610394565b81146103b257600080fd5b50565b6000813590506103c48161039e565b92915050565b600080604083850312156103e1576103e061038f565b5b60006103ef858286016103b5565b9250506020610400858286016103b5565b9150509250929050565b61041381610394565b82525050565b600060208201905061042e600083018461040a565b92915050565b600080fd5b60008190508260206002028201111561045557610454610434565b5b92915050565b60008190508260406002028201111561047757610476610434565b5b92915050565b600080600080600080610160878903121561049b5761049a61038f565b5b60006104a989828a016103b5565b96505060206104ba89828a016103b5565b95505060406104cb89828a016103b5565b94505060606104dc89828a01610439565b93505060a06104ed89828a0161045b565b9250506101206104ff89828a01610439565b9150509295509295509295565b60008115159050919050565b6105218161050c565b82525050565b600060208201905061053c6000830184610518565b92915050565b6000602082840312156105585761055761038f565b5b6000610566848285016103b5565b91505092915050565b7f4e487b7100000000000000000000000000000000000000000000000000000000600052601160045260246000fd5b60006105a982610394565b91506105b483610394565b92508282019050808211156105cc576105cb61056f565b5b92915050565b82818337505050565b6105e7604083836105d2565b5050565b600060029050919050565b600081905092915050565b6000819050919050565b610617604083836105d2565b5050565b6000610627838361060b565b60408301905092915050565b600082905092915050565b6000604082019050919050565b610654816105eb565b61065e81846105f6565b925061066982610601565b8060005b838110156106a25761067f8284610633565b610689878261061b565b96506106948361063e565b92505060018101905061066d565b505050505050565b600060049050919050565b600081905092915050565b6000819050919050565b6106d381610394565b82525050565b60006106e583836106ca565b60208301905092915050565b6000602082019050919050565b610707816106aa565b61071181846106b5565b925061071c826106c0565b8060005b8381101561074d57815161073487826106d9565b965061073f836106f1565b925050600181019050610720565b505050505050565b60006101808201905061076b60008301876105db565b610778604083018661064b565b61078560c08301856105db565b6107936101008301846106fe565b95945050505050565b6107a58161050c565b81146107b057600080fd5b50565b6000815190506107c28161079c565b92915050565b6000602082840312156107de576107dd61038f565b5b60006107ec848285016107b3565b91505092915050565b600082825260208201905092915050565b7f456c2076616c6f722064652065737461206f7065726163696f6e20657320646560008201527f2031302045544800000000000000000000000000000000000000000000000000602082015250565b60006108626027836107f5565b915061086d82610806565b604082019050919050565b6000602082019050818103600083015261089181610855565b9050919050565b60006108a382610394565b91506108ae83610394565b92508282026108bc81610394565b915082820484148315176108d3576108d261056f565b5b509291505056fea2646970667358221220035a30e07c6dfe7e41a090d9324895a41df8605979beccb71961965f0ea9352364736f6c634300081a00336080604052348015600f57600080fd5b506107188061001f6000396000f3fe608060405234801561001057600080fd5b506004361061002b5760003560e01c80635fe8c13b14610030575b600080fd5b61004a60048036038101906100459190610643565b610060565b60405161005791906106c7565b60405180910390f35b600061057d565b7f30644e72e131a029b85045b68181585d2833e84879b9709143e1f593f00000018110610098576000805260206000f35b50565b600060405183815284602082015285604082015260408160608360076107d05a03fa9150816100ce576000805260206000f35b825160408201526020830151606082015260408360808360066107d05a03fa9150816100fe576000805260206000f35b505050505050565b600060808601600087017f1e87f974a86385ae5e6bcc63d046b45a70fcb38d83376d91821ef7e843a1bfc981527f0ea0f7c760484aac1ea5440d510ead26b56e311fdbe3d7de27a7c28640034af460208201526101a960008801357f1015c05bcde837b7ee03dfbfda7f6ee01dc0bbc2c08e55e5bfa648107218db5a7f2fdbe1ded26d3c8c5ec574c16c23d733c71b335314c7e815102280e36d77cc1f8461009b565b6101f960208801357f06189da5e3dcd5bd7364421927f56f39a02f6a1d0f738d12469e9a41d01ad2df7f128623aace631da559193ca07b3ef9da3ba20c45bac014190c69bd0a7475188b8461009b565b61024960408801357f2027ae03285c04e3e90e8184ea7dfb6387b39d793a8802c5b18432fd4e5472197f08258e6629376bca43b68e380bc96e627f88ca075edea2f3d73a6c00f21b41ae8461009b565b61029960608801357f28e23a33e865ae86ad208505b01934dc61efb9c58c752a998a716ef4474f4a587f2596d004e2c407270a3333a5386f1f46815faf818e5501d7f54b40267eb28a778461009b565b833582527f30644e72e131a029b85045b68181585d97816a916871ca8d3c208c16d87cfd4760208501357f30644e72e131a029b85045b68181585d97816a916871ca8d3c208c16d87cfd4703066020830152843560408301526020850135606083015260408501356080830152606085013560a08301527f114de35dc50cad62b29ea026cf28abd7008232018811f42894e92998dd36777660c08301527f0ec033a1ff45ca1c28a4d33a5bf6f60f94bbfaffd975a34074e63391ca69a6a960e08301527f0593146809489a45018ef8127007ad7609c93d3cbf63315338a00d4bce4a02026101008301527f29448b3b3f655d1bbd420fb784728db4dd86de21a58b2c6f153a7bfa248ab0a96101208301527f29aafae57422ea7cea6ddee2fd47fada99b2c496dd4faac47b08b5070626f1526101408301527f148f50df3bcbd9a41c5bb0a689bc6d870a11cee138619304b0e929ab28945bf4610160830152600088015161018083015260206000018801516101a08301527f198e9393920d483a7260bfb731fb5d25f1aa493335a9e71297e485b7aef312c26101c08301527f1800deef121f1e76426a00665e5c4479674322d4f75edadd46debd5cd992f6ed6101e08301527f090689d0585ff075ec9e99ad690c3395bc4b313370b38ef355acdadcd122975b6102008301527f12c85ea5db8c6deb4aab71808dcb408fe3d1e7690c43d37b4ce6cc0166fa7daa610220830152853561024083015260208601356102608301527f1fecf97d6fcd52d5a57d65d0af27cead56954a56be1facb0a85d21126593fecd6102808301527f11a15c808d51bbce83817023228846e7dbad533c53c2f981d09887c6b2541da66102a08301527f2e69ede1dcec1a55605f693a13908aed53445da2449ebfd1e78e56a24c932ff16102c08301527f276c9b7fed4802cea174217ccf7140225afff687b1e8fbbab2395b8c3499c1e86102e08301526020826103008460086107d05a03fa82518116935050505095945050505050565b60405161038081016040526105956000840135610067565b6105a26020840135610067565b6105af6040840135610067565b6105bc6060840135610067565b6105c9818486888a610106565b8060005260206000f35b600080fd5b600080fd5b6000819050826020600202820111156105f9576105f86105d8565b5b92915050565b60008190508260406002028201111561061b5761061a6105d8565b5b92915050565b60008190508260206004028201111561063d5761063c6105d8565b5b92915050565b600080600080610180858703121561065e5761065d6105d3565b5b600061066c878288016105dd565b945050604061067d878288016105ff565b93505060c061068e878288016105dd565b9250506101006106a087828801610621565b91505092959194509250565b60008115159050919050565b6106c1816106ac565b82525050565b60006020820190506106dc60008301846106b8565b9291505056fea2646970667358221220a45f5f96b0f462323288ecaa03898ff6c525304ef08d51f7b53e538382cb53e264736f6c634300081a0033a2646970667358221220243dd8d4ae7718eae42cc0c93896661e5db3b7f6d00d29d9f70015bee8ba7f5864736f6c634300081a0033",
  "linkReferences": {},
  "deployedLinkReferences": {}
}