{
  "_format": "hh-sol-artifact-1",
  "contractName": "Verificacion",
  "sourceName": "contracts/Verificacion.sol",
  "abi": [
    {
      "inputs": [
        {
          "internalType": "uint256",
          "name": "_nitBanco",
          "type": "uint256"
        },
        {
          "internalType": "uint256",
          "name": "_claveBanco",
          "type": "uint256"
        }
      ],
      "stateMutability": "nonpayable",
      "type": "constructor"
    },
    {
      "inputs": [
        {
          "internalType": "uint256",
          "name": "nuevaClave",
          "type": "uint256"
        }
      ],
      "name": "actualizar_clave",
      "outputs": [],
      "stateMutability": "payable",
      "type": "function"
    },
    {
      "inputs": [
        {
          "internalType": "uint256",
          "name": "_a",
          "type": "uint256"
        },
        {
          "internalType": "uint256",
          "name": "_b",
          "type": "uint256"
        }
      ],
      "name": "dar_clave_secreta",
      "outputs": [
        {
          "internalType": "uint256",
          "name": "clave_secreta",
          "type": "uint256"
        }
      ],
      "stateMutability": "view",
      "type": "function"
    },
    {
      "inputs": [
        {
          "internalType": "uint256",
          "name": "_cedula",
          "type": "uint256"
        },
        {
          "internalType": "uint256",
          "name": "_claveReal",
          "type": "uint256"
        },
        {
          "internalType": "uint256",
          "name": "_claveIngresada",
          "type": "uint256"
        }
      ],
      "name": "verificar_zkp",
      "outputs": [
        {
          "internalType": "bool",
          "name": "resultado",
          "type": "bool"
        }
      ],
      "stateMutability": "view",
      "type": "function"
    }
  ],
  "bytecode": "0x608060405260405180604001604052807f1a2a3b6e2ba804a4d3466a5b9047b672da212172728e6fb903dda6771b25cbbc81526020017f108686857389327fd6b1872c112f3ff8daed6127eeba8d55103d6ebeab4db1e2815250600390600261006992919061028b565b50604051806040016040528060405180604001604052807f2e94b1fb1aafb2b2e7fb6776f3e50de2da86f19c844579629204c26d00d1a0f581526020017f2b4fe218a04bfafe9bc14f105fb31f59598664cf1bd25fd354697bfa6289bbf5815250815260200160405180604001604052807f2b23949fada2b6a6f499115a8ac5f1c3d455186df0f1353b7663c706627ae25d81526020017f076a8ba7e1c7d4551921f900598c7c57af8fef79fdc792f0ca4e9e2f3bdd4fd281525081525060059060026101379291906102cb565b5060405180604001604052807f2198f7f4ed785cf8a50a92310bc21b64e0b7acd3175cdd3dd8742110323c0ed581526020017f05227cbeb1683d376aa494f4f7584aa1b3756c5a5f7766c78fb8f0ecc0705636815250600990600261019d92919061028b565b503480156101aa57600080fd5b5060405161148438038061148483398181016040528101906101cc91906103b2565b81600081905550806001819055506040516101e69061031b565b604051809103906000f080158015610202573d6000803e3d6000fd5b50600c60006101000a81548173ffffffffffffffffffffffffffffffffffffffff021916908373ffffffffffffffffffffffffffffffffffffffff16021790555033600b60006101000a81548173ffffffffffffffffffffffffffffffffffffffff021916908373ffffffffffffffffffffffffffffffffffffffff16021790555050506103f2565b82600281019282156102ba579160200282015b828111156102b957825182559160200191906001019061029e565b5b5090506102c79190610328565b5090565b8260028002810192821561030a579160200282015b82811115610309578251829060026102f992919061028b565b50916020019190600201906102e0565b5b5090506103179190610345565b5090565b61073780610d4d83390190565b5b80821115610341576000816000905550600101610329565b5090565b5b80821115610365576000818161035c9190610369565b50600201610346565b5090565b506000815560010160009055565b600080fd5b6000819050919050565b61038f8161037c565b811461039a57600080fd5b50565b6000815190506103ac81610386565b92915050565b600080604083850312156103c9576103c8610377565b5b60006103d78582860161039d565b92505060206103e88582860161039d565b9150509250929050565b61094c806104016000396000f3fe6080604052600436106100345760003560e01c80635eb86fca14610039578063c880dc5714610076578063d19e6ebb146100b3575b600080fd5b34801561004557600080fd5b50610060600480360381019061005b9190610390565b6100cf565b60405161006d91906103df565b60405180910390f35b34801561008257600080fd5b5061009d600480360381019061009891906103fa565b6100e3565b6040516100aa9190610468565b60405180910390f35b6100cd60048036038101906100c89190610483565b6101ef565b005b60006100db83836102a5565b905092915050565b60008084905060008490506000849050600061010c6000548561010691906104df565b846102a5565b9050600c60009054906101000a900473ffffffffffffffffffffffffffffffffffffffff1673ffffffffffffffffffffffffffffffffffffffff16635fe8c13b60036005600960405180608001604052808781526020016000548b61017191906104df565b81526020018881526020016001548152506040518563ffffffff1660e01b81526004016101a19493929190610791565b602060405180830381865afa1580156101be573d6000803e3d6000fd5b505050506040513d601f19601f820116820180604052508101906101e29190610804565b9450505050509392505050565b600a3414610232576040517f08c379a0000000000000000000000000000000000000000000000000000000008152600401610229906108b4565b60405180910390fd5b80600181905550600b60009054906101000a900473ffffffffffffffffffffffffffffffffffffffff1673ffffffffffffffffffffffffffffffffffffffff166108fc349081150290604051600060405180830381858888f193505050501580156102a1573d6000803e3d6000fd5b5050565b6000808390506000839050600060015490506003836102c491906104df565b6003808584866102d491906104df565b6102de91906108d4565b6102e891906104df565b6102f291906108d4565b8284866102ff91906104df565b61030991906104df565b600386858761031891906104df565b61032291906108d4565b61032c91906104df565b61033691906104df565b61034091906104df565b61034a91906108d4565b935050505092915050565b600080fd5b6000819050919050565b61036d8161035a565b811461037857600080fd5b50565b60008135905061038a81610364565b92915050565b600080604083850312156103a7576103a6610355565b5b60006103b58582860161037b565b92505060206103c68582860161037b565b9150509250929050565b6103d98161035a565b82525050565b60006020820190506103f460008301846103d0565b92915050565b60008060006060848603121561041357610412610355565b5b60006104218682870161037b565b93505060206104328682870161037b565b92505060406104438682870161037b565b9150509250925092565b60008115159050919050565b6104628161044d565b82525050565b600060208201905061047d6000830184610459565b92915050565b60006020828403121561049957610498610355565b5b60006104a78482850161037b565b91505092915050565b7f4e487b7100000000000000000000000000000000000000000000000000000000600052601160045260246000fd5b60006104ea8261035a565b91506104f58361035a565b925082820190508082111561050d5761050c6104b0565b5b92915050565b600060029050919050565b600081905092915050565b6000819050919050565b61053c8161035a565b82525050565b600061054e8383610533565b60208301905092915050565b60008160001c9050919050565b6000819050919050565b600061058461057f8361055a565b610567565b9050919050565b60006105978254610571565b9050919050565b6000600182019050919050565b6105b481610513565b6105be818461051e565b92506105c982610529565b8060005b83811015610601576105de8261058b565b6105e88782610542565b96506105f38361059e565b9250506001810190506105cd565b505050505050565b600060029050919050565b600081905092915050565b6000819050919050565b600081905092915050565b61063d81610513565b6106478184610629565b925061065282610529565b8060005b8381101561068a576106678261058b565b6106718782610542565b965061067c8361059e565b925050600181019050610656565b505050505050565b600061069e8383610634565b60408301905092915050565b6000600282019050919050565b6106c081610609565b6106ca8184610614565b92506106d58261061f565b8060005b8381101561070557816106ec8782610692565b96506106f7836106aa565b9250506001810190506106d9565b505050505050565b600060049050919050565b600081905092915050565b6000819050919050565b6000602082019050919050565b6107438161070d565b61074d8184610718565b925061075882610723565b8060005b838110156107895781516107708782610542565b965061077b8361072d565b92505060018101905061075c565b505050505050565b6000610180820190506107a760008301876105ab565b6107b460408301866106b7565b6107c160c08301856105ab565b6107cf61010083018461073a565b95945050505050565b6107e18161044d565b81146107ec57600080fd5b50565b6000815190506107fe816107d8565b92915050565b60006020828403121561081a57610819610355565b5b6000610828848285016107ef565b91505092915050565b600082825260208201905092915050565b7f456c2076616c6f722064652065737461206f7065726163696f6e20657320646560008201527f2031302045544800000000000000000000000000000000000000000000000000602082015250565b600061089e602783610831565b91506108a982610842565b604082019050919050565b600060208201905081810360008301526108cd81610891565b9050919050565b60006108df8261035a565b91506108ea8361035a565b92508282026108f88161035a565b9150828204841483151761090f5761090e6104b0565b5b509291505056fea26469706673582212207db2545d27c4ca83a39bc94caae6a99be87afc7d5b59a4eaf76da45d4d72c60f64736f6c634300081a00336080604052348015600f57600080fd5b506107188061001f6000396000f3fe608060405234801561001057600080fd5b506004361061002b5760003560e01c80635fe8c13b14610030575b600080fd5b61004a60048036038101906100459190610643565b610060565b60405161005791906106c7565b60405180910390f35b600061057d565b7f30644e72e131a029b85045b68181585d2833e84879b9709143e1f593f00000018110610098576000805260206000f35b50565b600060405183815284602082015285604082015260408160608360076107d05a03fa9150816100ce576000805260206000f35b825160408201526020830151606082015260408360808360066107d05a03fa9150816100fe576000805260206000f35b505050505050565b600060808601600087017f1e87f974a86385ae5e6bcc63d046b45a70fcb38d83376d91821ef7e843a1bfc981527f0ea0f7c760484aac1ea5440d510ead26b56e311fdbe3d7de27a7c28640034af460208201526101a960008801357f1015c05bcde837b7ee03dfbfda7f6ee01dc0bbc2c08e55e5bfa648107218db5a7f2fdbe1ded26d3c8c5ec574c16c23d733c71b335314c7e815102280e36d77cc1f8461009b565b6101f960208801357f06189da5e3dcd5bd7364421927f56f39a02f6a1d0f738d12469e9a41d01ad2df7f128623aace631da559193ca07b3ef9da3ba20c45bac014190c69bd0a7475188b8461009b565b61024960408801357f2027ae03285c04e3e90e8184ea7dfb6387b39d793a8802c5b18432fd4e5472197f08258e6629376bca43b68e380bc96e627f88ca075edea2f3d73a6c00f21b41ae8461009b565b61029960608801357f28e23a33e865ae86ad208505b01934dc61efb9c58c752a998a716ef4474f4a587f2596d004e2c407270a3333a5386f1f46815faf818e5501d7f54b40267eb28a778461009b565b833582527f30644e72e131a029b85045b68181585d97816a916871ca8d3c208c16d87cfd4760208501357f30644e72e131a029b85045b68181585d97816a916871ca8d3c208c16d87cfd4703066020830152843560408301526020850135606083015260408501356080830152606085013560a08301527f114de35dc50cad62b29ea026cf28abd7008232018811f42894e92998dd36777660c08301527f0ec033a1ff45ca1c28a4d33a5bf6f60f94bbfaffd975a34074e63391ca69a6a960e08301527f0593146809489a45018ef8127007ad7609c93d3cbf63315338a00d4bce4a02026101008301527f29448b3b3f655d1bbd420fb784728db4dd86de21a58b2c6f153a7bfa248ab0a96101208301527f29aafae57422ea7cea6ddee2fd47fada99b2c496dd4faac47b08b5070626f1526101408301527f148f50df3bcbd9a41c5bb0a689bc6d870a11cee138619304b0e929ab28945bf4610160830152600088015161018083015260206000018801516101a08301527f198e9393920d483a7260bfb731fb5d25f1aa493335a9e71297e485b7aef312c26101c08301527f1800deef121f1e76426a00665e5c4479674322d4f75edadd46debd5cd992f6ed6101e08301527f090689d0585ff075ec9e99ad690c3395bc4b313370b38ef355acdadcd122975b6102008301527f12c85ea5db8c6deb4aab71808dcb408fe3d1e7690c43d37b4ce6cc0166fa7daa610220830152853561024083015260208601356102608301527f1fecf97d6fcd52d5a57d65d0af27cead56954a56be1facb0a85d21126593fecd6102808301527f11a15c808d51bbce83817023228846e7dbad533c53c2f981d09887c6b2541da66102a08301527f2e69ede1dcec1a55605f693a13908aed53445da2449ebfd1e78e56a24c932ff16102c08301527f276c9b7fed4802cea174217ccf7140225afff687b1e8fbbab2395b8c3499c1e86102e08301526020826103008460086107d05a03fa82518116935050505095945050505050565b60405161038081016040526105956000840135610067565b6105a26020840135610067565b6105af6040840135610067565b6105bc6060840135610067565b6105c9818486888a610106565b8060005260206000f35b600080fd5b600080fd5b6000819050826020600202820111156105f9576105f86105d8565b5b92915050565b60008190508260406002028201111561061b5761061a6105d8565b5b92915050565b60008190508260206004028201111561063d5761063c6105d8565b5b92915050565b600080600080610180858703121561065e5761065d6105d3565b5b600061066c878288016105dd565b945050604061067d878288016105ff565b93505060c061068e878288016105dd565b9250506101006106a087828801610621565b91505092959194509250565b60008115159050919050565b6106c1816106ac565b82525050565b60006020820190506106dc60008301846106b8565b9291505056fea2646970667358221220a45f5f96b0f462323288ecaa03898ff6c525304ef08d51f7b53e538382cb53e264736f6c634300081a0033",
  "linkReferences": {},
  "deployedLinkReferences": {}
}