{
  "_format": "hh-sol-artifact-1",
  "contractName": "Perfil",
  "sourceName": "contracts/Perfil.sol",
  "abi": [
    {
      "inputs": [],
      "stateMutability": "nonpayable",
      "type": "constructor"
    },
    {
      "inputs": [
        {
          "internalType": "uint256",
          "name": "celular",
          "type": "uint256"
        },
        {
          "internalType": "string",
          "name": "email",
          "type": "string"
        }
      ],
      "name": "actualizarInfo",
      "outputs": [],
      "stateMutability": "nonpayable",
      "type": "function"
    },
    {
      "inputs": [],
      "name": "calcular_score",
      "outputs": [],
      "stateMutability": "payable",
      "type": "function"
    },
    {
      "inputs": [],
      "name": "darInfo",
      "outputs": [
        {
          "components": [
            {
              "components": [
                {
                  "internalType": "string",
                  "name": "nombre",
                  "type": "string"
                },
                {
                  "internalType": "uint256",
                  "name": "documento",
                  "type": "uint256"
                },
                {
                  "internalType": "string",
                  "name": "nacimiento",
                  "type": "string"
                },
                {
                  "internalType": "string",
                  "name": "expedicion",
                  "type": "string"
                }
              ],
              "internalType": "struct Perfil.InfoConstante",
              "name": "infoConst",
              "type": "tuple"
            },
            {
              "components": [
                {
                  "internalType": "uint256",
                  "name": "celular",
                  "type": "uint256"
                },
                {
                  "internalType": "string",
                  "name": "email",
                  "type": "string"
                }
              ],
              "internalType": "struct Perfil.InfoVariable",
              "name": "infoVar",
              "type": "tuple"
            },
            {
              "internalType": "uint256",
              "name": "scoreBancario",
              "type": "uint256"
            }
          ],
          "internalType": "struct Perfil.Usuario",
          "name": "infoUsuario",
          "type": "tuple"
        }
      ],
      "stateMutability": "view",
      "type": "function"
    },
    {
      "inputs": [
        {
          "internalType": "address",
          "name": "",
          "type": "address"
        }
      ],
      "name": "perfiles",
      "outputs": [
        {
          "components": [
            {
              "internalType": "string",
              "name": "nombre",
              "type": "string"
            },
            {
              "internalType": "uint256",
              "name": "documento",
              "type": "uint256"
            },
            {
              "internalType": "string",
              "name": "nacimiento",
              "type": "string"
            },
            {
              "internalType": "string",
              "name": "expedicion",
              "type": "string"
            }
          ],
          "internalType": "struct Perfil.InfoConstante",
          "name": "infoConst",
          "type": "tuple"
        },
        {
          "components": [
            {
              "internalType": "uint256",
              "name": "celular",
              "type": "uint256"
            },
            {
              "internalType": "string",
              "name": "email",
              "type": "string"
            }
          ],
          "internalType": "struct Perfil.InfoVariable",
          "name": "infoVar",
          "type": "tuple"
        },
        {
          "internalType": "uint256",
          "name": "scoreBancario",
          "type": "uint256"
        }
      ],
      "stateMutability": "view",
      "type": "function"
    },
    {
      "inputs": [
        {
          "internalType": "address",
          "name": "",
          "type": "address"
        },
        {
          "internalType": "uint256",
          "name": "",
          "type": "uint256"
        }
      ],
      "name": "productos",
      "outputs": [
        {
          "internalType": "string",
          "name": "tipo",
          "type": "string"
        },
        {
          "internalType": "string",
          "name": "entidad",
          "type": "string"
        },
        {
          "internalType": "uint256",
          "name": "saldo",
          "type": "uint256"
        },
        {
          "internalType": "bool",
          "name": "mora",
          "type": "bool"
        }
      ],
      "stateMutability": "view",
      "type": "function"
    },
    {
      "inputs": [
        {
          "internalType": "string",
          "name": "nombre",
          "type": "string"
        },
        {
          "internalType": "uint256",
          "name": "documento",
          "type": "uint256"
        },
        {
          "internalType": "string",
          "name": "nacimiento",
          "type": "string"
        },
        {
          "internalType": "string",
          "name": "expedicion",
          "type": "string"
        },
        {
          "internalType": "uint256",
          "name": "celular",
          "type": "uint256"
        },
        {
          "internalType": "string",
          "name": "email",
          "type": "string"
        }
      ],
      "name": "registro",
      "outputs": [],
      "stateMutability": "nonpayable",
      "type": "function"
    },
    {
      "inputs": [
        {
          "internalType": "address",
          "name": "usuario",
          "type": "address"
        },
        {
          "internalType": "string",
          "name": "entidad",
          "type": "string"
        },
        {
          "internalType": "string",
          "name": "producto",
          "type": "string"
        },
        {
          "internalType": "string",
          "name": "motivo",
          "type": "string"
        },
        {
          "internalType": "bool",
          "name": "negativo",
          "type": "bool"
        }
      ],
      "name": "reportar_usuario",
      "outputs": [],
      "stateMutability": "nonpayable",
      "type": "function"
    },
    {
      "inputs": [
        {
          "internalType": "address",
          "name": "",
          "type": "address"
        },
        {
          "internalType": "uint256",
          "name": "",
          "type": "uint256"
        }
      ],
      "name": "reportes",
      "outputs": [
        {
          "internalType": "uint256",
          "name": "timestamp",
          "type": "uint256"
        },
        {
          "internalType": "string",
          "name": "entidad",
          "type": "string"
        },
        {
          "internalType": "string",
          "name": "producto",
          "type": "string"
        },
        {
          "internalType": "string",
          "name": "motivo",
          "type": "string"
        },
        {
          "internalType": "bool",
          "name": "negativo",
          "type": "bool"
        }
      ],
      "stateMutability": "view",
      "type": "function"
    },
    {
      "inputs": [],
      "name": "usuarioRegistrado",
      "outputs": [
        {
          "internalType": "bool",
          "name": "registrado",
          "type": "bool"
        }
      ],
      "stateMutability": "view",
      "type": "function"
    },
    {
      "inputs": [
        {
          "internalType": "uint256",
          "name": "",
          "type": "uint256"
        }
      ],
      "name": "usuarios",
      "outputs": [
        {
          "internalType": "address",
          "name": "",
          "type": "address"
        }
      ],
      "stateMutability": "view",
      "type": "function"
    }
  ],
  "bytecode": "0x6080604052348015600f57600080fd5b5033600460006101000a81548173ffffffffffffffffffffffffffffffffffffffff021916908373ffffffffffffffffffffffffffffffffffffffff1602179055506121ab806100606000396000f3fe6080604052600436106100915760003560e01c80637b1c0878116100595780637b1c0878146101a65780639b855802146101e7578063a517f2f114610212578063d71657f31461021c578063d910a3321461024557610091565b8063198713cf146100965780632a582142146100d35780632ad1aad714610113578063499e1c471461013e57806356b55ab61461017d575b600080fd5b3480156100a257600080fd5b506100bd60048036038101906100b891906114cc565b61026e565b6040516100ca919061153a565b60405180910390f35b3480156100df57600080fd5b506100fa60048036038101906100f59190611581565b6102ad565b60405161010a949392919061167b565b60405180910390f35b34801561011f57600080fd5b50610128610417565b60405161013591906116ce565b60405180910390f35b34801561014a57600080fd5b50610165600480360381019061016091906116e9565b6104af565b6040516101749392919061181d565b60405180910390f35b34801561018957600080fd5b506101a4600480360381019061019f91906118c7565b610749565b005b3480156101b257600080fd5b506101cd60048036038101906101c89190611581565b61098e565b6040516101de9594939291906119d7565b60405180910390f35b3480156101f357600080fd5b506101fc610b86565b6040516102099190611b44565b60405180910390f35b61021a610e6a565b005b34801561022857600080fd5b50610243600480360381019061023e9190611b92565b611186565b005b34801561025157600080fd5b5061026c60048036038101906102679190611c6e565b61135b565b005b6003818154811061027e57600080fd5b906000526020600020016000915054906101000a900473ffffffffffffffffffffffffffffffffffffffff1681565b600260205281600052604060002081815481106102c957600080fd5b9060005260206000209060040201600091509150508060000180546102ed90611cfd565b80601f016020809104026020016040519081016040528092919081815260200182805461031990611cfd565b80156103665780601f1061033b57610100808354040283529160200191610366565b820191906000526020600020905b81548152906001019060200180831161034957829003601f168201915b50505050509080600101805461037b90611cfd565b80601f01602080910402602001604051908101604052809291908181526020018280546103a790611cfd565b80156103f45780601f106103c9576101008083540402835291602001916103f4565b820191906000526020600020905b8154815290600101906020018083116103d757829003601f168201915b5050505050908060020154908060030160009054906101000a900460ff16905084565b6000805b6003805490508110156104ab573373ffffffffffffffffffffffffffffffffffffffff166003828154811061045357610452611d2e565b5b9060005260206000200160009054906101000a900473ffffffffffffffffffffffffffffffffffffffff1673ffffffffffffffffffffffffffffffffffffffff160361049e57600191505b808060010191505061041b565b5090565b6000602052806000526040600020600091509050806000016040518060800160405290816000820180546104e290611cfd565b80601f016020809104026020016040519081016040528092919081815260200182805461050e90611cfd565b801561055b5780601f106105305761010080835404028352916020019161055b565b820191906000526020600020905b81548152906001019060200180831161053e57829003601f168201915b505050505081526020016001820154815260200160028201805461057e90611cfd565b80601f01602080910402602001604051908101604052809291908181526020018280546105aa90611cfd565b80156105f75780601f106105cc576101008083540402835291602001916105f7565b820191906000526020600020905b8154815290600101906020018083116105da57829003601f168201915b5050505050815260200160038201805461061090611cfd565b80601f016020809104026020016040519081016040528092919081815260200182805461063c90611cfd565b80156106895780601f1061065e57610100808354040283529160200191610689565b820191906000526020600020905b81548152906001019060200180831161066c57829003601f168201915b5050505050815250509080600401604051806040016040529081600082015481526020016001820180546106bc90611cfd565b80601f01602080910402602001604051908101604052809291908181526020018280546106e890611cfd565b80156107355780601f1061070a57610100808354040283529160200191610735565b820191906000526020600020905b81548152906001019060200180831161071857829003601f168201915b505050505081525050908060060154905083565b600060405180608001604052808c8c8080601f016020809104026020016040519081016040528093929190818152602001838380828437600081840152601f19601f8201169050808301925050505050505081526020018a815260200189898080601f016020809104026020016040519081016040528093929190818152602001838380828437600081840152601f19601f82011690508083019250505050505050815260200187878080601f016020809104026020016040519081016040528093929190818152602001838380828437600081840152601f19601f8201169050808301925050505050505081525090506000604051806040016040528086815260200185858080601f016020809104026020016040519081016040528093929190818152602001838380828437600081840152601f19601f820116905080830192505050505050508152509050604051806060016040528083815260200182815260200160008152506000803373ffffffffffffffffffffffffffffffffffffffff1673ffffffffffffffffffffffffffffffffffffffff168152602001908152602001600020600082015181600001600082015181600001908161090f9190611f38565b5060208201518160010155604082015181600201908161092f9190611f38565b5060608201518160030190816109459190611f38565b5050506020820151816004016000820151816000015560208201518160010190816109709190611f38565b50505060408201518160060155905050505050505050505050505050565b600160205281600052604060002081815481106109aa57600080fd5b9060005260206000209060050201600091509150508060000154908060010180546109d490611cfd565b80601f0160208091040260200160405190810160405280929190818152602001828054610a0090611cfd565b8015610a4d5780601f10610a2257610100808354040283529160200191610a4d565b820191906000526020600020905b815481529060010190602001808311610a3057829003601f168201915b505050505090806002018054610a6290611cfd565b80601f0160208091040260200160405190810160405280929190818152602001828054610a8e90611cfd565b8015610adb5780601f10610ab057610100808354040283529160200191610adb565b820191906000526020600020905b815481529060010190602001808311610abe57829003601f168201915b505050505090806003018054610af090611cfd565b80601f0160208091040260200160405190810160405280929190818152602001828054610b1c90611cfd565b8015610b695780601f10610b3e57610100808354040283529160200191610b69565b820191906000526020600020905b815481529060010190602001808311610b4c57829003601f168201915b5050505050908060040160009054906101000a900460ff16905085565b610b8e61141d565b6000803373ffffffffffffffffffffffffffffffffffffffff1673ffffffffffffffffffffffffffffffffffffffff16815260200190815260200160002060405180606001604052908160008201604051806080016040529081600082018054610bf790611cfd565b80601f0160208091040260200160405190810160405280929190818152602001828054610c2390611cfd565b8015610c705780601f10610c4557610100808354040283529160200191610c70565b820191906000526020600020905b815481529060010190602001808311610c5357829003601f168201915b5050505050815260200160018201548152602001600282018054610c9390611cfd565b80601f0160208091040260200160405190810160405280929190818152602001828054610cbf90611cfd565b8015610d0c5780601f10610ce157610100808354040283529160200191610d0c565b820191906000526020600020905b815481529060010190602001808311610cef57829003601f168201915b50505050508152602001600382018054610d2590611cfd565b80601f0160208091040260200160405190810160405280929190818152602001828054610d5190611cfd565b8015610d9e5780601f10610d7357610100808354040283529160200191610d9e565b820191906000526020600020905b815481529060010190602001808311610d8157829003601f168201915b50505050508152505081526020016004820160405180604001604052908160008201548152602001600182018054610dd590611cfd565b80601f0160208091040260200160405190810160405280929190818152602001828054610e0190611cfd565b8015610e4e5780601f10610e2357610100808354040283529160200191610e4e565b820191906000526020600020905b815481529060010190602001808311610e3157829003601f168201915b5050505050815250508152602001600682015481525050905090565b600a3411610ead576040517f08c379a0000000000000000000000000000000000000000000000000000000008152600401610ea49061207c565b60405180910390fd5b6000806000806103e8905060005b600160003373ffffffffffffffffffffffffffffffffffffffff1673ffffffffffffffffffffffffffffffffffffffff16815260200190815260200160002080549050811015610fab57600160003373ffffffffffffffffffffffffffffffffffffffff1673ffffffffffffffffffffffffffffffffffffffff1681526020019081526020016000208181548110610f5657610f55611d2e565b5b906000526020600020906005020160040160009054906101000a900460ff1615610f8e57600185610f8791906120cb565b9450610f9e565b600184610f9b91906120cb565b93505b8080600101915050610ebb565b5060005b600260003373ffffffffffffffffffffffffffffffffffffffff1673ffffffffffffffffffffffffffffffffffffffff1681526020019081526020016000208054905081101561108b57600260003373ffffffffffffffffffffffffffffffffffffffff1673ffffffffffffffffffffffffffffffffffffffff168152602001908152602001600020818154811061104a57611049611d2e565b5b906000526020600020906004020160030160009054906101000a900460ff161561107e5760018361107b91906120cb565b92505b8080600101915050610faf565b5081607861109991906120ff565b8360326110a691906120ff565b8560646110b391906120ff565b836110be9190612141565b6110c891906120cb565b6110d29190612141565b6000803373ffffffffffffffffffffffffffffffffffffffff1673ffffffffffffffffffffffffffffffffffffffff16815260200190815260200160002060060181905550600460009054906101000a900473ffffffffffffffffffffffffffffffffffffffff1673ffffffffffffffffffffffffffffffffffffffff166108fc349081150290604051600060405180830381858888f1935050505015801561117f573d6000803e3d6000fd5b5050505050565b600160008973ffffffffffffffffffffffffffffffffffffffff1673ffffffffffffffffffffffffffffffffffffffff1681526020019081526020016000206040518060a0016040528042815260200189898080601f016020809104026020016040519081016040528093929190818152602001838380828437600081840152601f19601f82011690508083019250505050505050815260200187878080601f016020809104026020016040519081016040528093929190818152602001838380828437600081840152601f19601f82011690508083019250505050505050815260200185858080601f016020809104026020016040519081016040528093929190818152602001838380828437600081840152601f19601f82011690508083019250505050505050815260200183151581525090806001815401808255809150506001900390600052602060002090600502016000909190919091506000820151816000015560208201518160010190816113029190611f38565b5060408201518160020190816113189190611f38565b50606082015181600301908161132e9190611f38565b5060808201518160040160006101000a81548160ff02191690831515021790555050505050505050505050565b604051806040016040528084815260200183838080601f016020809104026020016040519081016040528093929190818152602001838380828437600081840152601f19601f820116905080830192505050505050508152506000803373ffffffffffffffffffffffffffffffffffffffff1673ffffffffffffffffffffffffffffffffffffffff1681526020019081526020016000206004016000820151816000015560208201518160010190816114149190611f38565b50905050505050565b604051806060016040528061143061144a565b815260200161143d611472565b8152602001600081525090565b6040518060800160405280606081526020016000815260200160608152602001606081525090565b604051806040016040528060008152602001606081525090565b600080fd5b600080fd5b6000819050919050565b6114a981611496565b81146114b457600080fd5b50565b6000813590506114c6816114a0565b92915050565b6000602082840312156114e2576114e161148c565b5b60006114f0848285016114b7565b91505092915050565b600073ffffffffffffffffffffffffffffffffffffffff82169050919050565b6000611524826114f9565b9050919050565b61153481611519565b82525050565b600060208201905061154f600083018461152b565b92915050565b61155e81611519565b811461156957600080fd5b50565b60008135905061157b81611555565b92915050565b600080604083850312156115985761159761148c565b5b60006115a68582860161156c565b92505060206115b7858286016114b7565b9150509250929050565b600081519050919050565b600082825260208201905092915050565b60005b838110156115fb5780820151818401526020810190506115e0565b60008484015250505050565b6000601f19601f8301169050919050565b6000611623826115c1565b61162d81856115cc565b935061163d8185602086016115dd565b61164681611607565b840191505092915050565b61165a81611496565b82525050565b60008115159050919050565b61167581611660565b82525050565b600060808201905081810360008301526116958187611618565b905081810360208301526116a98186611618565b90506116b86040830185611651565b6116c5606083018461166c565b95945050505050565b60006020820190506116e3600083018461166c565b92915050565b6000602082840312156116ff576116fe61148c565b5b600061170d8482850161156c565b91505092915050565b600082825260208201905092915050565b6000611732826115c1565b61173c8185611716565b935061174c8185602086016115dd565b61175581611607565b840191505092915050565b61176981611496565b82525050565b6000608083016000830151848203600086015261178c8282611727565b91505060208301516117a16020860182611760565b50604083015184820360408601526117b98282611727565b915050606083015184820360608601526117d38282611727565b9150508091505092915050565b60006040830160008301516117f86000860182611760565b50602083015184820360208601526118108282611727565b9150508091505092915050565b60006060820190508181036000830152611837818661176f565b9050818103602083015261184b81856117e0565b905061185a6040830184611651565b949350505050565b600080fd5b600080fd5b600080fd5b60008083601f84011261188757611886611862565b5b8235905067ffffffffffffffff8111156118a4576118a3611867565b5b6020830191508360018202830111156118c0576118bf61186c565b5b9250929050565b60008060008060008060008060008060c08b8d0312156118ea576118e961148c565b5b60008b013567ffffffffffffffff81111561190857611907611491565b5b6119148d828e01611871565b9a509a505060206119278d828e016114b7565b98505060408b013567ffffffffffffffff81111561194857611947611491565b5b6119548d828e01611871565b975097505060608b013567ffffffffffffffff81111561197757611976611491565b5b6119838d828e01611871565b955095505060806119968d828e016114b7565b93505060a08b013567ffffffffffffffff8111156119b7576119b6611491565b5b6119c38d828e01611871565b92509250509295989b9194979a5092959850565b600060a0820190506119ec6000830188611651565b81810360208301526119fe8187611618565b90508181036040830152611a128186611618565b90508181036060830152611a268185611618565b9050611a35608083018461166c565b9695505050505050565b60006080830160008301518482036000860152611a5c8282611727565b9150506020830151611a716020860182611760565b5060408301518482036040860152611a898282611727565b91505060608301518482036060860152611aa38282611727565b9150508091505092915050565b6000604083016000830151611ac86000860182611760565b5060208301518482036020860152611ae08282611727565b9150508091505092915050565b60006060830160008301518482036000860152611b0a8282611a3f565b91505060208301518482036020860152611b248282611ab0565b9150506040830151611b396040860182611760565b508091505092915050565b60006020820190508181036000830152611b5e8184611aed565b905092915050565b611b6f81611660565b8114611b7a57600080fd5b50565b600081359050611b8c81611b66565b92915050565b60008060008060008060008060a0898b031215611bb257611bb161148c565b5b6000611bc08b828c0161156c565b985050602089013567ffffffffffffffff811115611be157611be0611491565b5b611bed8b828c01611871565b9750975050604089013567ffffffffffffffff811115611c1057611c0f611491565b5b611c1c8b828c01611871565b9550955050606089013567ffffffffffffffff811115611c3f57611c3e611491565b5b611c4b8b828c01611871565b93509350506080611c5e8b828c01611b7d565b9150509295985092959890939650565b600080600060408486031215611c8757611c8661148c565b5b6000611c95868287016114b7565b935050602084013567ffffffffffffffff811115611cb657611cb5611491565b5b611cc286828701611871565b92509250509250925092565b7f4e487b7100000000000000000000000000000000000000000000000000000000600052602260045260246000fd5b60006002820490506001821680611d1557607f821691505b602082108103611d2857611d27611cce565b5b50919050565b7f4e487b7100000000000000000000000000000000000000000000000000000000600052603260045260246000fd5b7f4e487b7100000000000000000000000000000000000000000000000000000000600052604160045260246000fd5b60008190508160005260206000209050919050565b60006020601f8301049050919050565b600082821b905092915050565b600060088302611dee7fffffffffffffffffffffffffffffffffffffffffffffffffffffffffffffffff82611db1565b611df88683611db1565b95508019841693508086168417925050509392505050565b6000819050919050565b6000611e35611e30611e2b84611496565b611e10565b611496565b9050919050565b6000819050919050565b611e4f83611e1a565b611e63611e5b82611e3c565b848454611dbe565b825550505050565b600090565b611e78611e6b565b611e83818484611e46565b505050565b5b81811015611ea757611e9c600082611e70565b600181019050611e89565b5050565b601f821115611eec57611ebd81611d8c565b611ec684611da1565b81016020851015611ed5578190505b611ee9611ee185611da1565b830182611e88565b50505b505050565b600082821c905092915050565b6000611f0f60001984600802611ef1565b1980831691505092915050565b6000611f288383611efe565b9150826002028217905092915050565b611f41826115c1565b67ffffffffffffffff811115611f5a57611f59611d5d565b5b611f648254611cfd565b611f6f828285611eab565b600060209050601f831160018114611fa25760008415611f90578287015190505b611f9a8582611f1c565b865550612002565b601f198416611fb086611d8c565b60005b82811015611fd857848901518255600182019150602085019450602081019050611fb3565b86831015611ff55784890151611ff1601f891682611efe565b8355505b6001600288020188555050505b505050505050565b7f456c2076616c6f722064652065737461206f7065726163696f6e20657320646560008201527f20302c3030303120455448000000000000000000000000000000000000000000602082015250565b6000612066602b836115cc565b91506120718261200a565b604082019050919050565b6000602082019050818103600083015261209581612059565b9050919050565b7f4e487b7100000000000000000000000000000000000000000000000000000000600052601160045260246000fd5b60006120d682611496565b91506120e183611496565b92508282019050808211156120f9576120f861209c565b5b92915050565b600061210a82611496565b915061211583611496565b925082820261212381611496565b9150828204841483151761213a5761213961209c565b5b5092915050565b600061214c82611496565b915061215783611496565b925082820390508181111561216f5761216e61209c565b5b9291505056fea2646970667358221220694206cc2d96751e11e0404e15acbb6921d740627c3475b105f89a61768a6f3864736f6c634300081a0033",
  "linkReferences": {},
  "deployedLinkReferences": {}
}