{
  "_format": "hh-sol-artifact-1",
  "contractName": "Banco",
  "sourceName": "contracts/Banco.sol",
  "abi": [
    {
      "inputs": [],
      "stateMutability": "nonpayable",
      "type": "constructor"
    },
    {
      "inputs": [
        {
          "internalType": "string",
          "name": "_nombre",
          "type": "string"
        },
        {
          "internalType": "uint256",
          "name": "_documento",
          "type": "uint256"
        },
        {
          "internalType": "uint256",
          "name": "_claveIngreso",
          "type": "uint256"
        }
      ],
      "name": "agregar_cliente",
      "outputs": [],
      "stateMutability": "nonpayable",
      "type": "function"
    },
    {
      "inputs": [
        {
          "internalType": "uint256",
          "name": "_cedula",
          "type": "uint256"
        },
        {
          "internalType": "uint256",
          "name": "_numero",
          "type": "uint256"
        },
        {
          "internalType": "string",
          "name": "_tipo",
          "type": "string"
        },
        {
          "internalType": "uint256",
          "name": "_saldo",
          "type": "uint256"
        }
      ],
      "name": "agregar_producto_cliente",
      "outputs": [],
      "stateMutability": "nonpayable",
      "type": "function"
    },
    {
      "inputs": [],
      "name": "bancoRegistrado",
      "outputs": [
        {
          "internalType": "bool",
          "name": "registrado",
          "type": "bool"
        }
      ],
      "stateMutability": "view",
      "type": "function"
    },
    {
      "inputs": [
        {
          "internalType": "address",
          "name": "",
          "type": "address"
        }
      ],
      "name": "bancos",
      "outputs": [
        {
          "internalType": "string",
          "name": "nombre",
          "type": "string"
        },
        {
          "internalType": "uint256",
          "name": "nit",
          "type": "uint256"
        },
        {
          "internalType": "uint256",
          "name": "clave",
          "type": "uint256"
        },
        {
          "internalType": "bool",
          "name": "pruebaGenerada",
          "type": "bool"
        }
      ],
      "stateMutability": "view",
      "type": "function"
    },
    {
      "inputs": [
        {
          "internalType": "address",
          "name": "",
          "type": "address"
        },
        {
          "internalType": "uint256",
          "name": "",
          "type": "uint256"
        }
      ],
      "name": "clientes",
      "outputs": [
        {
          "internalType": "string",
          "name": "nombre",
          "type": "string"
        },
        {
          "internalType": "uint256",
          "name": "documento",
          "type": "uint256"
        },
        {
          "internalType": "uint256",
          "name": "claveIngreso",
          "type": "uint256"
        }
      ],
      "stateMutability": "view",
      "type": "function"
    },
    {
      "inputs": [],
      "name": "darInfo",
      "outputs": [
        {
          "components": [
            {
              "internalType": "string",
              "name": "nombre",
              "type": "string"
            },
            {
              "internalType": "uint256",
              "name": "nit",
              "type": "uint256"
            },
            {
              "internalType": "uint256",
              "name": "clave",
              "type": "uint256"
            },
            {
              "internalType": "bool",
              "name": "pruebaGenerada",
              "type": "bool"
            }
          ],
          "internalType": "struct Banco.Entidad",
          "name": "infoBanco",
          "type": "tuple"
        }
      ],
      "stateMutability": "view",
      "type": "function"
    },
    {
      "inputs": [
        {
          "internalType": "uint256",
          "name": "_cedula",
          "type": "uint256"
        },
        {
          "internalType": "uint256",
          "name": "_claveIngresada",
          "type": "uint256"
        },
        {
          "internalType": "uint256",
          "name": "_nitIngresado",
          "type": "uint256"
        },
        {
          "internalType": "uint256[2]",
          "name": "_pA",
          "type": "uint256[2]"
        },
        {
          "internalType": "uint256[2][2]",
          "name": "_pB",
          "type": "uint256[2][2]"
        },
        {
          "internalType": "uint256[2]",
          "name": "_pC",
          "type": "uint256[2]"
        }
      ],
      "name": "dar_productos_cliente",
      "outputs": [
        {
          "components": [
            {
              "internalType": "uint256",
              "name": "numero",
              "type": "uint256"
            },
            {
              "internalType": "string",
              "name": "tipo",
              "type": "string"
            },
            {
              "internalType": "uint256",
              "name": "saldo",
              "type": "uint256"
            }
          ],
          "internalType": "struct Banco.Producto[]",
          "name": "listaProductos",
          "type": "tuple[]"
        }
      ],
      "stateMutability": "view",
      "type": "function"
    },
    {
      "inputs": [
        {
          "internalType": "uint256",
          "name": "_nitIngresado",
          "type": "uint256"
        },
        {
          "internalType": "uint256",
          "name": "_cedulaUsuario",
          "type": "uint256"
        }
      ],
      "name": "dar_resultado_esperado",
      "outputs": [
        {
          "internalType": "uint256",
          "name": "",
          "type": "uint256"
        }
      ],
      "stateMutability": "view",
      "type": "function"
    },
    {
      "inputs": [
        {
          "internalType": "uint256",
          "name": "",
          "type": "uint256"
        }
      ],
      "name": "direccionesBancos",
      "outputs": [
        {
          "internalType": "address",
          "name": "",
          "type": "address"
        }
      ],
      "stateMutability": "view",
      "type": "function"
    },
    {
      "inputs": [
        {
          "internalType": "uint256",
          "name": "_nit",
          "type": "uint256"
        }
      ],
      "name": "existe_verificacion",
      "outputs": [
        {
          "internalType": "bool",
          "name": "",
          "type": "bool"
        }
      ],
      "stateMutability": "view",
      "type": "function"
    },
    {
      "inputs": [],
      "name": "generar_prueba",
      "outputs": [],
      "stateMutability": "payable",
      "type": "function"
    },
    {
      "inputs": [
        {
          "internalType": "uint256",
          "name": "_nit",
          "type": "uint256"
        }
      ],
      "name": "obtener_verificacion",
      "outputs": [
        {
          "internalType": "contract Verificacion",
          "name": "prueb",
          "type": "address"
        }
      ],
      "stateMutability": "view",
      "type": "function"
    },
    {
      "inputs": [
        {
          "internalType": "address",
          "name": "",
          "type": "address"
        },
        {
          "internalType": "uint256",
          "name": "",
          "type": "uint256"
        },
        {
          "internalType": "uint256",
          "name": "",
          "type": "uint256"
        }
      ],
      "name": "productos",
      "outputs": [
        {
          "internalType": "uint256",
          "name": "numero",
          "type": "uint256"
        },
        {
          "internalType": "string",
          "name": "tipo",
          "type": "string"
        },
        {
          "internalType": "uint256",
          "name": "saldo",
          "type": "uint256"
        }
      ],
      "stateMutability": "view",
      "type": "function"
    },
    {
      "inputs": [
        {
          "internalType": "uint256",
          "name": "",
          "type": "uint256"
        }
      ],
      "name": "pruebas",
      "outputs": [
        {
          "internalType": "contract Verificacion",
          "name": "",
          "type": "address"
        }
      ],
      "stateMutability": "view",
      "type": "function"
    },
    {
      "inputs": [
        {
          "internalType": "uint256",
          "name": "_cedula",
          "type": "uint256"
        },
        {
          "internalType": "uint256",
          "name": "_claveIngresada",
          "type": "uint256"
        },
        {
          "internalType": "uint256",
          "name": "_nitIngresado",
          "type": "uint256"
        },
        {
          "internalType": "uint256[2]",
          "name": "_pA",
          "type": "uint256[2]"
        },
        {
          "internalType": "uint256[2][2]",
          "name": "_pB",
          "type": "uint256[2][2]"
        },
        {
          "internalType": "uint256[2]",
          "name": "_pC",
          "type": "uint256[2]"
        }
      ],
      "name": "realizar_zkp",
      "outputs": [
        {
          "internalType": "bool",
          "name": "resultado",
          "type": "bool"
        }
      ],
      "stateMutability": "view",
      "type": "function"
    },
    {
      "inputs": [
        {
          "internalType": "uint256",
          "name": "",
          "type": "uint256"
        }
      ],
      "name": "registrados",
      "outputs": [
        {
          "internalType": "address",
          "name": "",
          "type": "address"
        }
      ],
      "stateMutability": "view",
      "type": "function"
    },
    {
      "inputs": [
        {
          "internalType": "string",
          "name": "_nombre",
          "type": "string"
        },
        {
          "internalType": "uint256",
          "name": "_nit",
          "type": "uint256"
        },
        {
          "internalType": "uint256",
          "name": "_clave",
          "type": "uint256"
        }
      ],
      "name": "registro_banco",
      "outputs": [],
      "stateMutability": "nonpayable",
      "type": "function"
    }
  ],
  "bytecode": "0x6080604052348015600f57600080fd5b50336000806101000a81548173ffffffffffffffffffffffffffffffffffffffff021916908373ffffffffffffffffffffffffffffffffffffffff1602179055506136ea8061005f6000396000f3fe6080604052600436106100fe5760003560e01c806385c410fb116100955780639b855802116100645780639b85580214610394578063a94e163e146103bf578063aa75686a146103fe578063d855e2e01461043d578063fe5bf1741461047a576100fe565b806385c410fb146102c3578063865bb4c2146102ec5780638ceac9d61461032c5780638e819de514610369576100fe565b806366bf5910116100d157806366bf5910146101e35780636993d5fa14610220578063738f59ce1461025d5780637c8efe5614610286576100fe565b80632be259b2146101035780633066a61d1461014057806360fa5fac1461017d57806366b4d186146101a6575b600080fd5b34801561010f57600080fd5b5061012a600480360381019061012591906116cc565b610484565b604051610137919061190c565b60405180910390f35b34801561014c57600080fd5b506101676004803603810190610162919061192e565b610631565b60405161017491906119da565b60405180910390f35b34801561018957600080fd5b506101a4600480360381019061019f9190611a55565b61066e565b005b3480156101b257600080fd5b506101cd60048036038101906101c8919061192e565b61077f565b6040516101da9190611afe565b60405180910390f35b3480156101ef57600080fd5b5061020a60048036038101906102059190611b19565b6107be565b6040516102179190611b68565b60405180910390f35b34801561022c57600080fd5b506102476004803603810190610242919061192e565b6109f6565b6040516102549190611b9e565b60405180910390f35b34801561026957600080fd5b50610284600480360381019061027f9190611bb9565b610a87565b005b34801561029257600080fd5b506102ad60048036038101906102a8919061192e565b610b86565b6040516102ba91906119da565b60405180910390f35b3480156102cf57600080fd5b506102ea60048036038101906102e59190611bb9565b610bb9565b005b3480156102f857600080fd5b50610313600480360381019061030e9190611c59565b610d68565b6040516103239493929190611cd0565b60405180910390f35b34801561033857600080fd5b50610353600480360381019061034e919061192e565b610e2d565b6040516103609190611afe565b60405180910390f35b34801561037557600080fd5b5061037e610e60565b60405161038b9190611b9e565b60405180910390f35b3480156103a057600080fd5b506103a9610ef8565b6040516103b69190611d8e565b60405180910390f35b3480156103cb57600080fd5b506103e660048036038101906103e19190611db0565b611010565b6040516103f593929190611e03565b60405180910390f35b34801561040a57600080fd5b5061042560048036038101906104209190611e41565b6110ec565b60405161043493929190611e81565b60405180910390f35b34801561044957600080fd5b50610464600480360381019061045f91906116cc565b6111bb565b6040516104719190611b9e565b60405180910390f35b6104826113ee565b005b606060006005600087815260200190815260200160002060009054906101000a900473ffffffffffffffffffffffffffffffffffffffff16905060006104ce8989898989896111bb565b9050801561062557600660008373ffffffffffffffffffffffffffffffffffffffff1673ffffffffffffffffffffffffffffffffffffffff16815260200190815260200160002060008a8152602001908152602001600020805480602002602001604051908101604052809291908181526020016000905b8282101561061e57838290600052602060002090600302016040518060600160405290816000820154815260200160018201805461058390611eee565b80601f01602080910402602001604051908101604052809291908181526020018280546105af90611eee565b80156105fc5780601f106105d1576101008083540402835291602001916105fc565b820191906000526020600020905b8154815290600101906020018083116105df57829003601f168201915b5050505050815260200160028201548152505081526020019060010190610546565b5050505092505b50509695505050505050565b60006004600083815260200190815260200160002060009054906101000a900473ffffffffffffffffffffffffffffffffffffffff169050919050565b6000604051806060016040528086815260200185858080601f016020809104026020016040519081016040528093929190818152602001838380828437600081840152601f19601f820116905080830192505050505050508152602001838152509050600660003373ffffffffffffffffffffffffffffffffffffffff1673ffffffffffffffffffffffffffffffffffffffff168152602001908152602001600020600087815260200190815260200160002081908060018154018082558091505060019003906000526020600020906003020160009091909190915060008201518160000155602082015181600101908161076a91906120f0565b50604082015181600201555050505050505050565b6001818154811061078f57600080fd5b906000526020600020016000915054906101000a900473ffffffffffffffffffffffffffffffffffffffff1681565b6000806005600085815260200190815260200160002060009054906101000a900473ffffffffffffffffffffffffffffffffffffffff16905060006004600086815260200190815260200160002060009054906101000a900473ffffffffffffffffffffffffffffffffffffffff169050600080600090505b600360008573ffffffffffffffffffffffffffffffffffffffff1673ffffffffffffffffffffffffffffffffffffffff1681526020019081526020016000208054905081101561095d5785600360008673ffffffffffffffffffffffffffffffffffffffff1673ffffffffffffffffffffffffffffffffffffffff16815260200190815260200160002082815481106108d3576108d26121c2565b5b9060005260206000209060030201600101540361095057600360008573ffffffffffffffffffffffffffffffffffffffff1673ffffffffffffffffffffffffffffffffffffffff168152602001908152602001600020818154811061093b5761093a6121c2565b5b90600052602060002090600302016002015491505b8080600101915050610837565b5060008273ffffffffffffffffffffffffffffffffffffffff16635eb86fca87896109889190612220565b846040518363ffffffff1660e01b81526004016109a6929190612254565b602060405180830381865afa1580156109c3573d6000803e3d6000fd5b505050506040513d601f19601f820116820180604052508101906109e79190612292565b90508094505050505092915050565b6000806005600084815260200190815260200160002060009054906101000a900473ffffffffffffffffffffffffffffffffffffffff169050600260008273ffffffffffffffffffffffffffffffffffffffff1673ffffffffffffffffffffffffffffffffffffffff16815260200190815260200160002060030160009054906101000a900460ff16915050919050565b6000604051806060016040528086868080601f016020809104026020016040519081016040528093929190818152602001838380828437600081840152601f19601f820116905080830192505050505050508152602001848152602001838152509050600360003373ffffffffffffffffffffffffffffffffffffffff1673ffffffffffffffffffffffffffffffffffffffff1681526020019081526020016000208190806001815401808255809150506001900390600052602060002090600302016000909190919091506000820151816000019081610b6891906120f0565b50602082015181600101556040820151816002015550505050505050565b60046020528060005260406000206000915054906101000a900473ffffffffffffffffffffffffffffffffffffffff1681565b604051806080016040528085858080601f016020809104026020016040519081016040528093929190818152602001838380828437600081840152601f19601f82011690508083019250505050505050815260200183815260200182815260200160001515815250600260003373ffffffffffffffffffffffffffffffffffffffff1673ffffffffffffffffffffffffffffffffffffffff1681526020019081526020016000206000820151816000019081610c7591906120f0565b50602082015181600101556040820151816002015560608201518160030160006101000a81548160ff021916908315150217905550905050336005600084815260200190815260200160002060006101000a81548173ffffffffffffffffffffffffffffffffffffffff021916908373ffffffffffffffffffffffffffffffffffffffff1602179055506001339080600181540180825580915050600190039060005260206000200160009091909190916101000a81548173ffffffffffffffffffffffffffffffffffffffff021916908373ffffffffffffffffffffffffffffffffffffffff16021790555050505050565b6002602052806000526040600020600091509050806000018054610d8b90611eee565b80601f0160208091040260200160405190810160405280929190818152602001828054610db790611eee565b8015610e045780601f10610dd957610100808354040283529160200191610e04565b820191906000526020600020905b815481529060010190602001808311610de757829003601f168201915b5050505050908060010154908060020154908060030160009054906101000a900460ff16905084565b60056020528060005260406000206000915054906101000a900473ffffffffffffffffffffffffffffffffffffffff1681565b6000805b600180549050811015610ef4573373ffffffffffffffffffffffffffffffffffffffff1660018281548110610e9c57610e9b6121c2565b5b9060005260206000200160009054906101000a900473ffffffffffffffffffffffffffffffffffffffff1673ffffffffffffffffffffffffffffffffffffffff1603610ee757600191505b8080600101915050610e64565b5090565b610f0061160c565b600260003373ffffffffffffffffffffffffffffffffffffffff1673ffffffffffffffffffffffffffffffffffffffff168152602001908152602001600020604051806080016040529081600082018054610f5a90611eee565b80601f0160208091040260200160405190810160405280929190818152602001828054610f8690611eee565b8015610fd35780601f10610fa857610100808354040283529160200191610fd3565b820191906000526020600020905b815481529060010190602001808311610fb657829003601f168201915b5050505050815260200160018201548152602001600282015481526020016003820160009054906101000a900460ff161515151581525050905090565b6006602052826000526040600020602052816000526040600020818154811061103857600080fd5b9060005260206000209060030201600092509250505080600001549080600101805461106390611eee565b80601f016020809104026020016040519081016040528092919081815260200182805461108f90611eee565b80156110dc5780601f106110b1576101008083540402835291602001916110dc565b820191906000526020600020905b8154815290600101906020018083116110bf57829003601f168201915b5050505050908060020154905083565b6003602052816000526040600020818154811061110857600080fd5b90600052602060002090600302016000915091505080600001805461112c90611eee565b80601f016020809104026020016040519081016040528092919081815260200182805461115890611eee565b80156111a55780601f1061117a576101008083540402835291602001916111a5565b820191906000526020600020905b81548152906001019060200180831161118857829003601f168201915b5050505050908060010154908060020154905083565b6000806004600087815260200190815260200160002060009054906101000a900473ffffffffffffffffffffffffffffffffffffffff16905060006005600088815260200190815260200160002060009054906101000a900473ffffffffffffffffffffffffffffffffffffffff169050600080600090505b600360008473ffffffffffffffffffffffffffffffffffffffff1673ffffffffffffffffffffffffffffffffffffffff1681526020019081526020016000208054905081101561135a578a600360008573ffffffffffffffffffffffffffffffffffffffff1673ffffffffffffffffffffffffffffffffffffffff16815260200190815260200160002082815481106112d0576112cf6121c2565b5b9060005260206000209060030201600101540361134d57600360008473ffffffffffffffffffffffffffffffffffffffff1673ffffffffffffffffffffffffffffffffffffffff1681526020019081526020016000208181548110611338576113376121c2565b5b90600052602060002090600302016002015491505b8080600101915050611234565b508273ffffffffffffffffffffffffffffffffffffffff1663a487a8e98b838c8b8b8b6040518763ffffffff1660e01b815260040161139e96959493929190612397565b602060405180830381865afa1580156113bb573d6000803e3d6000fd5b505050506040513d601f19601f820116820180604052508101906113df9190612426565b93505050509695505050505050565b60143414611431576040517f08c379a0000000000000000000000000000000000000000000000000000000008152600401611428906124c5565b60405180910390fd5b6000600260003373ffffffffffffffffffffffffffffffffffffffff1673ffffffffffffffffffffffffffffffffffffffff168152602001908152602001600020600101549050600081600260003373ffffffffffffffffffffffffffffffffffffffff1673ffffffffffffffffffffffffffffffffffffffff168152602001908152602001600020600201546040516114ca90611636565b6114d5929190612254565b604051809103906000f0801580156114f1573d6000803e3d6000fd5b509050806004600084815260200190815260200160002060006101000a81548173ffffffffffffffffffffffffffffffffffffffff021916908373ffffffffffffffffffffffffffffffffffffffff1602179055506001600260003373ffffffffffffffffffffffffffffffffffffffff1673ffffffffffffffffffffffffffffffffffffffff16815260200190815260200160002060030160006101000a81548160ff02191690831515021790555060008054906101000a900473ffffffffffffffffffffffffffffffffffffffff1673ffffffffffffffffffffffffffffffffffffffff166108fc349081150290604051600060405180830381858888f19350505050158015611607573d6000803e3d6000fd5b505050565b60405180608001604052806060815260200160008152602001600081526020016000151581525090565b6111cf806124e683390190565b600080fd5b600080fd5b6000819050919050565b6116608161164d565b811461166b57600080fd5b50565b60008135905061167d81611657565b92915050565b600080fd5b6000819050826020600202820111156116a4576116a3611683565b5b92915050565b6000819050826040600202820111156116c6576116c5611683565b5b92915050565b60008060008060008061016087890312156116ea576116e9611643565b5b60006116f889828a0161166e565b965050602061170989828a0161166e565b955050604061171a89828a0161166e565b945050606061172b89828a01611688565b93505060a061173c89828a016116aa565b92505061012061174e89828a01611688565b9150509295509295509295565b600081519050919050565b600082825260208201905092915050565b6000819050602082019050919050565b6117908161164d565b82525050565b600081519050919050565b600082825260208201905092915050565b60005b838110156117d05780820151818401526020810190506117b5565b60008484015250505050565b6000601f19601f8301169050919050565b60006117f882611796565b61180281856117a1565b93506118128185602086016117b2565b61181b816117dc565b840191505092915050565b600060608301600083015161183e6000860182611787565b506020830151848203602086015261185682826117ed565b915050604083015161186b6040860182611787565b508091505092915050565b60006118828383611826565b905092915050565b6000602082019050919050565b60006118a28261175b565b6118ac8185611766565b9350836020820285016118be85611777565b8060005b858110156118fa57848403895281516118db8582611876565b94506118e68361188a565b925060208a019950506001810190506118c2565b50829750879550505050505092915050565b600060208201905081810360008301526119268184611897565b905092915050565b60006020828403121561194457611943611643565b5b60006119528482850161166e565b91505092915050565b600073ffffffffffffffffffffffffffffffffffffffff82169050919050565b6000819050919050565b60006119a061199b6119968461195b565b61197b565b61195b565b9050919050565b60006119b282611985565b9050919050565b60006119c4826119a7565b9050919050565b6119d4816119b9565b82525050565b60006020820190506119ef60008301846119cb565b92915050565b600080fd5b600080fd5b60008083601f840112611a1557611a146119f5565b5b8235905067ffffffffffffffff811115611a3257611a316119fa565b5b602083019150836001820283011115611a4e57611a4d611683565b5b9250929050565b600080600080600060808688031215611a7157611a70611643565b5b6000611a7f8882890161166e565b9550506020611a908882890161166e565b945050604086013567ffffffffffffffff811115611ab157611ab0611648565b5b611abd888289016119ff565b93509350506060611ad08882890161166e565b9150509295509295909350565b6000611ae88261195b565b9050919050565b611af881611add565b82525050565b6000602082019050611b136000830184611aef565b92915050565b60008060408385031215611b3057611b2f611643565b5b6000611b3e8582860161166e565b9250506020611b4f8582860161166e565b9150509250929050565b611b628161164d565b82525050565b6000602082019050611b7d6000830184611b59565b92915050565b60008115159050919050565b611b9881611b83565b82525050565b6000602082019050611bb36000830184611b8f565b92915050565b60008060008060608587031215611bd357611bd2611643565b5b600085013567ffffffffffffffff811115611bf157611bf0611648565b5b611bfd878288016119ff565b94509450506020611c108782880161166e565b9250506040611c218782880161166e565b91505092959194509250565b611c3681611add565b8114611c4157600080fd5b50565b600081359050611c5381611c2d565b92915050565b600060208284031215611c6f57611c6e611643565b5b6000611c7d84828501611c44565b91505092915050565b600082825260208201905092915050565b6000611ca282611796565b611cac8185611c86565b9350611cbc8185602086016117b2565b611cc5816117dc565b840191505092915050565b60006080820190508181036000830152611cea8187611c97565b9050611cf96020830186611b59565b611d066040830185611b59565b611d136060830184611b8f565b95945050505050565b611d2581611b83565b82525050565b60006080830160008301518482036000860152611d4882826117ed565b9150506020830151611d5d6020860182611787565b506040830151611d706040860182611787565b506060830151611d836060860182611d1c565b508091505092915050565b60006020820190508181036000830152611da88184611d2b565b905092915050565b600080600060608486031215611dc957611dc8611643565b5b6000611dd786828701611c44565b9350506020611de88682870161166e565b9250506040611df98682870161166e565b9150509250925092565b6000606082019050611e186000830186611b59565b8181036020830152611e2a8185611c97565b9050611e396040830184611b59565b949350505050565b60008060408385031215611e5857611e57611643565b5b6000611e6685828601611c44565b9250506020611e778582860161166e565b9150509250929050565b60006060820190508181036000830152611e9b8186611c97565b9050611eaa6020830185611b59565b611eb76040830184611b59565b949350505050565b7f4e487b7100000000000000000000000000000000000000000000000000000000600052602260045260246000fd5b60006002820490506001821680611f0657607f821691505b602082108103611f1957611f18611ebf565b5b50919050565b7f4e487b7100000000000000000000000000000000000000000000000000000000600052604160045260246000fd5b60008190508160005260206000209050919050565b60006020601f8301049050919050565b600082821b905092915050565b600060088302611fb07fffffffffffffffffffffffffffffffffffffffffffffffffffffffffffffffff82611f73565b611fba8683611f73565b95508019841693508086168417925050509392505050565b6000611fed611fe8611fe38461164d565b61197b565b61164d565b9050919050565b6000819050919050565b61200783611fd2565b61201b61201382611ff4565b848454611f80565b825550505050565b600090565b612030612023565b61203b818484611ffe565b505050565b5b8181101561205f57612054600082612028565b600181019050612041565b5050565b601f8211156120a45761207581611f4e565b61207e84611f63565b8101602085101561208d578190505b6120a161209985611f63565b830182612040565b50505b505050565b600082821c905092915050565b60006120c7600019846008026120a9565b1980831691505092915050565b60006120e083836120b6565b9150826002028217905092915050565b6120f982611796565b67ffffffffffffffff81111561211257612111611f1f565b5b61211c8254611eee565b612127828285612063565b600060209050601f83116001811461215a5760008415612148578287015190505b61215285826120d4565b8655506121ba565b601f19841661216886611f4e565b60005b828110156121905784890151825560018201915060208501945060208101905061216b565b868310156121ad57848901516121a9601f8916826120b6565b8355505b6001600288020188555050505b505050505050565b7f4e487b7100000000000000000000000000000000000000000000000000000000600052603260045260246000fd5b7f4e487b7100000000000000000000000000000000000000000000000000000000600052601160045260246000fd5b600061222b8261164d565b91506122368361164d565b925082820190508082111561224e5761224d6121f1565b5b92915050565b60006040820190506122696000830185611b59565b6122766020830184611b59565b9392505050565b60008151905061228c81611657565b92915050565b6000602082840312156122a8576122a7611643565b5b60006122b68482850161227d565b91505092915050565b82818337505050565b6122d4604083836122bf565b5050565b600060029050919050565b600081905092915050565b6000819050919050565b612304604083836122bf565b5050565b600061231483836122f8565b60408301905092915050565b600082905092915050565b6000604082019050919050565b612341816122d8565b61234b81846122e3565b9250612356826122ee565b8060005b8381101561238f5761236c8284612320565b6123768782612308565b96506123818361232b565b92505060018101905061235a565b505050505050565b6000610160820190506123ad6000830189611b59565b6123ba6020830188611b59565b6123c76040830187611b59565b6123d460608301866122c8565b6123e160a0830185612338565b6123ef6101208301846122c8565b979650505050505050565b61240381611b83565b811461240e57600080fd5b50565b600081519050612420816123fa565b92915050565b60006020828403121561243c5761243b611643565b5b600061244a84828501612411565b91505092915050565b7f456c2070726563696f20706172612067656e6572617220756e61205a4b50206560008201527f7320646520323020455448000000000000000000000000000000000000000000602082015250565b60006124af602b83611c86565b91506124ba82612453565b604082019050919050565b600060208201905081810360008301526124de816124a2565b905091905056fe608060405234801561001057600080fd5b506040516111cf3803806111cf83398181016040528101906100329190610139565b816000819055508060018190555060405161004c906100f1565b604051809103906000f080158015610068573d6000803e3d6000fd5b50600460006101000a81548173ffffffffffffffffffffffffffffffffffffffff021916908373ffffffffffffffffffffffffffffffffffffffff16021790555033600360006101000a81548173ffffffffffffffffffffffffffffffffffffffff021916908373ffffffffffffffffffffffffffffffffffffffff1602179055505050610179565b61073780610a9883390190565b600080fd5b6000819050919050565b61011681610103565b811461012157600080fd5b50565b6000815190506101338161010d565b92915050565b600080604083850312156101505761014f6100fe565b5b600061015e85828601610124565b925050602061016f85828601610124565b9150509250929050565b610910806101886000396000f3fe60806040526004361061003f5760003560e01c80635eb86fca14610044578063960d212f14610081578063a487a8e9146100ac578063d19e6ebb146100e9575b600080fd5b34801561005057600080fd5b5061006b600480360381019061006691906103ca565b610105565b6040516100789190610419565b60405180910390f35b34801561008d57600080fd5b50610096610119565b6040516100a39190610419565b60405180910390f35b3480156100b857600080fd5b506100d360048036038101906100ce919061047d565b610123565b6040516100e09190610527565b60405180910390f35b61010360048036038101906100fe9190610542565b610229565b005b600061011183836102df565b905092915050565b6000600154905090565b6000808790506000869050600061014760005484610141919061059e565b8a6102df565b9050600460009054906101000a900473ffffffffffffffffffffffffffffffffffffffff1673ffffffffffffffffffffffffffffffffffffffff16635fe8c13b88888860405180608001604052808781526020016000548a6101a9919061059e565b81526020018881526020016001548152506040518563ffffffff1660e01b81526004016101d99493929190610755565b602060405180830381865afa1580156101f6573d6000803e3d6000fd5b505050506040513d601f19601f8201168201806040525081019061021a91906107c8565b93505050509695505050505050565b600a341461026c576040517f08c379a000000000000000000000000000000000000000000000000000000000815260040161026390610878565b60405180910390fd5b80600181905550600360009054906101000a900473ffffffffffffffffffffffffffffffffffffffff1673ffffffffffffffffffffffffffffffffffffffff166108fc349081150290604051600060405180830381858888f193505050501580156102db573d6000803e3d6000fd5b5050565b6000808390506000839050600060015490506003836102fe919061059e565b60038085848661030e919061059e565b6103189190610898565b610322919061059e565b61032c9190610898565b828486610339919061059e565b610343919061059e565b6003868587610352919061059e565b61035c9190610898565b610366919061059e565b610370919061059e565b61037a919061059e565b6103849190610898565b935050505092915050565b600080fd5b6000819050919050565b6103a781610394565b81146103b257600080fd5b50565b6000813590506103c48161039e565b92915050565b600080604083850312156103e1576103e061038f565b5b60006103ef858286016103b5565b9250506020610400858286016103b5565b9150509250929050565b61041381610394565b82525050565b600060208201905061042e600083018461040a565b92915050565b600080fd5b60008190508260206002028201111561045557610454610434565b5b92915050565b60008190508260406002028201111561047757610476610434565b5b92915050565b600080600080600080610160878903121561049b5761049a61038f565b5b60006104a989828a016103b5565b96505060206104ba89828a016103b5565b95505060406104cb89828a016103b5565b94505060606104dc89828a01610439565b93505060a06104ed89828a0161045b565b9250506101206104ff89828a01610439565b9150509295509295509295565b60008115159050919050565b6105218161050c565b82525050565b600060208201905061053c6000830184610518565b92915050565b6000602082840312156105585761055761038f565b5b6000610566848285016103b5565b91505092915050565b7f4e487b7100000000000000000000000000000000000000000000000000000000600052601160045260246000fd5b60006105a982610394565b91506105b483610394565b92508282019050808211156105cc576105cb61056f565b5b92915050565b82818337505050565b6105e7604083836105d2565b5050565b600060029050919050565b600081905092915050565b6000819050919050565b610617604083836105d2565b5050565b6000610627838361060b565b60408301905092915050565b600082905092915050565b6000604082019050919050565b610654816105eb565b61065e81846105f6565b925061066982610601565b8060005b838110156106a25761067f8284610633565b610689878261061b565b96506106948361063e565b92505060018101905061066d565b505050505050565b600060049050919050565b600081905092915050565b6000819050919050565b6106d381610394565b82525050565b60006106e583836106ca565b60208301905092915050565b6000602082019050919050565b610707816106aa565b61071181846106b5565b925061071c826106c0565b8060005b8381101561074d57815161073487826106d9565b965061073f836106f1565b925050600181019050610720565b505050505050565b60006101808201905061076b60008301876105db565b610778604083018661064b565b61078560c08301856105db565b6107936101008301846106fe565b95945050505050565b6107a58161050c565b81146107b057600080fd5b50565b6000815190506107c28161079c565b92915050565b6000602082840312156107de576107dd61038f565b5b60006107ec848285016107b3565b91505092915050565b600082825260208201905092915050565b7f456c2076616c6f722064652065737461206f7065726163696f6e20657320646560008201527f2031302045544800000000000000000000000000000000000000000000000000602082015250565b60006108626027836107f5565b915061086d82610806565b604082019050919050565b6000602082019050818103600083015261089181610855565b9050919050565b60006108a382610394565b91506108ae83610394565b92508282026108bc81610394565b915082820484148315176108d3576108d261056f565b5b509291505056fea264697066735822122003a7712589b2d83b06c315eed1fe3a4db17c95881fb4704b3c349f738fc8ec2c64736f6c634300081a00336080604052348015600f57600080fd5b506107188061001f6000396000f3fe608060405234801561001057600080fd5b506004361061002b5760003560e01c80635fe8c13b14610030575b600080fd5b61004a60048036038101906100459190610643565b610060565b60405161005791906106c7565b60405180910390f35b600061057d565b7f30644e72e131a029b85045b68181585d2833e84879b9709143e1f593f00000018110610098576000805260206000f35b50565b600060405183815284602082015285604082015260408160608360076107d05a03fa9150816100ce576000805260206000f35b825160408201526020830151606082015260408360808360066107d05a03fa9150816100fe576000805260206000f35b505050505050565b600060808601600087017f1e87f974a86385ae5e6bcc63d046b45a70fcb38d83376d91821ef7e843a1bfc981527f0ea0f7c760484aac1ea5440d510ead26b56e311fdbe3d7de27a7c28640034af460208201526101a960008801357f1015c05bcde837b7ee03dfbfda7f6ee01dc0bbc2c08e55e5bfa648107218db5a7f2fdbe1ded26d3c8c5ec574c16c23d733c71b335314c7e815102280e36d77cc1f8461009b565b6101f960208801357f06189da5e3dcd5bd7364421927f56f39a02f6a1d0f738d12469e9a41d01ad2df7f128623aace631da559193ca07b3ef9da3ba20c45bac014190c69bd0a7475188b8461009b565b61024960408801357f2027ae03285c04e3e90e8184ea7dfb6387b39d793a8802c5b18432fd4e5472197f08258e6629376bca43b68e380bc96e627f88ca075edea2f3d73a6c00f21b41ae8461009b565b61029960608801357f28e23a33e865ae86ad208505b01934dc61efb9c58c752a998a716ef4474f4a587f2596d004e2c407270a3333a5386f1f46815faf818e5501d7f54b40267eb28a778461009b565b833582527f30644e72e131a029b85045b68181585d97816a916871ca8d3c208c16d87cfd4760208501357f30644e72e131a029b85045b68181585d97816a916871ca8d3c208c16d87cfd4703066020830152843560408301526020850135606083015260408501356080830152606085013560a08301527f114de35dc50cad62b29ea026cf28abd7008232018811f42894e92998dd36777660c08301527f0ec033a1ff45ca1c28a4d33a5bf6f60f94bbfaffd975a34074e63391ca69a6a960e08301527f0593146809489a45018ef8127007ad7609c93d3cbf63315338a00d4bce4a02026101008301527f29448b3b3f655d1bbd420fb784728db4dd86de21a58b2c6f153a7bfa248ab0a96101208301527f29aafae57422ea7cea6ddee2fd47fada99b2c496dd4faac47b08b5070626f1526101408301527f148f50df3bcbd9a41c5bb0a689bc6d870a11cee138619304b0e929ab28945bf4610160830152600088015161018083015260206000018801516101a08301527f198e9393920d483a7260bfb731fb5d25f1aa493335a9e71297e485b7aef312c26101c08301527f1800deef121f1e76426a00665e5c4479674322d4f75edadd46debd5cd992f6ed6101e08301527f090689d0585ff075ec9e99ad690c3395bc4b313370b38ef355acdadcd122975b6102008301527f12c85ea5db8c6deb4aab71808dcb408fe3d1e7690c43d37b4ce6cc0166fa7daa610220830152853561024083015260208601356102608301527f1fecf97d6fcd52d5a57d65d0af27cead56954a56be1facb0a85d21126593fecd6102808301527f11a15c808d51bbce83817023228846e7dbad533c53c2f981d09887c6b2541da66102a08301527f2e69ede1dcec1a55605f693a13908aed53445da2449ebfd1e78e56a24c932ff16102c08301527f276c9b7fed4802cea174217ccf7140225afff687b1e8fbbab2395b8c3499c1e86102e08301526020826103008460086107d05a03fa82518116935050505095945050505050565b60405161038081016040526105956000840135610067565b6105a26020840135610067565b6105af6040840135610067565b6105bc6060840135610067565b6105c9818486888a610106565b8060005260206000f35b600080fd5b600080fd5b6000819050826020600202820111156105f9576105f86105d8565b5b92915050565b60008190508260406002028201111561061b5761061a6105d8565b5b92915050565b60008190508260206004028201111561063d5761063c6105d8565b5b92915050565b600080600080610180858703121561065e5761065d6105d3565b5b600061066c878288016105dd565b945050604061067d878288016105ff565b93505060c061068e878288016105dd565b9250506101006106a087828801610621565b91505092959194509250565b60008115159050919050565b6106c1816106ac565b82525050565b60006020820190506106dc60008301846106b8565b9291505056fea2646970667358221220a45f5f96b0f462323288ecaa03898ff6c525304ef08d51f7b53e538382cb53e264736f6c634300081a0033a2646970667358221220d95b571be2a4c03396fbcc896c4483f26eb843cfbd5b043e7edcb1b416381d9f64736f6c634300081a0033",
  "linkReferences": {},
  "deployedLinkReferences": {}
}