{
  "_format": "hh-sol-artifact-1",
  "contractName": "Verificacion",
  "sourceName": "contracts/Verificacion.sol",
  "abi": [
    {
      "inputs": [
        {
          "internalType": "uint256",
          "name": "_nitBanco",
          "type": "uint256"
        },
        {
          "internalType": "uint256",
          "name": "_claveBanco",
          "type": "uint256"
        }
      ],
      "stateMutability": "nonpayable",
      "type": "constructor"
    },
    {
      "inputs": [
        {
          "internalType": "uint256",
          "name": "nuevaClave",
          "type": "uint256"
        }
      ],
      "name": "actualizar_clave",
      "outputs": [],
      "stateMutability": "payable",
      "type": "function"
    },
    {
      "inputs": [],
      "name": "dar_clave_banco",
      "outputs": [
        {
          "internalType": "uint256",
          "name": "",
          "type": "uint256"
        }
      ],
      "stateMutability": "view",
      "type": "function"
    },
    {
      "inputs": [
        {
          "internalType": "uint256",
          "name": "_a",
          "type": "uint256"
        },
        {
          "internalType": "uint256",
          "name": "_b",
          "type": "uint256"
        }
      ],
      "name": "dar_clave_secreta",
      "outputs": [
        {
          "internalType": "uint256",
          "name": "clave_secreta",
          "type": "uint256"
        }
      ],
      "stateMutability": "view",
      "type": "function"
    },
    {
      "inputs": [
        {
          "internalType": "uint256",
          "name": "_cedula",
          "type": "uint256"
        },
        {
          "internalType": "uint256",
          "name": "_claveReal",
          "type": "uint256"
        },
        {
          "internalType": "uint256",
          "name": "_claveIngresada",
          "type": "uint256"
        },
        {
          "internalType": "uint256[2]",
          "name": "_pA",
          "type": "uint256[2]"
        },
        {
          "internalType": "uint256[2][2]",
          "name": "_pB",
          "type": "uint256[2][2]"
        },
        {
          "internalType": "uint256[2]",
          "name": "_pC",
          "type": "uint256[2]"
        }
      ],
      "name": "verificar_zkp",
      "outputs": [
        {
          "internalType": "bool",
          "name": "resultado",
          "type": "bool"
        }
      ],
      "stateMutability": "view",
      "type": "function"
    }
  ],
  "bytecode": "0x608060405234801561001057600080fd5b506040516111cf3803806111cf83398181016040528101906100329190610139565b816000819055508060018190555060405161004c906100f1565b604051809103906000f080158015610068573d6000803e3d6000fd5b50600460006101000a81548173ffffffffffffffffffffffffffffffffffffffff021916908373ffffffffffffffffffffffffffffffffffffffff16021790555033600360006101000a81548173ffffffffffffffffffffffffffffffffffffffff021916908373ffffffffffffffffffffffffffffffffffffffff1602179055505050610179565b61073780610a9883390190565b600080fd5b6000819050919050565b61011681610103565b811461012157600080fd5b50565b6000815190506101338161010d565b92915050565b600080604083850312156101505761014f6100fe565b5b600061015e85828601610124565b925050602061016f85828601610124565b9150509250929050565b610910806101886000396000f3fe60806040526004361061003f5760003560e01c80635eb86fca14610044578063960d212f14610081578063a487a8e9146100ac578063d19e6ebb146100e9575b600080fd5b34801561005057600080fd5b5061006b600480360381019061006691906103ca565b610105565b6040516100789190610419565b60405180910390f35b34801561008d57600080fd5b50610096610119565b6040516100a39190610419565b60405180910390f35b3480156100b857600080fd5b506100d360048036038101906100ce919061047d565b610123565b6040516100e09190610527565b60405180910390f35b61010360048036038101906100fe9190610542565b610229565b005b600061011183836102df565b905092915050565b6000600154905090565b6000808790506000869050600061014760005484610141919061059e565b8a6102df565b9050600460009054906101000a900473ffffffffffffffffffffffffffffffffffffffff1673ffffffffffffffffffffffffffffffffffffffff16635fe8c13b88888860405180608001604052808781526020016000548a6101a9919061059e565b81526020018881526020016001548152506040518563ffffffff1660e01b81526004016101d99493929190610755565b602060405180830381865afa1580156101f6573d6000803e3d6000fd5b505050506040513d601f19601f8201168201806040525081019061021a91906107c8565b93505050509695505050505050565b600a341461026c576040517f08c379a000000000000000000000000000000000000000000000000000000000815260040161026390610878565b60405180910390fd5b80600181905550600360009054906101000a900473ffffffffffffffffffffffffffffffffffffffff1673ffffffffffffffffffffffffffffffffffffffff166108fc349081150290604051600060405180830381858888f193505050501580156102db573d6000803e3d6000fd5b5050565b6000808390506000839050600060015490506003836102fe919061059e565b60038085848661030e919061059e565b6103189190610898565b610322919061059e565b61032c9190610898565b828486610339919061059e565b610343919061059e565b6003868587610352919061059e565b61035c9190610898565b610366919061059e565b610370919061059e565b61037a919061059e565b6103849190610898565b935050505092915050565b600080fd5b6000819050919050565b6103a781610394565b81146103b257600080fd5b50565b6000813590506103c48161039e565b92915050565b600080604083850312156103e1576103e061038f565b5b60006103ef858286016103b5565b9250506020610400858286016103b5565b9150509250929050565b61041381610394565b82525050565b600060208201905061042e600083018461040a565b92915050565b600080fd5b60008190508260206002028201111561045557610454610434565b5b92915050565b60008190508260406002028201111561047757610476610434565b5b92915050565b600080600080600080610160878903121561049b5761049a61038f565b5b60006104a989828a016103b5565b96505060206104ba89828a016103b5565b95505060406104cb89828a016103b5565b94505060606104dc89828a01610439565b93505060a06104ed89828a0161045b565b9250506101206104ff89828a01610439565b9150509295509295509295565b60008115159050919050565b6105218161050c565b82525050565b600060208201905061053c6000830184610518565b92915050565b6000602082840312156105585761055761038f565b5b6000610566848285016103b5565b91505092915050565b7f4e487b7100000000000000000000000000000000000000000000000000000000600052601160045260246000fd5b60006105a982610394565b91506105b483610394565b92508282019050808211156105cc576105cb61056f565b5b92915050565b82818337505050565b6105e7604083836105d2565b5050565b600060029050919050565b600081905092915050565b6000819050919050565b610617604083836105d2565b5050565b6000610627838361060b565b60408301905092915050565b600082905092915050565b6000604082019050919050565b610654816105eb565b61065e81846105f6565b925061066982610601565b8060005b838110156106a25761067f8284610633565b610689878261061b565b96506106948361063e565b92505060018101905061066d565b505050505050565b600060049050919050565b600081905092915050565b6000819050919050565b6106d381610394565b82525050565b60006106e583836106ca565b60208301905092915050565b6000602082019050919050565b610707816106aa565b61071181846106b5565b925061071c826106c0565b8060005b8381101561074d57815161073487826106d9565b965061073f836106f1565b925050600181019050610720565b505050505050565b60006101808201905061076b60008301876105db565b610778604083018661064b565b61078560c08301856105db565b6107936101008301846106fe565b95945050505050565b6107a58161050c565b81146107b057600080fd5b50565b6000815190506107c28161079c565b92915050565b6000602082840312156107de576107dd61038f565b5b60006107ec848285016107b3565b91505092915050565b600082825260208201905092915050565b7f456c2076616c6f722064652065737461206f7065726163696f6e20657320646560008201527f2031302045544800000000000000000000000000000000000000000000000000602082015250565b60006108626027836107f5565b915061086d82610806565b604082019050919050565b6000602082019050818103600083015261089181610855565b9050919050565b60006108a382610394565b91506108ae83610394565b92508282026108bc81610394565b915082820484148315176108d3576108d261056f565b5b509291505056fea26469706673582212202bd69fb9f17113587f0ee0263cfcc35785b9c8f215860763fa0bd3612bddef2c64736f6c634300081a00336080604052348015600f57600080fd5b506107188061001f6000396000f3fe608060405234801561001057600080fd5b506004361061002b5760003560e01c80635fe8c13b14610030575b600080fd5b61004a60048036038101906100459190610643565b610060565b60405161005791906106c7565b60405180910390f35b600061057d565b7f30644e72e131a029b85045b68181585d2833e84879b9709143e1f593f00000018110610098576000805260206000f35b50565b600060405183815284602082015285604082015260408160608360076107d05a03fa9150816100ce576000805260206000f35b825160408201526020830151606082015260408360808360066107d05a03fa9150816100fe576000805260206000f35b505050505050565b600060808601600087017f1e87f974a86385ae5e6bcc63d046b45a70fcb38d83376d91821ef7e843a1bfc981527f0ea0f7c760484aac1ea5440d510ead26b56e311fdbe3d7de27a7c28640034af460208201526101a960008801357f1015c05bcde837b7ee03dfbfda7f6ee01dc0bbc2c08e55e5bfa648107218db5a7f2fdbe1ded26d3c8c5ec574c16c23d733c71b335314c7e815102280e36d77cc1f8461009b565b6101f960208801357f06189da5e3dcd5bd7364421927f56f39a02f6a1d0f738d12469e9a41d01ad2df7f128623aace631da559193ca07b3ef9da3ba20c45bac014190c69bd0a7475188b8461009b565b61024960408801357f2027ae03285c04e3e90e8184ea7dfb6387b39d793a8802c5b18432fd4e5472197f08258e6629376bca43b68e380bc96e627f88ca075edea2f3d73a6c00f21b41ae8461009b565b61029960608801357f28e23a33e865ae86ad208505b01934dc61efb9c58c752a998a716ef4474f4a587f2596d004e2c407270a3333a5386f1f46815faf818e5501d7f54b40267eb28a778461009b565b833582527f30644e72e131a029b85045b68181585d97816a916871ca8d3c208c16d87cfd4760208501357f30644e72e131a029b85045b68181585d97816a916871ca8d3c208c16d87cfd4703066020830152843560408301526020850135606083015260408501356080830152606085013560a08301527f114de35dc50cad62b29ea026cf28abd7008232018811f42894e92998dd36777660c08301527f0ec033a1ff45ca1c28a4d33a5bf6f60f94bbfaffd975a34074e63391ca69a6a960e08301527f0593146809489a45018ef8127007ad7609c93d3cbf63315338a00d4bce4a02026101008301527f29448b3b3f655d1bbd420fb784728db4dd86de21a58b2c6f153a7bfa248ab0a96101208301527f29aafae57422ea7cea6ddee2fd47fada99b2c496dd4faac47b08b5070626f1526101408301527f148f50df3bcbd9a41c5bb0a689bc6d870a11cee138619304b0e929ab28945bf4610160830152600088015161018083015260206000018801516101a08301527f198e9393920d483a7260bfb731fb5d25f1aa493335a9e71297e485b7aef312c26101c08301527f1800deef121f1e76426a00665e5c4479674322d4f75edadd46debd5cd992f6ed6101e08301527f090689d0585ff075ec9e99ad690c3395bc4b313370b38ef355acdadcd122975b6102008301527f12c85ea5db8c6deb4aab71808dcb408fe3d1e7690c43d37b4ce6cc0166fa7daa610220830152853561024083015260208601356102608301527f1fecf97d6fcd52d5a57d65d0af27cead56954a56be1facb0a85d21126593fecd6102808301527f11a15c808d51bbce83817023228846e7dbad533c53c2f981d09887c6b2541da66102a08301527f2e69ede1dcec1a55605f693a13908aed53445da2449ebfd1e78e56a24c932ff16102c08301527f276c9b7fed4802cea174217ccf7140225afff687b1e8fbbab2395b8c3499c1e86102e08301526020826103008460086107d05a03fa82518116935050505095945050505050565b60405161038081016040526105956000840135610067565b6105a26020840135610067565b6105af6040840135610067565b6105bc6060840135610067565b6105c9818486888a610106565b8060005260206000f35b600080fd5b600080fd5b6000819050826020600202820111156105f9576105f86105d8565b5b92915050565b60008190508260406002028201111561061b5761061a6105d8565b5b92915050565b60008190508260206004028201111561063d5761063c6105d8565b5b92915050565b600080600080610180858703121561065e5761065d6105d3565b5b600061066c878288016105dd565b945050604061067d878288016105ff565b93505060c061068e878288016105dd565b9250506101006106a087828801610621565b91505092959194509250565b60008115159050919050565b6106c1816106ac565b82525050565b60006020820190506106dc60008301846106b8565b9291505056fea2646970667358221220231fbe55cb8b1e92263cf8db7366c47780fd13e1c43230bcf27077842ae40b5764736f6c634300081a0033",
  "linkReferences": {},
  "deployedLinkReferences": {}
}