{
  "_format": "hh-sol-artifact-1",
  "contractName": "Banco",
  "sourceName": "contracts/Banco.sol",
  "abi": [
    {
      "inputs": [],
      "stateMutability": "nonpayable",
      "type": "constructor"
    },
    {
      "inputs": [
        {
          "internalType": "string",
          "name": "_nombre",
          "type": "string"
        },
        {
          "internalType": "uint256",
          "name": "_documento",
          "type": "uint256"
        },
        {
          "internalType": "string",
          "name": "_nacimiento",
          "type": "string"
        },
        {
          "internalType": "string",
          "name": "_expedicion",
          "type": "string"
        },
        {
          "internalType": "uint256",
          "name": "_claveIngreso",
          "type": "uint256"
        }
      ],
      "name": "agregar_cliente",
      "outputs": [],
      "stateMutability": "nonpayable",
      "type": "function"
    },
    {
      "inputs": [
        {
          "internalType": "uint256",
          "name": "_cedula",
          "type": "uint256"
        },
        {
          "internalType": "string",
          "name": "_numero",
          "type": "string"
        },
        {
          "internalType": "string",
          "name": "_tipo",
          "type": "string"
        },
        {
          "internalType": "uint256",
          "name": "_saldo",
          "type": "uint256"
        }
      ],
      "name": "agregar_producto_cliente",
      "outputs": [],
      "stateMutability": "nonpayable",
      "type": "function"
    },
    {
      "inputs": [
        {
          "internalType": "address",
          "name": "",
          "type": "address"
        }
      ],
      "name": "bancos",
      "outputs": [
        {
          "internalType": "string",
          "name": "nombre",
          "type": "string"
        },
        {
          "internalType": "uint256",
          "name": "nit",
          "type": "uint256"
        },
        {
          "internalType": "uint256",
          "name": "clave",
          "type": "uint256"
        },
        {
          "internalType": "bool",
          "name": "pruebaGenerada",
          "type": "bool"
        }
      ],
      "stateMutability": "view",
      "type": "function"
    },
    {
      "inputs": [
        {
          "internalType": "address",
          "name": "",
          "type": "address"
        },
        {
          "internalType": "uint256",
          "name": "",
          "type": "uint256"
        }
      ],
      "name": "clientes",
      "outputs": [
        {
          "internalType": "string",
          "name": "nombre",
          "type": "string"
        },
        {
          "internalType": "uint256",
          "name": "documento",
          "type": "uint256"
        },
        {
          "internalType": "string",
          "name": "nacimiento",
          "type": "string"
        },
        {
          "internalType": "string",
          "name": "expedicion",
          "type": "string"
        },
        {
          "internalType": "uint256",
          "name": "claveIngreso",
          "type": "uint256"
        }
      ],
      "stateMutability": "view",
      "type": "function"
    },
    {
      "inputs": [
        {
          "internalType": "uint256",
          "name": "_cedula",
          "type": "uint256"
        },
        {
          "internalType": "uint256",
          "name": "_nitIngresado",
          "type": "uint256"
        },
        {
          "internalType": "uint256",
          "name": "_claveIngresada",
          "type": "uint256"
        }
      ],
      "name": "dar_productos_cliente",
      "outputs": [
        {
          "components": [
            {
              "internalType": "string",
              "name": "numero",
              "type": "string"
            },
            {
              "internalType": "string",
              "name": "tipo",
              "type": "string"
            },
            {
              "internalType": "uint256",
              "name": "saldo",
              "type": "uint256"
            }
          ],
          "internalType": "struct Banco.Producto[]",
          "name": "listaProductos",
          "type": "tuple[]"
        }
      ],
      "stateMutability": "view",
      "type": "function"
    },
    {
      "inputs": [
        {
          "internalType": "uint256",
          "name": "",
          "type": "uint256"
        }
      ],
      "name": "direccionesBancos",
      "outputs": [
        {
          "internalType": "address",
          "name": "",
          "type": "address"
        }
      ],
      "stateMutability": "view",
      "type": "function"
    },
    {
      "inputs": [
        {
          "internalType": "uint256",
          "name": "_nit",
          "type": "uint256"
        }
      ],
      "name": "existe_verificacion",
      "outputs": [
        {
          "internalType": "bool",
          "name": "",
          "type": "bool"
        }
      ],
      "stateMutability": "view",
      "type": "function"
    },
    {
      "inputs": [],
      "name": "generar_prueba",
      "outputs": [],
      "stateMutability": "payable",
      "type": "function"
    },
    {
      "inputs": [
        {
          "internalType": "uint256",
          "name": "_nit",
          "type": "uint256"
        }
      ],
      "name": "obtener_verificacion",
      "outputs": [
        {
          "internalType": "contract Verificacion",
          "name": "prueb",
          "type": "address"
        }
      ],
      "stateMutability": "view",
      "type": "function"
    },
    {
      "inputs": [
        {
          "internalType": "address",
          "name": "",
          "type": "address"
        },
        {
          "internalType": "uint256",
          "name": "",
          "type": "uint256"
        },
        {
          "internalType": "uint256",
          "name": "",
          "type": "uint256"
        }
      ],
      "name": "productos",
      "outputs": [
        {
          "internalType": "string",
          "name": "numero",
          "type": "string"
        },
        {
          "internalType": "string",
          "name": "tipo",
          "type": "string"
        },
        {
          "internalType": "uint256",
          "name": "saldo",
          "type": "uint256"
        }
      ],
      "stateMutability": "view",
      "type": "function"
    },
    {
      "inputs": [
        {
          "internalType": "uint256",
          "name": "",
          "type": "uint256"
        }
      ],
      "name": "pruebas",
      "outputs": [
        {
          "internalType": "contract Verificacion",
          "name": "",
          "type": "address"
        }
      ],
      "stateMutability": "view",
      "type": "function"
    },
    {
      "inputs": [
        {
          "internalType": "uint256",
          "name": "_cedula",
          "type": "uint256"
        },
        {
          "internalType": "uint256",
          "name": "_nitIngresado",
          "type": "uint256"
        },
        {
          "internalType": "uint256",
          "name": "_claveIngresada",
          "type": "uint256"
        },
        {
          "internalType": "address",
          "name": "dirBanco",
          "type": "address"
        }
      ],
      "name": "realizar_zkp",
      "outputs": [
        {
          "internalType": "bool",
          "name": "resultado",
          "type": "bool"
        }
      ],
      "stateMutability": "view",
      "type": "function"
    },
    {
      "inputs": [
        {
          "internalType": "string",
          "name": "_nombre",
          "type": "string"
        },
        {
          "internalType": "uint256",
          "name": "_nit",
          "type": "uint256"
        },
        {
          "internalType": "uint256",
          "name": "_clave",
          "type": "uint256"
        }
      ],
      "name": "registro_banco",
      "outputs": [],
      "stateMutability": "nonpayable",
      "type": "function"
    }
  ],
  "bytecode": "0x6080604052348015600f57600080fd5b50336000806101000a81548173ffffffffffffffffffffffffffffffffffffffff021916908373ffffffffffffffffffffffffffffffffffffffff1602179055506135ad8061005f6000396000f3fe6080604052600436106100c25760003560e01c80638ceac9d61161007f578063aa75686a11610059578063aa75686a146102c9578063af7ad33b1461030a578063cad9e35314610333578063fe5bf17414610370576100c2565b80638ceac9d6146102105780639d81c5281461024d578063a94e163e1461028a576100c2565b80633066a61d146100c75780635d039db9146101045780636993d5fa1461012d5780637c8efe561461016a57806385c410fb146101a7578063865bb4c2146101d0575b600080fd5b3480156100d357600080fd5b506100ee60048036038101906100e9919061140f565b61037a565b6040516100fb91906114bb565b60405180910390f35b34801561011057600080fd5b5061012b6004803603810190610126919061153b565b6103b7565b005b34801561013957600080fd5b50610154600480360381019061014f919061140f565b61057a565b6040516101619190611632565b60405180910390f35b34801561017657600080fd5b50610191600480360381019061018c919061140f565b61060b565b60405161019e91906114bb565b60405180910390f35b3480156101b357600080fd5b506101ce60048036038101906101c9919061164d565b61063e565b005b3480156101dc57600080fd5b506101f760048036038101906101f291906116ff565b61078a565b60405161020794939291906117cb565b60405180910390f35b34801561021c57600080fd5b506102376004803603810190610232919061140f565b61084f565b6040516102449190611826565b60405180910390f35b34801561025957600080fd5b50610274600480360381019061026f9190611841565b610882565b6040516102819190611632565b60405180910390f35b34801561029657600080fd5b506102b160048036038101906102ac91906118a8565b610a74565b6040516102c0939291906118fb565b60405180910390f35b3480156102d557600080fd5b506102f060048036038101906102eb9190611940565b610bd8565b604051610301959493929190611980565b60405180910390f35b34801561031657600080fd5b50610331600480360381019061032c91906119e8565b610dc3565b005b34801561033f57600080fd5b5061035a60048036038101906103559190611a8f565b610f25565b6040516103679190611c54565b60405180910390f35b6103786111a5565b005b60006003600083815260200190815260200160002060009054906101000a900473ffffffffffffffffffffffffffffffffffffffff169050919050565b60006040518060a001604052808a8a8080601f016020809104026020016040519081016040528093929190818152602001838380828437600081840152601f19601f82011690508083019250505050505050815260200188815260200187878080601f016020809104026020016040519081016040528093929190818152602001838380828437600081840152601f19601f82011690508083019250505050505050815260200185858080601f016020809104026020016040519081016040528093929190818152602001838380828437600081840152601f19601f820116905080830192505050505050508152602001838152509050600260003373ffffffffffffffffffffffffffffffffffffffff1673ffffffffffffffffffffffffffffffffffffffff168152602001908152602001600020819080600181540180825580915050600190039060005260206000209060050201600090919091909150600082015181600001908161052c9190611ea7565b5060208201518160010155604082015181600201908161054c9190611ea7565b5060608201518160030190816105629190611ea7565b50608082015181600401555050505050505050505050565b6000806004600084815260200190815260200160002060009054906101000a900473ffffffffffffffffffffffffffffffffffffffff169050600160008273ffffffffffffffffffffffffffffffffffffffff1673ffffffffffffffffffffffffffffffffffffffff16815260200190815260200160002060030160009054906101000a900460ff16915050919050565b60036020528060005260406000206000915054906101000a900473ffffffffffffffffffffffffffffffffffffffff1681565b604051806080016040528085858080601f016020809104026020016040519081016040528093929190818152602001838380828437600081840152601f19601f82011690508083019250505050505050815260200183815260200182815260200160001515815250600160003373ffffffffffffffffffffffffffffffffffffffff1673ffffffffffffffffffffffffffffffffffffffff16815260200190815260200160002060008201518160000190816106fa9190611ea7565b50602082015181600101556040820151816002015560608201518160030160006101000a81548160ff021916908315150217905550905050336004600084815260200190815260200160002060006101000a81548173ffffffffffffffffffffffffffffffffffffffff021916908373ffffffffffffffffffffffffffffffffffffffff16021790555050505050565b60016020528060005260406000206000915090508060000180546107ad90611cd4565b80601f01602080910402602001604051908101604052809291908181526020018280546107d990611cd4565b80156108265780601f106107fb57610100808354040283529160200191610826565b820191906000526020600020905b81548152906001019060200180831161080957829003601f168201915b5050505050908060010154908060020154908060030160009054906101000a900460ff16905084565b60046020528060005260406000206000915054906101000a900473ffffffffffffffffffffffffffffffffffffffff1681565b6000806003600086815260200190815260200160002060009054906101000a900473ffffffffffffffffffffffffffffffffffffffff169050600080600090505b600260008673ffffffffffffffffffffffffffffffffffffffff1673ffffffffffffffffffffffffffffffffffffffff168152602001908152602001600020805490508110156109e95787600260008773ffffffffffffffffffffffffffffffffffffffff1673ffffffffffffffffffffffffffffffffffffffff168152602001908152602001600020828154811061095f5761095e611f79565b5b906000526020600020906005020160010154036109dc57600260008673ffffffffffffffffffffffffffffffffffffffff1673ffffffffffffffffffffffffffffffffffffffff16815260200190815260200160002081815481106109c7576109c6611f79565b5b90600052602060002090600502016004015491505b80806001019150506108c3565b508173ffffffffffffffffffffffffffffffffffffffff1663c880dc578883886040518463ffffffff1660e01b8152600401610a2793929190611fa8565b602060405180830381865afa158015610a44573d6000803e3d6000fd5b505050506040513d601f19601f82011682018060405250810190610a68919061200b565b92505050949350505050565b60056020528260005260406000206020528160005260406000208181548110610a9c57600080fd5b90600052602060002090600302016000925092505050806000018054610ac190611cd4565b80601f0160208091040260200160405190810160405280929190818152602001828054610aed90611cd4565b8015610b3a5780601f10610b0f57610100808354040283529160200191610b3a565b820191906000526020600020905b815481529060010190602001808311610b1d57829003601f168201915b505050505090806001018054610b4f90611cd4565b80601f0160208091040260200160405190810160405280929190818152602001828054610b7b90611cd4565b8015610bc85780601f10610b9d57610100808354040283529160200191610bc8565b820191906000526020600020905b815481529060010190602001808311610bab57829003601f168201915b5050505050908060020154905083565b60026020528160005260406000208181548110610bf457600080fd5b906000526020600020906005020160009150915050806000018054610c1890611cd4565b80601f0160208091040260200160405190810160405280929190818152602001828054610c4490611cd4565b8015610c915780601f10610c6657610100808354040283529160200191610c91565b820191906000526020600020905b815481529060010190602001808311610c7457829003601f168201915b505050505090806001015490806002018054610cac90611cd4565b80601f0160208091040260200160405190810160405280929190818152602001828054610cd890611cd4565b8015610d255780601f10610cfa57610100808354040283529160200191610d25565b820191906000526020600020905b815481529060010190602001808311610d0857829003601f168201915b505050505090806003018054610d3a90611cd4565b80601f0160208091040260200160405190810160405280929190818152602001828054610d6690611cd4565b8015610db35780601f10610d8857610100808354040283529160200191610db3565b820191906000526020600020905b815481529060010190602001808311610d9657829003601f168201915b5050505050908060040154905085565b6000604051806060016040528087878080601f016020809104026020016040519081016040528093929190818152602001838380828437600081840152601f19601f82011690508083019250505050505050815260200185858080601f016020809104026020016040519081016040528093929190818152602001838380828437600081840152601f19601f820116905080830192505050505050508152602001838152509050600560003373ffffffffffffffffffffffffffffffffffffffff1673ffffffffffffffffffffffffffffffffffffffff16815260200190815260200160002060008881526020019081526020016000208190806001815401808255809150506001900390600052602060002090600302016000909190919091506000820151816000019081610ef99190611ea7565b506020820151816001019081610f0f9190611ea7565b5060408201518160020155505050505050505050565b606060006004600085815260200190815260200160002060009054906101000a900473ffffffffffffffffffffffffffffffffffffffff169050600160008273ffffffffffffffffffffffffffffffffffffffff1673ffffffffffffffffffffffffffffffffffffffff16815260200190815260200160002060030160009054906101000a900460ff161561119d57610fc085858584610882565b1561119c57600560008273ffffffffffffffffffffffffffffffffffffffff1673ffffffffffffffffffffffffffffffffffffffff1681526020019081526020016000206000868152602001908152602001600020805480602002602001604051908101604052809291908181526020016000905b82821015611195578382906000526020600020906003020160405180606001604052908160008201805461106890611cd4565b80601f016020809104026020016040519081016040528092919081815260200182805461109490611cd4565b80156110e15780601f106110b6576101008083540402835291602001916110e1565b820191906000526020600020905b8154815290600101906020018083116110c457829003601f168201915b505050505081526020016001820180546110fa90611cd4565b80601f016020809104026020016040519081016040528092919081815260200182805461112690611cd4565b80156111735780601f1061114857610100808354040283529160200191611173565b820191906000526020600020905b81548152906001019060200180831161115657829003601f168201915b5050505050815260200160028201548152505081526020019060010190611035565b5050505091505b5b509392505050565b601434146111e8576040517f08c379a00000000000000000000000000000000000000000000000000000000081526004016111df906120aa565b60405180910390fd5b6000600160003373ffffffffffffffffffffffffffffffffffffffff1673ffffffffffffffffffffffffffffffffffffffff168152602001908152602001600020600101549050600081600160003373ffffffffffffffffffffffffffffffffffffffff1673ffffffffffffffffffffffffffffffffffffffff16815260200190815260200160002060020154604051611281906113c2565b61128c9291906120ca565b604051809103906000f0801580156112a8573d6000803e3d6000fd5b509050806003600084815260200190815260200160002060006101000a81548173ffffffffffffffffffffffffffffffffffffffff021916908373ffffffffffffffffffffffffffffffffffffffff16021790555060018060003373ffffffffffffffffffffffffffffffffffffffff1673ffffffffffffffffffffffffffffffffffffffff16815260200190815260200160002060030160006101000a81548160ff02191690831515021790555060008054906101000a900473ffffffffffffffffffffffffffffffffffffffff1673ffffffffffffffffffffffffffffffffffffffff166108fc349081150290604051600060405180830381858888f193505050501580156113bd573d6000803e3d6000fd5b505050565b611484806120f483390190565b600080fd5b600080fd5b6000819050919050565b6113ec816113d9565b81146113f757600080fd5b50565b600081359050611409816113e3565b92915050565b600060208284031215611425576114246113cf565b5b6000611433848285016113fa565b91505092915050565b600073ffffffffffffffffffffffffffffffffffffffff82169050919050565b6000819050919050565b600061148161147c6114778461143c565b61145c565b61143c565b9050919050565b600061149382611466565b9050919050565b60006114a582611488565b9050919050565b6114b58161149a565b82525050565b60006020820190506114d060008301846114ac565b92915050565b600080fd5b600080fd5b600080fd5b60008083601f8401126114fb576114fa6114d6565b5b8235905067ffffffffffffffff811115611518576115176114db565b5b602083019150836001820283011115611534576115336114e0565b5b9250929050565b60008060008060008060008060a0898b03121561155b5761155a6113cf565b5b600089013567ffffffffffffffff811115611579576115786113d4565b5b6115858b828c016114e5565b985098505060206115988b828c016113fa565b965050604089013567ffffffffffffffff8111156115b9576115b86113d4565b5b6115c58b828c016114e5565b9550955050606089013567ffffffffffffffff8111156115e8576115e76113d4565b5b6115f48b828c016114e5565b935093505060806116078b828c016113fa565b9150509295985092959890939650565b60008115159050919050565b61162c81611617565b82525050565b60006020820190506116476000830184611623565b92915050565b60008060008060608587031215611667576116666113cf565b5b600085013567ffffffffffffffff811115611685576116846113d4565b5b611691878288016114e5565b945094505060206116a4878288016113fa565b92505060406116b5878288016113fa565b91505092959194509250565b60006116cc8261143c565b9050919050565b6116dc816116c1565b81146116e757600080fd5b50565b6000813590506116f9816116d3565b92915050565b600060208284031215611715576117146113cf565b5b6000611723848285016116ea565b91505092915050565b600081519050919050565b600082825260208201905092915050565b60005b8381101561176657808201518184015260208101905061174b565b60008484015250505050565b6000601f19601f8301169050919050565b600061178e8261172c565b6117988185611737565b93506117a8818560208601611748565b6117b181611772565b840191505092915050565b6117c5816113d9565b82525050565b600060808201905081810360008301526117e58187611783565b90506117f460208301866117bc565b61180160408301856117bc565b61180e6060830184611623565b95945050505050565b611820816116c1565b82525050565b600060208201905061183b6000830184611817565b92915050565b6000806000806080858703121561185b5761185a6113cf565b5b6000611869878288016113fa565b945050602061187a878288016113fa565b935050604061188b878288016113fa565b925050606061189c878288016116ea565b91505092959194509250565b6000806000606084860312156118c1576118c06113cf565b5b60006118cf868287016116ea565b93505060206118e0868287016113fa565b92505060406118f1868287016113fa565b9150509250925092565b600060608201905081810360008301526119158186611783565b905081810360208301526119298185611783565b905061193860408301846117bc565b949350505050565b60008060408385031215611957576119566113cf565b5b6000611965858286016116ea565b9250506020611976858286016113fa565b9150509250929050565b600060a082019050818103600083015261199a8188611783565b90506119a960208301876117bc565b81810360408301526119bb8186611783565b905081810360608301526119cf8185611783565b90506119de60808301846117bc565b9695505050505050565b60008060008060008060808789031215611a0557611a046113cf565b5b6000611a1389828a016113fa565b965050602087013567ffffffffffffffff811115611a3457611a336113d4565b5b611a4089828a016114e5565b9550955050604087013567ffffffffffffffff811115611a6357611a626113d4565b5b611a6f89828a016114e5565b93509350506060611a8289828a016113fa565b9150509295509295509295565b600080600060608486031215611aa857611aa76113cf565b5b6000611ab6868287016113fa565b9350506020611ac7868287016113fa565b9250506040611ad8868287016113fa565b9150509250925092565b600081519050919050565b600082825260208201905092915050565b6000819050602082019050919050565b600082825260208201905092915050565b6000611b2a8261172c565b611b348185611b0e565b9350611b44818560208601611748565b611b4d81611772565b840191505092915050565b611b61816113d9565b82525050565b60006060830160008301518482036000860152611b848282611b1f565b91505060208301518482036020860152611b9e8282611b1f565b9150506040830151611bb36040860182611b58565b508091505092915050565b6000611bca8383611b67565b905092915050565b6000602082019050919050565b6000611bea82611ae2565b611bf48185611aed565b935083602082028501611c0685611afe565b8060005b85811015611c425784840389528151611c238582611bbe565b9450611c2e83611bd2565b925060208a01995050600181019050611c0a565b50829750879550505050505092915050565b60006020820190508181036000830152611c6e8184611bdf565b905092915050565b7f4e487b7100000000000000000000000000000000000000000000000000000000600052604160045260246000fd5b7f4e487b7100000000000000000000000000000000000000000000000000000000600052602260045260246000fd5b60006002820490506001821680611cec57607f821691505b602082108103611cff57611cfe611ca5565b5b50919050565b60008190508160005260206000209050919050565b60006020601f8301049050919050565b600082821b905092915050565b600060088302611d677fffffffffffffffffffffffffffffffffffffffffffffffffffffffffffffffff82611d2a565b611d718683611d2a565b95508019841693508086168417925050509392505050565b6000611da4611d9f611d9a846113d9565b61145c565b6113d9565b9050919050565b6000819050919050565b611dbe83611d89565b611dd2611dca82611dab565b848454611d37565b825550505050565b600090565b611de7611dda565b611df2818484611db5565b505050565b5b81811015611e1657611e0b600082611ddf565b600181019050611df8565b5050565b601f821115611e5b57611e2c81611d05565b611e3584611d1a565b81016020851015611e44578190505b611e58611e5085611d1a565b830182611df7565b50505b505050565b600082821c905092915050565b6000611e7e60001984600802611e60565b1980831691505092915050565b6000611e978383611e6d565b9150826002028217905092915050565b611eb08261172c565b67ffffffffffffffff811115611ec957611ec8611c76565b5b611ed38254611cd4565b611ede828285611e1a565b600060209050601f831160018114611f115760008415611eff578287015190505b611f098582611e8b565b865550611f71565b601f198416611f1f86611d05565b60005b82811015611f4757848901518255600182019150602085019450602081019050611f22565b86831015611f645784890151611f60601f891682611e6d565b8355505b6001600288020188555050505b505050505050565b7f4e487b7100000000000000000000000000000000000000000000000000000000600052603260045260246000fd5b6000606082019050611fbd60008301866117bc565b611fca60208301856117bc565b611fd760408301846117bc565b949350505050565b611fe881611617565b8114611ff357600080fd5b50565b60008151905061200581611fdf565b92915050565b600060208284031215612021576120206113cf565b5b600061202f84828501611ff6565b91505092915050565b7f456c2070726563696f20706172612067656e6572617220756e61205a4b50206560008201527f7320646520323020455448000000000000000000000000000000000000000000602082015250565b6000612094602b83611737565b915061209f82612038565b604082019050919050565b600060208201905081810360008301526120c381612087565b9050919050565b60006040820190506120df60008301856117bc565b6120ec60208301846117bc565b939250505056fe608060405260405180604001604052807f1a2a3b6e2ba804a4d3466a5b9047b672da212172728e6fb903dda6771b25cbbc81526020017f108686857389327fd6b1872c112f3ff8daed6127eeba8d55103d6ebeab4db1e2815250600390600261006992919061028b565b50604051806040016040528060405180604001604052807f2e94b1fb1aafb2b2e7fb6776f3e50de2da86f19c844579629204c26d00d1a0f581526020017f2b4fe218a04bfafe9bc14f105fb31f59598664cf1bd25fd354697bfa6289bbf5815250815260200160405180604001604052807f2b23949fada2b6a6f499115a8ac5f1c3d455186df0f1353b7663c706627ae25d81526020017f076a8ba7e1c7d4551921f900598c7c57af8fef79fdc792f0ca4e9e2f3bdd4fd281525081525060059060026101379291906102cb565b5060405180604001604052807f2198f7f4ed785cf8a50a92310bc21b64e0b7acd3175cdd3dd8742110323c0ed581526020017f05227cbeb1683d376aa494f4f7584aa1b3756c5a5f7766c78fb8f0ecc0705636815250600990600261019d92919061028b565b503480156101aa57600080fd5b5060405161148438038061148483398181016040528101906101cc91906103b2565b81600081905550806001819055506040516101e69061031b565b604051809103906000f080158015610202573d6000803e3d6000fd5b50600c60006101000a81548173ffffffffffffffffffffffffffffffffffffffff021916908373ffffffffffffffffffffffffffffffffffffffff16021790555033600b60006101000a81548173ffffffffffffffffffffffffffffffffffffffff021916908373ffffffffffffffffffffffffffffffffffffffff16021790555050506103f2565b82600281019282156102ba579160200282015b828111156102b957825182559160200191906001019061029e565b5b5090506102c79190610328565b5090565b8260028002810192821561030a579160200282015b82811115610309578251829060026102f992919061028b565b50916020019190600201906102e0565b5b5090506103179190610345565b5090565b61073780610d4d83390190565b5b80821115610341576000816000905550600101610329565b5090565b5b80821115610365576000818161035c9190610369565b50600201610346565b5090565b506000815560010160009055565b600080fd5b6000819050919050565b61038f8161037c565b811461039a57600080fd5b50565b6000815190506103ac81610386565b92915050565b600080604083850312156103c9576103c8610377565b5b60006103d78582860161039d565b92505060206103e88582860161039d565b9150509250929050565b61094c806104016000396000f3fe6080604052600436106100345760003560e01c80635eb86fca14610039578063c880dc5714610076578063d19e6ebb146100b3575b600080fd5b34801561004557600080fd5b50610060600480360381019061005b9190610390565b6100cf565b60405161006d91906103df565b60405180910390f35b34801561008257600080fd5b5061009d600480360381019061009891906103fa565b6100e3565b6040516100aa9190610468565b60405180910390f35b6100cd60048036038101906100c89190610483565b6101ef565b005b60006100db83836102a5565b905092915050565b60008084905060008490506000849050600061010c6000548561010691906104df565b846102a5565b9050600c60009054906101000a900473ffffffffffffffffffffffffffffffffffffffff1673ffffffffffffffffffffffffffffffffffffffff16635fe8c13b60036005600960405180608001604052808781526020016000548b61017191906104df565b81526020018881526020016001548152506040518563ffffffff1660e01b81526004016101a19493929190610791565b602060405180830381865afa1580156101be573d6000803e3d6000fd5b505050506040513d601f19601f820116820180604052508101906101e29190610804565b9450505050509392505050565b600a3414610232576040517f08c379a0000000000000000000000000000000000000000000000000000000008152600401610229906108b4565b60405180910390fd5b80600181905550600b60009054906101000a900473ffffffffffffffffffffffffffffffffffffffff1673ffffffffffffffffffffffffffffffffffffffff166108fc349081150290604051600060405180830381858888f193505050501580156102a1573d6000803e3d6000fd5b5050565b6000808390506000839050600060015490506003836102c491906104df565b6003808584866102d491906104df565b6102de91906108d4565b6102e891906104df565b6102f291906108d4565b8284866102ff91906104df565b61030991906104df565b600386858761031891906104df565b61032291906108d4565b61032c91906104df565b61033691906104df565b61034091906104df565b61034a91906108d4565b935050505092915050565b600080fd5b6000819050919050565b61036d8161035a565b811461037857600080fd5b50565b60008135905061038a81610364565b92915050565b600080604083850312156103a7576103a6610355565b5b60006103b58582860161037b565b92505060206103c68582860161037b565b9150509250929050565b6103d98161035a565b82525050565b60006020820190506103f460008301846103d0565b92915050565b60008060006060848603121561041357610412610355565b5b60006104218682870161037b565b93505060206104328682870161037b565b92505060406104438682870161037b565b9150509250925092565b60008115159050919050565b6104628161044d565b82525050565b600060208201905061047d6000830184610459565b92915050565b60006020828403121561049957610498610355565b5b60006104a78482850161037b565b91505092915050565b7f4e487b7100000000000000000000000000000000000000000000000000000000600052601160045260246000fd5b60006104ea8261035a565b91506104f58361035a565b925082820190508082111561050d5761050c6104b0565b5b92915050565b600060029050919050565b600081905092915050565b6000819050919050565b61053c8161035a565b82525050565b600061054e8383610533565b60208301905092915050565b60008160001c9050919050565b6000819050919050565b600061058461057f8361055a565b610567565b9050919050565b60006105978254610571565b9050919050565b6000600182019050919050565b6105b481610513565b6105be818461051e565b92506105c982610529565b8060005b83811015610601576105de8261058b565b6105e88782610542565b96506105f38361059e565b9250506001810190506105cd565b505050505050565b600060029050919050565b600081905092915050565b6000819050919050565b600081905092915050565b61063d81610513565b6106478184610629565b925061065282610529565b8060005b8381101561068a576106678261058b565b6106718782610542565b965061067c8361059e565b925050600181019050610656565b505050505050565b600061069e8383610634565b60408301905092915050565b6000600282019050919050565b6106c081610609565b6106ca8184610614565b92506106d58261061f565b8060005b8381101561070557816106ec8782610692565b96506106f7836106aa565b9250506001810190506106d9565b505050505050565b600060049050919050565b600081905092915050565b6000819050919050565b6000602082019050919050565b6107438161070d565b61074d8184610718565b925061075882610723565b8060005b838110156107895781516107708782610542565b965061077b8361072d565b92505060018101905061075c565b505050505050565b6000610180820190506107a760008301876105ab565b6107b460408301866106b7565b6107c160c08301856105ab565b6107cf61010083018461073a565b95945050505050565b6107e18161044d565b81146107ec57600080fd5b50565b6000815190506107fe816107d8565b92915050565b60006020828403121561081a57610819610355565b5b6000610828848285016107ef565b91505092915050565b600082825260208201905092915050565b7f456c2076616c6f722064652065737461206f7065726163696f6e20657320646560008201527f2031302045544800000000000000000000000000000000000000000000000000602082015250565b600061089e602783610831565b91506108a982610842565b604082019050919050565b600060208201905081810360008301526108cd81610891565b9050919050565b60006108df8261035a565b91506108ea8361035a565b92508282026108f88161035a565b9150828204841483151761090f5761090e6104b0565b5b509291505056fea26469706673582212207db2545d27c4ca83a39bc94caae6a99be87afc7d5b59a4eaf76da45d4d72c60f64736f6c634300081a00336080604052348015600f57600080fd5b506107188061001f6000396000f3fe608060405234801561001057600080fd5b506004361061002b5760003560e01c80635fe8c13b14610030575b600080fd5b61004a60048036038101906100459190610643565b610060565b60405161005791906106c7565b60405180910390f35b600061057d565b7f30644e72e131a029b85045b68181585d2833e84879b9709143e1f593f00000018110610098576000805260206000f35b50565b600060405183815284602082015285604082015260408160608360076107d05a03fa9150816100ce576000805260206000f35b825160408201526020830151606082015260408360808360066107d05a03fa9150816100fe576000805260206000f35b505050505050565b600060808601600087017f1e87f974a86385ae5e6bcc63d046b45a70fcb38d83376d91821ef7e843a1bfc981527f0ea0f7c760484aac1ea5440d510ead26b56e311fdbe3d7de27a7c28640034af460208201526101a960008801357f1015c05bcde837b7ee03dfbfda7f6ee01dc0bbc2c08e55e5bfa648107218db5a7f2fdbe1ded26d3c8c5ec574c16c23d733c71b335314c7e815102280e36d77cc1f8461009b565b6101f960208801357f06189da5e3dcd5bd7364421927f56f39a02f6a1d0f738d12469e9a41d01ad2df7f128623aace631da559193ca07b3ef9da3ba20c45bac014190c69bd0a7475188b8461009b565b61024960408801357f2027ae03285c04e3e90e8184ea7dfb6387b39d793a8802c5b18432fd4e5472197f08258e6629376bca43b68e380bc96e627f88ca075edea2f3d73a6c00f21b41ae8461009b565b61029960608801357f28e23a33e865ae86ad208505b01934dc61efb9c58c752a998a716ef4474f4a587f2596d004e2c407270a3333a5386f1f46815faf818e5501d7f54b40267eb28a778461009b565b833582527f30644e72e131a029b85045b68181585d97816a916871ca8d3c208c16d87cfd4760208501357f30644e72e131a029b85045b68181585d97816a916871ca8d3c208c16d87cfd4703066020830152843560408301526020850135606083015260408501356080830152606085013560a08301527f114de35dc50cad62b29ea026cf28abd7008232018811f42894e92998dd36777660c08301527f0ec033a1ff45ca1c28a4d33a5bf6f60f94bbfaffd975a34074e63391ca69a6a960e08301527f0593146809489a45018ef8127007ad7609c93d3cbf63315338a00d4bce4a02026101008301527f29448b3b3f655d1bbd420fb784728db4dd86de21a58b2c6f153a7bfa248ab0a96101208301527f29aafae57422ea7cea6ddee2fd47fada99b2c496dd4faac47b08b5070626f1526101408301527f148f50df3bcbd9a41c5bb0a689bc6d870a11cee138619304b0e929ab28945bf4610160830152600088015161018083015260206000018801516101a08301527f198e9393920d483a7260bfb731fb5d25f1aa493335a9e71297e485b7aef312c26101c08301527f1800deef121f1e76426a00665e5c4479674322d4f75edadd46debd5cd992f6ed6101e08301527f090689d0585ff075ec9e99ad690c3395bc4b313370b38ef355acdadcd122975b6102008301527f12c85ea5db8c6deb4aab71808dcb408fe3d1e7690c43d37b4ce6cc0166fa7daa610220830152853561024083015260208601356102608301527f1fecf97d6fcd52d5a57d65d0af27cead56954a56be1facb0a85d21126593fecd6102808301527f11a15c808d51bbce83817023228846e7dbad533c53c2f981d09887c6b2541da66102a08301527f2e69ede1dcec1a55605f693a13908aed53445da2449ebfd1e78e56a24c932ff16102c08301527f276c9b7fed4802cea174217ccf7140225afff687b1e8fbbab2395b8c3499c1e86102e08301526020826103008460086107d05a03fa82518116935050505095945050505050565b60405161038081016040526105956000840135610067565b6105a26020840135610067565b6105af6040840135610067565b6105bc6060840135610067565b6105c9818486888a610106565b8060005260206000f35b600080fd5b600080fd5b6000819050826020600202820111156105f9576105f86105d8565b5b92915050565b60008190508260406002028201111561061b5761061a6105d8565b5b92915050565b60008190508260206004028201111561063d5761063c6105d8565b5b92915050565b600080600080610180858703121561065e5761065d6105d3565b5b600061066c878288016105dd565b945050604061067d878288016105ff565b93505060c061068e878288016105dd565b9250506101006106a087828801610621565b91505092959194509250565b60008115159050919050565b6106c1816106ac565b82525050565b60006020820190506106dc60008301846106b8565b9291505056fea2646970667358221220a45f5f96b0f462323288ecaa03898ff6c525304ef08d51f7b53e538382cb53e264736f6c634300081a0033a2646970667358221220616acc314b5404d2adc201695dc4cb41827f7e7622a8a6e071f57d3b8f407e2764736f6c634300081a0033",
  "linkReferences": {},
  "deployedLinkReferences": {}
}