{
  "_format": "hh-sol-artifact-1",
  "contractName": "Banco",
  "sourceName": "contracts/Banco.sol",
  "abi": [
    {
      "inputs": [
        {
          "internalType": "string",
          "name": "_nombre",
          "type": "string"
        },
        {
          "internalType": "uint256",
          "name": "_nit",
          "type": "uint256"
        },
        {
          "internalType": "uint256",
          "name": "_clave",
          "type": "uint256"
        }
      ],
      "stateMutability": "nonpayable",
      "type": "constructor"
    },
    {
      "inputs": [
        {
          "internalType": "address",
          "name": "dirCliente",
          "type": "address"
        },
        {
          "internalType": "string",
          "name": "_nombre",
          "type": "string"
        },
        {
          "internalType": "uint256",
          "name": "_documento",
          "type": "uint256"
        },
        {
          "internalType": "string",
          "name": "_nacimiento",
          "type": "string"
        },
        {
          "internalType": "string",
          "name": "_expedicion",
          "type": "string"
        },
        {
          "internalType": "uint256",
          "name": "_claveIngreso",
          "type": "uint256"
        }
      ],
      "name": "agregar_cliente",
      "outputs": [],
      "stateMutability": "nonpayable",
      "type": "function"
    },
    {
      "inputs": [
        {
          "internalType": "address",
          "name": "dirCliente",
          "type": "address"
        },
        {
          "internalType": "string",
          "name": "_numero",
          "type": "string"
        },
        {
          "internalType": "string",
          "name": "_tipo",
          "type": "string"
        },
        {
          "internalType": "uint256",
          "name": "_saldo",
          "type": "uint256"
        }
      ],
      "name": "agregar_producto",
      "outputs": [],
      "stateMutability": "nonpayable",
      "type": "function"
    },
    {
      "inputs": [
        {
          "internalType": "uint256",
          "name": "_a",
          "type": "uint256"
        },
        {
          "internalType": "uint256",
          "name": "_b",
          "type": "uint256"
        },
        {
          "internalType": "uint256",
          "name": "_c",
          "type": "uint256"
        }
      ],
      "name": "calcular_clave_secreta",
      "outputs": [
        {
          "internalType": "uint256",
          "name": "clave_sec",
          "type": "uint256"
        }
      ],
      "stateMutability": "pure",
      "type": "function"
    },
    {
      "inputs": [
        {
          "internalType": "address",
          "name": "",
          "type": "address"
        }
      ],
      "name": "clientes",
      "outputs": [
        {
          "internalType": "string",
          "name": "nombre",
          "type": "string"
        },
        {
          "internalType": "uint256",
          "name": "documento",
          "type": "uint256"
        },
        {
          "internalType": "string",
          "name": "nacimiento",
          "type": "string"
        },
        {
          "internalType": "string",
          "name": "expedicion",
          "type": "string"
        },
        {
          "internalType": "uint256",
          "name": "claveIngreso",
          "type": "uint256"
        }
      ],
      "stateMutability": "view",
      "type": "function"
    },
    {
      "inputs": [
        {
          "internalType": "uint256",
          "name": "",
          "type": "uint256"
        }
      ],
      "name": "direcciones",
      "outputs": [
        {
          "internalType": "address",
          "name": "",
          "type": "address"
        }
      ],
      "stateMutability": "view",
      "type": "function"
    },
    {
      "inputs": [
        {
          "internalType": "uint256",
          "name": "_docCliente",
          "type": "uint256"
        },
        {
          "internalType": "uint256",
          "name": "_claveCliente",
          "type": "uint256"
        }
      ],
      "name": "info_cliente",
      "outputs": [
        {
          "internalType": "string",
          "name": "nom",
          "type": "string"
        },
        {
          "internalType": "uint256",
          "name": "doc",
          "type": "uint256"
        },
        {
          "internalType": "string",
          "name": "nac",
          "type": "string"
        },
        {
          "internalType": "string",
          "name": "exp",
          "type": "string"
        }
      ],
      "stateMutability": "view",
      "type": "function"
    },
    {
      "inputs": [
        {
          "internalType": "uint256",
          "name": "_docCliente",
          "type": "uint256"
        },
        {
          "internalType": "uint256",
          "name": "_claveCliente",
          "type": "uint256"
        }
      ],
      "name": "info_productos",
      "outputs": [
        {
          "components": [
            {
              "internalType": "string",
              "name": "numero",
              "type": "string"
            },
            {
              "internalType": "string",
              "name": "tipo",
              "type": "string"
            },
            {
              "internalType": "uint256",
              "name": "saldo",
              "type": "uint256"
            }
          ],
          "internalType": "struct Banco.Producto[]",
          "name": "prods",
          "type": "tuple[]"
        }
      ],
      "stateMutability": "view",
      "type": "function"
    },
    {
      "inputs": [],
      "name": "nit",
      "outputs": [
        {
          "internalType": "uint256",
          "name": "",
          "type": "uint256"
        }
      ],
      "stateMutability": "view",
      "type": "function"
    },
    {
      "inputs": [
        {
          "internalType": "address",
          "name": "",
          "type": "address"
        },
        {
          "internalType": "uint256",
          "name": "",
          "type": "uint256"
        }
      ],
      "name": "productos",
      "outputs": [
        {
          "internalType": "string",
          "name": "numero",
          "type": "string"
        },
        {
          "internalType": "string",
          "name": "tipo",
          "type": "string"
        },
        {
          "internalType": "uint256",
          "name": "saldo",
          "type": "uint256"
        }
      ],
      "stateMutability": "view",
      "type": "function"
    },
    {
      "inputs": [],
      "name": "set_prueba",
      "outputs": [],
      "stateMutability": "nonpayable",
      "type": "function"
    }
  ],
  "bytecode": "0x608060405234801561001057600080fd5b5060405161351d38038061351d8339818101604052810190610032919061021e565b826000908161004191906104a4565b5081600181905550806002819055506000600360006101000a81548160ff021916908315150217905550505050610576565b6000604051905090565b600080fd5b600080fd5b600080fd5b600080fd5b6000601f19601f8301169050919050565b7f4e487b7100000000000000000000000000000000000000000000000000000000600052604160045260246000fd5b6100da82610091565b810181811067ffffffffffffffff821117156100f9576100f86100a2565b5b80604052505050565b600061010c610073565b905061011882826100d1565b919050565b600067ffffffffffffffff821115610138576101376100a2565b5b61014182610091565b9050602081019050919050565b60005b8381101561016c578082015181840152602081019050610151565b60008484015250505050565b600061018b6101868461011d565b610102565b9050828152602081018484840111156101a7576101a661008c565b5b6101b284828561014e565b509392505050565b600082601f8301126101cf576101ce610087565b5b81516101df848260208601610178565b91505092915050565b6000819050919050565b6101fb816101e8565b811461020657600080fd5b50565b600081519050610218816101f2565b92915050565b6000806000606084860312156102375761023661007d565b5b600084015167ffffffffffffffff81111561025557610254610082565b5b610261868287016101ba565b935050602061027286828701610209565b925050604061028386828701610209565b9150509250925092565b600081519050919050565b7f4e487b7100000000000000000000000000000000000000000000000000000000600052602260045260246000fd5b600060028204905060018216806102df57607f821691505b6020821081036102f2576102f1610298565b5b50919050565b60008190508160005260206000209050919050565b60006020601f8301049050919050565b600082821b905092915050565b60006008830261035a7fffffffffffffffffffffffffffffffffffffffffffffffffffffffffffffffff8261031d565b610364868361031d565b95508019841693508086168417925050509392505050565b6000819050919050565b60006103a161039c610397846101e8565b61037c565b6101e8565b9050919050565b6000819050919050565b6103bb83610386565b6103cf6103c7826103a8565b84845461032a565b825550505050565b600090565b6103e46103d7565b6103ef8184846103b2565b505050565b5b81811015610413576104086000826103dc565b6001810190506103f5565b5050565b601f82111561045857610429816102f8565b6104328461030d565b81016020851015610441578190505b61045561044d8561030d565b8301826103f4565b50505b505050565b600082821c905092915050565b600061047b6000198460080261045d565b1980831691505092915050565b6000610494838361046a565b9150826002028217905092915050565b6104ad8261028d565b67ffffffffffffffff8111156104c6576104c56100a2565b5b6104d082546102c7565b6104db828285610417565b600060209050601f83116001811461050e57600084156104fc578287015190505b6105068582610488565b86555061056e565b601f19841661051c866102f8565b60005b828110156105445784890151825560018201915060208501945060208101905061051f565b86831015610561578489015161055d601f89168261046a565b8355505b6001600288020188555050505b505050505050565b612f98806105856000396000f3fe608060405234801561001057600080fd5b506004361061009e5760003560e01c806374b233491161006657806374b233491461018357806377e4d4e4146101b75780639bdcb32a146101c1578063a88ac570146101dd578063ac224ce1146102105761009e565b806319936caf146100a35780632a582142146100c1578063547cbcad146100f35780635f1c626314610123578063740e7f9414610153575b600080fd5b6100ab61022c565b6040516100b891906110c2565b60405180910390f35b6100db60048036038101906100d69190611171565b610232565b6040516100ea93929190611241565b60405180910390f35b61010d60048036038101906101089190611286565b610389565b60405161011a91906112c2565b60405180910390f35b61013d600480360381019061013891906112dd565b6103bc565b60405161014a919061148f565b60405180910390f35b61016d600480360381019061016891906114b1565b61066a565b60405161017a91906110c2565b60405180910390f35b61019d60048036038101906101989190611504565b610719565b6040516101ae959493929190611531565b60405180910390f35b6101bf6108e7565b005b6101db60048036038101906101d691906115fe565b61097e565b005b6101f760048036038101906101f291906112dd565b610acf565b60405161020794939291906116a5565b60405180910390f35b61022a600480360381019061022591906116ff565b610f00565b005b60015481565b6005602052816000526040600020818154811061024e57600080fd5b9060005260206000209060030201600091509150508060000180546102729061181d565b80601f016020809104026020016040519081016040528092919081815260200182805461029e9061181d565b80156102eb5780601f106102c0576101008083540402835291602001916102eb565b820191906000526020600020905b8154815290600101906020018083116102ce57829003601f168201915b5050505050908060010180546103009061181d565b80601f016020809104026020016040519081016040528092919081815260200182805461032c9061181d565b80156103795780601f1061034e57610100808354040283529160200191610379565b820191906000526020600020905b81548152906001019060200180831161035c57829003601f168201915b5050505050908060020154905083565b60066020528060005260406000206000915054906101000a900473ffffffffffffffffffffffffffffffffffffffff1681565b6060600360009054906101000a900460ff16156106635760006103ef600154856103e6919061187d565b8460025461066a565b9050600360019054906101000a900473ffffffffffffffffffffffffffffffffffffffff1673ffffffffffffffffffffffffffffffffffffffff166303ba86db8286866040518463ffffffff1660e01b8152600401610450939291906118b1565b602060405180830381865afa15801561046d573d6000803e3d6000fd5b505050506040513d601f19601f820116820180604052508101906104919190611920565b1561066157600560003373ffffffffffffffffffffffffffffffffffffffff1673ffffffffffffffffffffffffffffffffffffffff168152602001908152602001600020805480602002602001604051908101604052809291908181526020016000905b8282101561065557838290600052602060002090600302016040518060600160405290816000820180546105289061181d565b80601f01602080910402602001604051908101604052809291908181526020018280546105549061181d565b80156105a15780601f10610576576101008083540402835291602001916105a1565b820191906000526020600020905b81548152906001019060200180831161058457829003601f168201915b505050505081526020016001820180546105ba9061181d565b80601f01602080910402602001604051908101604052809291908181526020018280546105e69061181d565b80156106335780601f1061060857610100808354040283529160200191610633565b820191906000526020600020905b81548152906001019060200180831161061657829003601f168201915b50505050508152602001600282015481525050815260200190600101906104f5565b50505050915050610664565b505b5b92915050565b60008084905060008490506000849050600383610687919061187d565b600380858486610697919061187d565b6106a1919061194d565b6106ab919061187d565b6106b5919061194d565b8284866106c2919061187d565b6106cc919061187d565b60038685876106db919061187d565b6106e5919061194d565b6106ef919061187d565b6106f9919061187d565b610703919061187d565b61070d919061194d565b93505050509392505050565b600460205280600052604060002060009150905080600001805461073c9061181d565b80601f01602080910402602001604051908101604052809291908181526020018280546107689061181d565b80156107b55780601f1061078a576101008083540402835291602001916107b5565b820191906000526020600020905b81548152906001019060200180831161079857829003601f168201915b5050505050908060010154908060020180546107d09061181d565b80601f01602080910402602001604051908101604052809291908181526020018280546107fc9061181d565b80156108495780601f1061081e57610100808354040283529160200191610849565b820191906000526020600020905b81548152906001019060200180831161082c57829003601f168201915b50505050509080600301805461085e9061181d565b80601f016020809104026020016040519081016040528092919081815260200182805461088a9061181d565b80156108d75780601f106108ac576101008083540402835291602001916108d7565b820191906000526020600020905b8154815290600101906020018083116108ba57829003601f168201915b5050505050908060040154905085565b6001546002546040516108f99061109c565b61090492919061198f565b604051809103906000f080158015610920573d6000803e3d6000fd5b50600360016101000a81548173ffffffffffffffffffffffffffffffffffffffff021916908373ffffffffffffffffffffffffffffffffffffffff1602179055506001600360006101000a81548160ff021916908315150217905550565b6000604051806060016040528087878080601f016020809104026020016040519081016040528093929190818152602001838380828437600081840152601f19601f82011690508083019250505050505050815260200185858080601f016020809104026020016040519081016040528093929190818152602001838380828437600081840152601f19601f820116905080830192505050505050508152602001838152509050600560008873ffffffffffffffffffffffffffffffffffffffff1673ffffffffffffffffffffffffffffffffffffffff1681526020019081526020016000208190806001815401808255809150506001900390600052602060002090600302016000909190919091506000820151816000019081610aa39190611b93565b506020820151816001019081610ab99190611b93565b5060408201518160020155505050505050505050565b60606000606080600360009054906101000a900460ff1615610eb2576000610b0760015488610afe919061187d565b8760025461066a565b9050600360019054906101000a900473ffffffffffffffffffffffffffffffffffffffff1673ffffffffffffffffffffffffffffffffffffffff166303ba86db8289896040518463ffffffff1660e01b8152600401610b68939291906118b1565b602060405180830381865afa158015610b85573d6000803e3d6000fd5b505050506040513d601f19601f82011682018060405250810190610ba99190611920565b15610e6957600460003373ffffffffffffffffffffffffffffffffffffffff1673ffffffffffffffffffffffffffffffffffffffff168152602001908152602001600020600001600460003373ffffffffffffffffffffffffffffffffffffffff1673ffffffffffffffffffffffffffffffffffffffff16815260200190815260200160002060010154600460003373ffffffffffffffffffffffffffffffffffffffff1673ffffffffffffffffffffffffffffffffffffffff168152602001908152602001600020600201600460003373ffffffffffffffffffffffffffffffffffffffff1673ffffffffffffffffffffffffffffffffffffffff168152602001908152602001600020600301838054610cc39061181d565b80601f0160208091040260200160405190810160405280929190818152602001828054610cef9061181d565b8015610d3c5780601f10610d1157610100808354040283529160200191610d3c565b820191906000526020600020905b815481529060010190602001808311610d1f57829003601f168201915b50505050509350818054610d4f9061181d565b80601f0160208091040260200160405190810160405280929190818152602001828054610d7b9061181d565b8015610dc85780601f10610d9d57610100808354040283529160200191610dc8565b820191906000526020600020905b815481529060010190602001808311610dab57829003601f168201915b50505050509150808054610ddb9061181d565b80601f0160208091040260200160405190810160405280929190818152602001828054610e079061181d565b8015610e545780601f10610e2957610100808354040283529160200191610e54565b820191906000526020600020905b815481529060010190602001808311610e3757829003601f168201915b50505050509050945094509450945050610ef7565b80604051806060016040528060278152602001612f3c60279139906040518060200160405280600081525060405180602001604052806000815250945094509450945050610ef7565b60006040518060600160405280602c8152602001612f10602c913990604051806020016040528060008152506040518060200160405280600081525093509350935093505b92959194509250565b60006040518060a001604052808a8a8080601f016020809104026020016040519081016040528093929190818152602001838380828437600081840152601f19601f82011690508083019250505050505050815260200188815260200187878080601f016020809104026020016040519081016040528093929190818152602001838380828437600081840152601f19601f82011690508083019250505050505050815260200185858080601f016020809104026020016040519081016040528093929190818152602001838380828437600081840152601f19601f82011690508083019250505050505050815260200183815250905080600460008c73ffffffffffffffffffffffffffffffffffffffff1673ffffffffffffffffffffffffffffffffffffffff168152602001908152602001600020600082015181600001908161104c9190611b93565b5060208201518160010155604082015181600201908161106c9190611b93565b5060608201518160030190816110829190611b93565b506080820151816004015590505050505050505050505050565b6112aa80611c6683390190565b6000819050919050565b6110bc816110a9565b82525050565b60006020820190506110d760008301846110b3565b92915050565b600080fd5b600080fd5b600073ffffffffffffffffffffffffffffffffffffffff82169050919050565b6000611112826110e7565b9050919050565b61112281611107565b811461112d57600080fd5b50565b60008135905061113f81611119565b92915050565b61114e816110a9565b811461115957600080fd5b50565b60008135905061116b81611145565b92915050565b60008060408385031215611188576111876110dd565b5b600061119685828601611130565b92505060206111a78582860161115c565b9150509250929050565b600081519050919050565b600082825260208201905092915050565b60005b838110156111eb5780820151818401526020810190506111d0565b60008484015250505050565b6000601f19601f8301169050919050565b6000611213826111b1565b61121d81856111bc565b935061122d8185602086016111cd565b611236816111f7565b840191505092915050565b6000606082019050818103600083015261125b8186611208565b9050818103602083015261126f8185611208565b905061127e60408301846110b3565b949350505050565b60006020828403121561129c5761129b6110dd565b5b60006112aa8482850161115c565b91505092915050565b6112bc81611107565b82525050565b60006020820190506112d760008301846112b3565b92915050565b600080604083850312156112f4576112f36110dd565b5b60006113028582860161115c565b92505060206113138582860161115c565b9150509250929050565b600081519050919050565b600082825260208201905092915050565b6000819050602082019050919050565b600082825260208201905092915050565b6000611365826111b1565b61136f8185611349565b935061137f8185602086016111cd565b611388816111f7565b840191505092915050565b61139c816110a9565b82525050565b600060608301600083015184820360008601526113bf828261135a565b915050602083015184820360208601526113d9828261135a565b91505060408301516113ee6040860182611393565b508091505092915050565b600061140583836113a2565b905092915050565b6000602082019050919050565b60006114258261131d565b61142f8185611328565b93508360208202850161144185611339565b8060005b8581101561147d578484038952815161145e85826113f9565b94506114698361140d565b925060208a01995050600181019050611445565b50829750879550505050505092915050565b600060208201905081810360008301526114a9818461141a565b905092915050565b6000806000606084860312156114ca576114c96110dd565b5b60006114d88682870161115c565b93505060206114e98682870161115c565b92505060406114fa8682870161115c565b9150509250925092565b60006020828403121561151a576115196110dd565b5b600061152884828501611130565b91505092915050565b600060a082019050818103600083015261154b8188611208565b905061155a60208301876110b3565b818103604083015261156c8186611208565b905081810360608301526115808185611208565b905061158f60808301846110b3565b9695505050505050565b600080fd5b600080fd5b600080fd5b60008083601f8401126115be576115bd611599565b5b8235905067ffffffffffffffff8111156115db576115da61159e565b5b6020830191508360018202830111156115f7576115f66115a3565b5b9250929050565b6000806000806000806080878903121561161b5761161a6110dd565b5b600061162989828a01611130565b965050602087013567ffffffffffffffff81111561164a576116496110e2565b5b61165689828a016115a8565b9550955050604087013567ffffffffffffffff811115611679576116786110e2565b5b61168589828a016115a8565b9350935050606061169889828a0161115c565b9150509295509295509295565b600060808201905081810360008301526116bf8187611208565b90506116ce60208301866110b3565b81810360408301526116e08185611208565b905081810360608301526116f48184611208565b905095945050505050565b600080600080600080600080600060c08a8c031215611721576117206110dd565b5b600061172f8c828d01611130565b99505060208a013567ffffffffffffffff8111156117505761174f6110e2565b5b61175c8c828d016115a8565b9850985050604061176f8c828d0161115c565b96505060608a013567ffffffffffffffff8111156117905761178f6110e2565b5b61179c8c828d016115a8565b955095505060808a013567ffffffffffffffff8111156117bf576117be6110e2565b5b6117cb8c828d016115a8565b935093505060a06117de8c828d0161115c565b9150509295985092959850929598565b7f4e487b7100000000000000000000000000000000000000000000000000000000600052602260045260246000fd5b6000600282049050600182168061183557607f821691505b602082108103611848576118476117ee565b5b50919050565b7f4e487b7100000000000000000000000000000000000000000000000000000000600052601160045260246000fd5b6000611888826110a9565b9150611893836110a9565b92508282019050808211156118ab576118aa61184e565b5b92915050565b60006060820190506118c660008301866110b3565b6118d360208301856110b3565b6118e060408301846110b3565b949350505050565b60008115159050919050565b6118fd816118e8565b811461190857600080fd5b50565b60008151905061191a816118f4565b92915050565b600060208284031215611936576119356110dd565b5b60006119448482850161190b565b91505092915050565b6000611958826110a9565b9150611963836110a9565b9250828202611971816110a9565b915082820484148315176119885761198761184e565b5b5092915050565b60006040820190506119a460008301856110b3565b6119b160208301846110b3565b9392505050565b7f4e487b7100000000000000000000000000000000000000000000000000000000600052604160045260246000fd5b60008190508160005260206000209050919050565b60006020601f8301049050919050565b600082821b905092915050565b600060088302611a497fffffffffffffffffffffffffffffffffffffffffffffffffffffffffffffffff82611a0c565b611a538683611a0c565b95508019841693508086168417925050509392505050565b6000819050919050565b6000611a90611a8b611a86846110a9565b611a6b565b6110a9565b9050919050565b6000819050919050565b611aaa83611a75565b611abe611ab682611a97565b848454611a19565b825550505050565b600090565b611ad3611ac6565b611ade818484611aa1565b505050565b5b81811015611b0257611af7600082611acb565b600181019050611ae4565b5050565b601f821115611b4757611b18816119e7565b611b21846119fc565b81016020851015611b30578190505b611b44611b3c856119fc565b830182611ae3565b50505b505050565b600082821c905092915050565b6000611b6a60001984600802611b4c565b1980831691505092915050565b6000611b838383611b59565b9150826002028217905092915050565b611b9c826111b1565b67ffffffffffffffff811115611bb557611bb46119b8565b5b611bbf825461181d565b611bca828285611b06565b600060209050601f831160018114611bfd5760008415611beb578287015190505b611bf58582611b77565b865550611c5d565b601f198416611c0b866119e7565b60005b82811015611c3357848901518255600182019150602085019450602081019050611c0e565b86831015611c505784890151611c4c601f891682611b59565b8355505b6001600288020188555050505b50505050505056fe608060405260405180604001604052807f1a2a3b6e2ba804a4d3466a5b9047b672da212172728e6fb903dda6771b25cbbc81526020017f108686857389327fd6b1872c112f3ff8daed6127eeba8d55103d6ebeab4db1e2815250600290600261006992919061028b565b50604051806040016040528060405180604001604052807f2e94b1fb1aafb2b2e7fb6776f3e50de2da86f19c844579629204c26d00d1a0f581526020017f2b4fe218a04bfafe9bc14f105fb31f59598664cf1bd25fd354697bfa6289bbf5815250815260200160405180604001604052807f2b23949fada2b6a6f499115a8ac5f1c3d455186df0f1353b7663c706627ae25d81526020017f076a8ba7e1c7d4551921f900598c7c57af8fef79fdc792f0ca4e9e2f3bdd4fd281525081525060049060026101379291906102cb565b5060405180604001604052807f2198f7f4ed785cf8a50a92310bc21b64e0b7acd3175cdd3dd8742110323c0ed581526020017f05227cbeb1683d376aa494f4f7584aa1b3756c5a5f7766c78fb8f0ecc0705636815250600890600261019d92919061028b565b503480156101aa57600080fd5b506040516112aa3803806112aa83398181016040528101906101cc91906103b2565b816000819055508060018190555033600a60006101000a81548173ffffffffffffffffffffffffffffffffffffffff021916908373ffffffffffffffffffffffffffffffffffffffff1602179055506040516102279061031b565b604051809103906000f080158015610243573d6000803e3d6000fd5b50600b60006101000a81548173ffffffffffffffffffffffffffffffffffffffff021916908373ffffffffffffffffffffffffffffffffffffffff16021790555050506103f2565b82600281019282156102ba579160200282015b828111156102b957825182559160200191906001019061029e565b5b5090506102c79190610328565b5090565b8260028002810192821561030a579160200282015b82811115610309578251829060026102f992919061028b565b50916020019190600201906102e0565b5b5090506103179190610345565b5090565b61073780610b7383390190565b5b80821115610341576000816000905550600101610329565b5090565b5b80821115610365576000818161035c9190610369565b50600201610346565b5090565b506000815560010160009055565b600080fd5b6000819050919050565b61038f8161037c565b811461039a57600080fd5b50565b6000815190506103ac81610386565b92915050565b600080604083850312156103c9576103c8610377565b5b60006103d78582860161039d565b92505060206103e88582860161039d565b9150509250929050565b610772806104016000396000f3fe6080604052600436106100295760003560e01c806303ba86db1461002e578063d19e6ebb1461006b575b600080fd5b34801561003a57600080fd5b5061005560048036038101906100509190610262565b610087565b60405161006291906102d0565b60405180910390f35b610085600480360381019061008091906102eb565b610171565b005b6000808390506000839050600b60009054906101000a900473ffffffffffffffffffffffffffffffffffffffff1673ffffffffffffffffffffffffffffffffffffffff16635fe8c13b60026004600860405180608001604052808c8152602001886000546100f59190610347565b81526020018781526020016001548152506040518563ffffffff1660e01b815260040161012594939291906105f9565b602060405180830381865afa158015610142573d6000803e3d6000fd5b505050506040513d601f19601f82011682018060405250810190610166919061066c565b925050509392505050565b600a34146101b4576040517f08c379a00000000000000000000000000000000000000000000000000000000081526004016101ab9061071c565b60405180910390fd5b80600181905550600a60009054906101000a900473ffffffffffffffffffffffffffffffffffffffff1673ffffffffffffffffffffffffffffffffffffffff166108fc349081150290604051600060405180830381858888f19350505050158015610223573d6000803e3d6000fd5b5050565b600080fd5b6000819050919050565b61023f8161022c565b811461024a57600080fd5b50565b60008135905061025c81610236565b92915050565b60008060006060848603121561027b5761027a610227565b5b60006102898682870161024d565b935050602061029a8682870161024d565b92505060406102ab8682870161024d565b9150509250925092565b60008115159050919050565b6102ca816102b5565b82525050565b60006020820190506102e560008301846102c1565b92915050565b60006020828403121561030157610300610227565b5b600061030f8482850161024d565b91505092915050565b7f4e487b7100000000000000000000000000000000000000000000000000000000600052601160045260246000fd5b60006103528261022c565b915061035d8361022c565b925082820190508082111561037557610374610318565b5b92915050565b600060029050919050565b600081905092915050565b6000819050919050565b6103a48161022c565b82525050565b60006103b6838361039b565b60208301905092915050565b60008160001c9050919050565b6000819050919050565b60006103ec6103e7836103c2565b6103cf565b9050919050565b60006103ff82546103d9565b9050919050565b6000600182019050919050565b61041c8161037b565b6104268184610386565b925061043182610391565b8060005b8381101561046957610446826103f3565b61045087826103aa565b965061045b83610406565b925050600181019050610435565b505050505050565b600060029050919050565b600081905092915050565b6000819050919050565b600081905092915050565b6104a58161037b565b6104af8184610491565b92506104ba82610391565b8060005b838110156104f2576104cf826103f3565b6104d987826103aa565b96506104e483610406565b9250506001810190506104be565b505050505050565b6000610506838361049c565b60408301905092915050565b6000600282019050919050565b61052881610471565b610532818461047c565b925061053d82610487565b8060005b8381101561056d578161055487826104fa565b965061055f83610512565b925050600181019050610541565b505050505050565b600060049050919050565b600081905092915050565b6000819050919050565b6000602082019050919050565b6105ab81610575565b6105b58184610580565b92506105c08261058b565b8060005b838110156105f15781516105d887826103aa565b96506105e383610595565b9250506001810190506105c4565b505050505050565b60006101808201905061060f6000830187610413565b61061c604083018661051f565b61062960c0830185610413565b6106376101008301846105a2565b95945050505050565b610649816102b5565b811461065457600080fd5b50565b60008151905061066681610640565b92915050565b60006020828403121561068257610681610227565b5b600061069084828501610657565b91505092915050565b600082825260208201905092915050565b7f456c2076616c6f722064652065737461206f7065726163696f6e20657320646560008201527f2031302045544800000000000000000000000000000000000000000000000000602082015250565b6000610706602783610699565b9150610711826106aa565b604082019050919050565b60006020820190508181036000830152610735816106f9565b905091905056fea26469706673582212209fb3d2475de7fbe5e34c461e8e08a1be125049dd819839fa5bfac13f97ce36c664736f6c634300081a00336080604052348015600f57600080fd5b506107188061001f6000396000f3fe608060405234801561001057600080fd5b506004361061002b5760003560e01c80635fe8c13b14610030575b600080fd5b61004a60048036038101906100459190610643565b610060565b60405161005791906106c7565b60405180910390f35b600061057d565b7f30644e72e131a029b85045b68181585d2833e84879b9709143e1f593f00000018110610098576000805260206000f35b50565b600060405183815284602082015285604082015260408160608360076107d05a03fa9150816100ce576000805260206000f35b825160408201526020830151606082015260408360808360066107d05a03fa9150816100fe576000805260206000f35b505050505050565b600060808601600087017f1e87f974a86385ae5e6bcc63d046b45a70fcb38d83376d91821ef7e843a1bfc981527f0ea0f7c760484aac1ea5440d510ead26b56e311fdbe3d7de27a7c28640034af460208201526101a960008801357f1015c05bcde837b7ee03dfbfda7f6ee01dc0bbc2c08e55e5bfa648107218db5a7f2fdbe1ded26d3c8c5ec574c16c23d733c71b335314c7e815102280e36d77cc1f8461009b565b6101f960208801357f06189da5e3dcd5bd7364421927f56f39a02f6a1d0f738d12469e9a41d01ad2df7f128623aace631da559193ca07b3ef9da3ba20c45bac014190c69bd0a7475188b8461009b565b61024960408801357f2027ae03285c04e3e90e8184ea7dfb6387b39d793a8802c5b18432fd4e5472197f08258e6629376bca43b68e380bc96e627f88ca075edea2f3d73a6c00f21b41ae8461009b565b61029960608801357f28e23a33e865ae86ad208505b01934dc61efb9c58c752a998a716ef4474f4a587f2596d004e2c407270a3333a5386f1f46815faf818e5501d7f54b40267eb28a778461009b565b833582527f30644e72e131a029b85045b68181585d97816a916871ca8d3c208c16d87cfd4760208501357f30644e72e131a029b85045b68181585d97816a916871ca8d3c208c16d87cfd4703066020830152843560408301526020850135606083015260408501356080830152606085013560a08301527f114de35dc50cad62b29ea026cf28abd7008232018811f42894e92998dd36777660c08301527f0ec033a1ff45ca1c28a4d33a5bf6f60f94bbfaffd975a34074e63391ca69a6a960e08301527f0593146809489a45018ef8127007ad7609c93d3cbf63315338a00d4bce4a02026101008301527f29448b3b3f655d1bbd420fb784728db4dd86de21a58b2c6f153a7bfa248ab0a96101208301527f29aafae57422ea7cea6ddee2fd47fada99b2c496dd4faac47b08b5070626f1526101408301527f148f50df3bcbd9a41c5bb0a689bc6d870a11cee138619304b0e929ab28945bf4610160830152600088015161018083015260206000018801516101a08301527f198e9393920d483a7260bfb731fb5d25f1aa493335a9e71297e485b7aef312c26101c08301527f1800deef121f1e76426a00665e5c4479674322d4f75edadd46debd5cd992f6ed6101e08301527f090689d0585ff075ec9e99ad690c3395bc4b313370b38ef355acdadcd122975b6102008301527f12c85ea5db8c6deb4aab71808dcb408fe3d1e7690c43d37b4ce6cc0166fa7daa610220830152853561024083015260208601356102608301527f1fecf97d6fcd52d5a57d65d0af27cead56954a56be1facb0a85d21126593fecd6102808301527f11a15c808d51bbce83817023228846e7dbad533c53c2f981d09887c6b2541da66102a08301527f2e69ede1dcec1a55605f693a13908aed53445da2449ebfd1e78e56a24c932ff16102c08301527f276c9b7fed4802cea174217ccf7140225afff687b1e8fbbab2395b8c3499c1e86102e08301526020826103008460086107d05a03fa82518116935050505095945050505050565b60405161038081016040526105956000840135610067565b6105a26020840135610067565b6105af6040840135610067565b6105bc6060840135610067565b6105c9818486888a610106565b8060005260206000f35b600080fd5b600080fd5b6000819050826020600202820111156105f9576105f86105d8565b5b92915050565b60008190508260406002028201111561061b5761061a6105d8565b5b92915050565b60008190508260206004028201111561063d5761063c6105d8565b5b92915050565b600080600080610180858703121561065e5761065d6105d3565b5b600061066c878288016105dd565b945050604061067d878288016105ff565b93505060c061068e878288016105dd565b9250506101006106a087828801610621565b91505092959194509250565b60008115159050919050565b6106c1816106ac565b82525050565b60006020820190506106dc60008301846106b8565b9291505056fea2646970667358221220a45f5f96b0f462323288ecaa03898ff6c525304ef08d51f7b53e538382cb53e264736f6c634300081a0033456c2062616e636f2061756e206e6f20686120646573706c656761646f20756e61205a4b502070726f706961546865205a4b50206973206e6f742079657420617070726f766564206279207468652062616e6ba2646970667358221220229efaef2e7881028be056625ff97217addf8d1c8044a9e71f6d3e9d3831ee5364736f6c634300081a0033",
  "linkReferences": {},
  "deployedLinkReferences": {}
}