{
  "_format": "hh-sol-artifact-1",
  "contractName": "Banco",
  "sourceName": "contracts/Banco.sol",
  "abi": [
    {
      "inputs": [],
      "stateMutability": "nonpayable",
      "type": "constructor"
    },
    {
      "inputs": [
        {
          "internalType": "string",
          "name": "_nombre",
          "type": "string"
        },
        {
          "internalType": "uint256",
          "name": "_documento",
          "type": "uint256"
        },
        {
          "internalType": "string",
          "name": "_nacimiento",
          "type": "string"
        },
        {
          "internalType": "string",
          "name": "_expedicion",
          "type": "string"
        },
        {
          "internalType": "uint256",
          "name": "_claveIngreso",
          "type": "uint256"
        }
      ],
      "name": "agregar_cliente",
      "outputs": [],
      "stateMutability": "nonpayable",
      "type": "function"
    },
    {
      "inputs": [
        {
          "internalType": "uint256",
          "name": "_cedula",
          "type": "uint256"
        },
        {
          "internalType": "string",
          "name": "_numero",
          "type": "string"
        },
        {
          "internalType": "string",
          "name": "_tipo",
          "type": "string"
        },
        {
          "internalType": "uint256",
          "name": "_saldo",
          "type": "uint256"
        }
      ],
      "name": "agregar_producto_cliente",
      "outputs": [],
      "stateMutability": "nonpayable",
      "type": "function"
    },
    {
      "inputs": [
        {
          "internalType": "address",
          "name": "",
          "type": "address"
        }
      ],
      "name": "bancos",
      "outputs": [
        {
          "internalType": "string",
          "name": "nombre",
          "type": "string"
        },
        {
          "internalType": "uint256",
          "name": "nit",
          "type": "uint256"
        },
        {
          "internalType": "uint256",
          "name": "clave",
          "type": "uint256"
        },
        {
          "internalType": "bool",
          "name": "pruebaGenerada",
          "type": "bool"
        }
      ],
      "stateMutability": "view",
      "type": "function"
    },
    {
      "inputs": [
        {
          "internalType": "address",
          "name": "",
          "type": "address"
        },
        {
          "internalType": "uint256",
          "name": "",
          "type": "uint256"
        }
      ],
      "name": "clientes",
      "outputs": [
        {
          "internalType": "string",
          "name": "nombre",
          "type": "string"
        },
        {
          "internalType": "uint256",
          "name": "documento",
          "type": "uint256"
        },
        {
          "internalType": "string",
          "name": "nacimiento",
          "type": "string"
        },
        {
          "internalType": "string",
          "name": "expedicion",
          "type": "string"
        },
        {
          "internalType": "uint256",
          "name": "claveIngreso",
          "type": "uint256"
        }
      ],
      "stateMutability": "view",
      "type": "function"
    },
    {
      "inputs": [
        {
          "internalType": "uint256",
          "name": "_cedula",
          "type": "uint256"
        },
        {
          "internalType": "uint256",
          "name": "_nitIngresado",
          "type": "uint256"
        },
        {
          "internalType": "uint256",
          "name": "_claveIngresada",
          "type": "uint256"
        }
      ],
      "name": "dar_productos_cliente",
      "outputs": [
        {
          "components": [
            {
              "internalType": "string",
              "name": "numero",
              "type": "string"
            },
            {
              "internalType": "string",
              "name": "tipo",
              "type": "string"
            },
            {
              "internalType": "uint256",
              "name": "saldo",
              "type": "uint256"
            }
          ],
          "internalType": "struct Banco.Producto[]",
          "name": "listaProductos",
          "type": "tuple[]"
        }
      ],
      "stateMutability": "view",
      "type": "function"
    },
    {
      "inputs": [
        {
          "internalType": "uint256",
          "name": "",
          "type": "uint256"
        }
      ],
      "name": "direccionesBancos",
      "outputs": [
        {
          "internalType": "address",
          "name": "",
          "type": "address"
        }
      ],
      "stateMutability": "view",
      "type": "function"
    },
    {
      "inputs": [],
      "name": "generar_prueba",
      "outputs": [],
      "stateMutability": "payable",
      "type": "function"
    },
    {
      "inputs": [
        {
          "internalType": "address",
          "name": "",
          "type": "address"
        },
        {
          "internalType": "uint256",
          "name": "",
          "type": "uint256"
        },
        {
          "internalType": "uint256",
          "name": "",
          "type": "uint256"
        }
      ],
      "name": "productos",
      "outputs": [
        {
          "internalType": "string",
          "name": "numero",
          "type": "string"
        },
        {
          "internalType": "string",
          "name": "tipo",
          "type": "string"
        },
        {
          "internalType": "uint256",
          "name": "saldo",
          "type": "uint256"
        }
      ],
      "stateMutability": "view",
      "type": "function"
    },
    {
      "inputs": [
        {
          "internalType": "uint256",
          "name": "",
          "type": "uint256"
        }
      ],
      "name": "pruebas",
      "outputs": [
        {
          "internalType": "contract Verificacion",
          "name": "",
          "type": "address"
        }
      ],
      "stateMutability": "view",
      "type": "function"
    },
    {
      "inputs": [
        {
          "internalType": "uint256",
          "name": "_cedula",
          "type": "uint256"
        },
        {
          "internalType": "uint256",
          "name": "_nitIngresado",
          "type": "uint256"
        },
        {
          "internalType": "uint256",
          "name": "_claveIngresada",
          "type": "uint256"
        },
        {
          "internalType": "address",
          "name": "dirBanco",
          "type": "address"
        }
      ],
      "name": "realizar_zkp",
      "outputs": [
        {
          "internalType": "bool",
          "name": "resultado",
          "type": "bool"
        }
      ],
      "stateMutability": "view",
      "type": "function"
    },
    {
      "inputs": [
        {
          "internalType": "string",
          "name": "_nombre",
          "type": "string"
        },
        {
          "internalType": "uint256",
          "name": "_nit",
          "type": "uint256"
        },
        {
          "internalType": "uint256",
          "name": "_clave",
          "type": "uint256"
        }
      ],
      "name": "registro_banco",
      "outputs": [],
      "stateMutability": "nonpayable",
      "type": "function"
    }
  ],
  "bytecode": "0x6080604052348015600f57600080fd5b50336000806101000a81548173ffffffffffffffffffffffffffffffffffffffff021916908373ffffffffffffffffffffffffffffffffffffffff16021790555061337b8061005f6000396000f3fe60806040526004361061009c5760003560e01c80639d81c528116100645780639d81c528146101ad578063a94e163e146101ea578063aa75686a14610229578063af7ad33b1461026a578063cad9e35314610293578063fe5bf174146102d05761009c565b80635d039db9146100a15780637c8efe56146100ca57806385c410fb14610107578063865bb4c2146101305780638ceac9d614610170575b600080fd5b3480156100ad57600080fd5b506100c860048036038101906100c39190611306565b6102da565b005b3480156100d657600080fd5b506100f160048036038101906100ec91906113e2565b61049d565b6040516100fe919061148e565b60405180910390f35b34801561011357600080fd5b5061012e600480360381019061012991906114a9565b6104d0565b005b34801561013c57600080fd5b506101576004803603810190610152919061155b565b61061c565b6040516101679493929190611642565b60405180910390f35b34801561017c57600080fd5b50610197600480360381019061019291906113e2565b6106e1565b6040516101a4919061169d565b60405180910390f35b3480156101b957600080fd5b506101d460048036038101906101cf91906116b8565b610714565b6040516101e1919061171f565b60405180910390f35b3480156101f657600080fd5b50610211600480360381019061020c919061173a565b610906565b6040516102209392919061178d565b60405180910390f35b34801561023557600080fd5b50610250600480360381019061024b91906117d2565b610a6a565b604051610261959493929190611812565b60405180910390f35b34801561027657600080fd5b50610291600480360381019061028c919061187a565b610c55565b005b34801561029f57600080fd5b506102ba60048036038101906102b59190611921565b610db7565b6040516102c79190611ae6565b60405180910390f35b6102d8611037565b005b60006040518060a001604052808a8a8080601f016020809104026020016040519081016040528093929190818152602001838380828437600081840152601f19601f82011690508083019250505050505050815260200188815260200187878080601f016020809104026020016040519081016040528093929190818152602001838380828437600081840152601f19601f82011690508083019250505050505050815260200185858080601f016020809104026020016040519081016040528093929190818152602001838380828437600081840152601f19601f820116905080830192505050505050508152602001838152509050600260003373ffffffffffffffffffffffffffffffffffffffff1673ffffffffffffffffffffffffffffffffffffffff168152602001908152602001600020819080600181540180825580915050600190039060005260206000209060050201600090919091909150600082015181600001908161044f9190611d39565b5060208201518160010155604082015181600201908161046f9190611d39565b5060608201518160030190816104859190611d39565b50608082015181600401555050505050505050505050565b60036020528060005260406000206000915054906101000a900473ffffffffffffffffffffffffffffffffffffffff1681565b604051806080016040528085858080601f016020809104026020016040519081016040528093929190818152602001838380828437600081840152601f19601f82011690508083019250505050505050815260200183815260200182815260200160001515815250600160003373ffffffffffffffffffffffffffffffffffffffff1673ffffffffffffffffffffffffffffffffffffffff168152602001908152602001600020600082015181600001908161058c9190611d39565b50602082015181600101556040820151816002015560608201518160030160006101000a81548160ff021916908315150217905550905050336004600084815260200190815260200160002060006101000a81548173ffffffffffffffffffffffffffffffffffffffff021916908373ffffffffffffffffffffffffffffffffffffffff16021790555050505050565b600160205280600052604060002060009150905080600001805461063f90611b66565b80601f016020809104026020016040519081016040528092919081815260200182805461066b90611b66565b80156106b85780601f1061068d576101008083540402835291602001916106b8565b820191906000526020600020905b81548152906001019060200180831161069b57829003601f168201915b5050505050908060010154908060020154908060030160009054906101000a900460ff16905084565b60046020528060005260406000206000915054906101000a900473ffffffffffffffffffffffffffffffffffffffff1681565b6000806003600086815260200190815260200160002060009054906101000a900473ffffffffffffffffffffffffffffffffffffffff169050600080600090505b600260008673ffffffffffffffffffffffffffffffffffffffff1673ffffffffffffffffffffffffffffffffffffffff1681526020019081526020016000208054905081101561087b5787600260008773ffffffffffffffffffffffffffffffffffffffff1673ffffffffffffffffffffffffffffffffffffffff16815260200190815260200160002082815481106107f1576107f0611e0b565b5b9060005260206000209060050201600101540361086e57600260008673ffffffffffffffffffffffffffffffffffffffff1673ffffffffffffffffffffffffffffffffffffffff168152602001908152602001600020818154811061085957610858611e0b565b5b90600052602060002090600502016004015491505b8080600101915050610755565b508173ffffffffffffffffffffffffffffffffffffffff1663c880dc578883886040518463ffffffff1660e01b81526004016108b993929190611e3a565b602060405180830381865afa1580156108d6573d6000803e3d6000fd5b505050506040513d601f19601f820116820180604052508101906108fa9190611e9d565b92505050949350505050565b6005602052826000526040600020602052816000526040600020818154811061092e57600080fd5b9060005260206000209060030201600092509250505080600001805461095390611b66565b80601f016020809104026020016040519081016040528092919081815260200182805461097f90611b66565b80156109cc5780601f106109a1576101008083540402835291602001916109cc565b820191906000526020600020905b8154815290600101906020018083116109af57829003601f168201915b5050505050908060010180546109e190611b66565b80601f0160208091040260200160405190810160405280929190818152602001828054610a0d90611b66565b8015610a5a5780601f10610a2f57610100808354040283529160200191610a5a565b820191906000526020600020905b815481529060010190602001808311610a3d57829003601f168201915b5050505050908060020154905083565b60026020528160005260406000208181548110610a8657600080fd5b906000526020600020906005020160009150915050806000018054610aaa90611b66565b80601f0160208091040260200160405190810160405280929190818152602001828054610ad690611b66565b8015610b235780601f10610af857610100808354040283529160200191610b23565b820191906000526020600020905b815481529060010190602001808311610b0657829003601f168201915b505050505090806001015490806002018054610b3e90611b66565b80601f0160208091040260200160405190810160405280929190818152602001828054610b6a90611b66565b8015610bb75780601f10610b8c57610100808354040283529160200191610bb7565b820191906000526020600020905b815481529060010190602001808311610b9a57829003601f168201915b505050505090806003018054610bcc90611b66565b80601f0160208091040260200160405190810160405280929190818152602001828054610bf890611b66565b8015610c455780601f10610c1a57610100808354040283529160200191610c45565b820191906000526020600020905b815481529060010190602001808311610c2857829003601f168201915b5050505050908060040154905085565b6000604051806060016040528087878080601f016020809104026020016040519081016040528093929190818152602001838380828437600081840152601f19601f82011690508083019250505050505050815260200185858080601f016020809104026020016040519081016040528093929190818152602001838380828437600081840152601f19601f820116905080830192505050505050508152602001838152509050600560003373ffffffffffffffffffffffffffffffffffffffff1673ffffffffffffffffffffffffffffffffffffffff16815260200190815260200160002060008881526020019081526020016000208190806001815401808255809150506001900390600052602060002090600302016000909190919091506000820151816000019081610d8b9190611d39565b506020820151816001019081610da19190611d39565b5060408201518160020155505050505050505050565b606060006004600085815260200190815260200160002060009054906101000a900473ffffffffffffffffffffffffffffffffffffffff169050600160008273ffffffffffffffffffffffffffffffffffffffff1673ffffffffffffffffffffffffffffffffffffffff16815260200190815260200160002060030160009054906101000a900460ff161561102f57610e5285858584610714565b1561102e57600560008273ffffffffffffffffffffffffffffffffffffffff1673ffffffffffffffffffffffffffffffffffffffff1681526020019081526020016000206000868152602001908152602001600020805480602002602001604051908101604052809291908181526020016000905b828210156110275783829060005260206000209060030201604051806060016040529081600082018054610efa90611b66565b80601f0160208091040260200160405190810160405280929190818152602001828054610f2690611b66565b8015610f735780601f10610f4857610100808354040283529160200191610f73565b820191906000526020600020905b815481529060010190602001808311610f5657829003601f168201915b50505050508152602001600182018054610f8c90611b66565b80601f0160208091040260200160405190810160405280929190818152602001828054610fb890611b66565b80156110055780601f10610fda57610100808354040283529160200191611005565b820191906000526020600020905b815481529060010190602001808311610fe857829003601f168201915b5050505050815260200160028201548152505081526020019060010190610ec7565b5050505091505b5b509392505050565b6014341461107a576040517f08c379a000000000000000000000000000000000000000000000000000000000815260040161107190611f3c565b60405180910390fd5b6000600160003373ffffffffffffffffffffffffffffffffffffffff1673ffffffffffffffffffffffffffffffffffffffff168152602001908152602001600020600101549050600081600160003373ffffffffffffffffffffffffffffffffffffffff1673ffffffffffffffffffffffffffffffffffffffff1681526020019081526020016000206002015460405161111390611254565b61111e929190611f5c565b604051809103906000f08015801561113a573d6000803e3d6000fd5b509050806003600084815260200190815260200160002060006101000a81548173ffffffffffffffffffffffffffffffffffffffff021916908373ffffffffffffffffffffffffffffffffffffffff16021790555060018060003373ffffffffffffffffffffffffffffffffffffffff1673ffffffffffffffffffffffffffffffffffffffff16815260200190815260200160002060030160006101000a81548160ff02191690831515021790555060008054906101000a900473ffffffffffffffffffffffffffffffffffffffff1673ffffffffffffffffffffffffffffffffffffffff166108fc349081150290604051600060405180830381858888f1935050505015801561124f573d6000803e3d6000fd5b505050565b6113c080611f8683390190565b600080fd5b600080fd5b600080fd5b600080fd5b600080fd5b60008083601f8401126112905761128f61126b565b5b8235905067ffffffffffffffff8111156112ad576112ac611270565b5b6020830191508360018202830111156112c9576112c8611275565b5b9250929050565b6000819050919050565b6112e3816112d0565b81146112ee57600080fd5b50565b600081359050611300816112da565b92915050565b60008060008060008060008060a0898b03121561132657611325611261565b5b600089013567ffffffffffffffff81111561134457611343611266565b5b6113508b828c0161127a565b985098505060206113638b828c016112f1565b965050604089013567ffffffffffffffff81111561138457611383611266565b5b6113908b828c0161127a565b9550955050606089013567ffffffffffffffff8111156113b3576113b2611266565b5b6113bf8b828c0161127a565b935093505060806113d28b828c016112f1565b9150509295985092959890939650565b6000602082840312156113f8576113f7611261565b5b6000611406848285016112f1565b91505092915050565b600073ffffffffffffffffffffffffffffffffffffffff82169050919050565b6000819050919050565b600061145461144f61144a8461140f565b61142f565b61140f565b9050919050565b600061146682611439565b9050919050565b60006114788261145b565b9050919050565b6114888161146d565b82525050565b60006020820190506114a3600083018461147f565b92915050565b600080600080606085870312156114c3576114c2611261565b5b600085013567ffffffffffffffff8111156114e1576114e0611266565b5b6114ed8782880161127a565b94509450506020611500878288016112f1565b9250506040611511878288016112f1565b91505092959194509250565b60006115288261140f565b9050919050565b6115388161151d565b811461154357600080fd5b50565b6000813590506115558161152f565b92915050565b60006020828403121561157157611570611261565b5b600061157f84828501611546565b91505092915050565b600081519050919050565b600082825260208201905092915050565b60005b838110156115c25780820151818401526020810190506115a7565b60008484015250505050565b6000601f19601f8301169050919050565b60006115ea82611588565b6115f48185611593565b93506116048185602086016115a4565b61160d816115ce565b840191505092915050565b611621816112d0565b82525050565b60008115159050919050565b61163c81611627565b82525050565b6000608082019050818103600083015261165c81876115df565b905061166b6020830186611618565b6116786040830185611618565b6116856060830184611633565b95945050505050565b6116978161151d565b82525050565b60006020820190506116b2600083018461168e565b92915050565b600080600080608085870312156116d2576116d1611261565b5b60006116e0878288016112f1565b94505060206116f1878288016112f1565b9350506040611702878288016112f1565b925050606061171387828801611546565b91505092959194509250565b60006020820190506117346000830184611633565b92915050565b60008060006060848603121561175357611752611261565b5b600061176186828701611546565b9350506020611772868287016112f1565b9250506040611783868287016112f1565b9150509250925092565b600060608201905081810360008301526117a781866115df565b905081810360208301526117bb81856115df565b90506117ca6040830184611618565b949350505050565b600080604083850312156117e9576117e8611261565b5b60006117f785828601611546565b9250506020611808858286016112f1565b9150509250929050565b600060a082019050818103600083015261182c81886115df565b905061183b6020830187611618565b818103604083015261184d81866115df565b9050818103606083015261186181856115df565b90506118706080830184611618565b9695505050505050565b6000806000806000806080878903121561189757611896611261565b5b60006118a589828a016112f1565b965050602087013567ffffffffffffffff8111156118c6576118c5611266565b5b6118d289828a0161127a565b9550955050604087013567ffffffffffffffff8111156118f5576118f4611266565b5b61190189828a0161127a565b9350935050606061191489828a016112f1565b9150509295509295509295565b60008060006060848603121561193a57611939611261565b5b6000611948868287016112f1565b9350506020611959868287016112f1565b925050604061196a868287016112f1565b9150509250925092565b600081519050919050565b600082825260208201905092915050565b6000819050602082019050919050565b600082825260208201905092915050565b60006119bc82611588565b6119c681856119a0565b93506119d68185602086016115a4565b6119df816115ce565b840191505092915050565b6119f3816112d0565b82525050565b60006060830160008301518482036000860152611a1682826119b1565b91505060208301518482036020860152611a3082826119b1565b9150506040830151611a4560408601826119ea565b508091505092915050565b6000611a5c83836119f9565b905092915050565b6000602082019050919050565b6000611a7c82611974565b611a86818561197f565b935083602082028501611a9885611990565b8060005b85811015611ad45784840389528151611ab58582611a50565b9450611ac083611a64565b925060208a01995050600181019050611a9c565b50829750879550505050505092915050565b60006020820190508181036000830152611b008184611a71565b905092915050565b7f4e487b7100000000000000000000000000000000000000000000000000000000600052604160045260246000fd5b7f4e487b7100000000000000000000000000000000000000000000000000000000600052602260045260246000fd5b60006002820490506001821680611b7e57607f821691505b602082108103611b9157611b90611b37565b5b50919050565b60008190508160005260206000209050919050565b60006020601f8301049050919050565b600082821b905092915050565b600060088302611bf97fffffffffffffffffffffffffffffffffffffffffffffffffffffffffffffffff82611bbc565b611c038683611bbc565b95508019841693508086168417925050509392505050565b6000611c36611c31611c2c846112d0565b61142f565b6112d0565b9050919050565b6000819050919050565b611c5083611c1b565b611c64611c5c82611c3d565b848454611bc9565b825550505050565b600090565b611c79611c6c565b611c84818484611c47565b505050565b5b81811015611ca857611c9d600082611c71565b600181019050611c8a565b5050565b601f821115611ced57611cbe81611b97565b611cc784611bac565b81016020851015611cd6578190505b611cea611ce285611bac565b830182611c89565b50505b505050565b600082821c905092915050565b6000611d1060001984600802611cf2565b1980831691505092915050565b6000611d298383611cff565b9150826002028217905092915050565b611d4282611588565b67ffffffffffffffff811115611d5b57611d5a611b08565b5b611d658254611b66565b611d70828285611cac565b600060209050601f831160018114611da35760008415611d91578287015190505b611d9b8582611d1d565b865550611e03565b601f198416611db186611b97565b60005b82811015611dd957848901518255600182019150602085019450602081019050611db4565b86831015611df65784890151611df2601f891682611cff565b8355505b6001600288020188555050505b505050505050565b7f4e487b7100000000000000000000000000000000000000000000000000000000600052603260045260246000fd5b6000606082019050611e4f6000830186611618565b611e5c6020830185611618565b611e696040830184611618565b949350505050565b611e7a81611627565b8114611e8557600080fd5b50565b600081519050611e9781611e71565b92915050565b600060208284031215611eb357611eb2611261565b5b6000611ec184828501611e88565b91505092915050565b7f456c2070726563696f20706172612067656e6572617220756e61205a4b50206560008201527f7320646520323020455448000000000000000000000000000000000000000000602082015250565b6000611f26602b83611593565b9150611f3182611eca565b604082019050919050565b60006020820190508181036000830152611f5581611f19565b9050919050565b6000604082019050611f716000830185611618565b611f7e6020830184611618565b939250505056fe608060405260405180604001604052807f1a2a3b6e2ba804a4d3466a5b9047b672da212172728e6fb903dda6771b25cbbc81526020017f108686857389327fd6b1872c112f3ff8daed6127eeba8d55103d6ebeab4db1e2815250600390600261006992919061028b565b50604051806040016040528060405180604001604052807f2e94b1fb1aafb2b2e7fb6776f3e50de2da86f19c844579629204c26d00d1a0f581526020017f2b4fe218a04bfafe9bc14f105fb31f59598664cf1bd25fd354697bfa6289bbf5815250815260200160405180604001604052807f2b23949fada2b6a6f499115a8ac5f1c3d455186df0f1353b7663c706627ae25d81526020017f076a8ba7e1c7d4551921f900598c7c57af8fef79fdc792f0ca4e9e2f3bdd4fd281525081525060059060026101379291906102cb565b5060405180604001604052807f2198f7f4ed785cf8a50a92310bc21b64e0b7acd3175cdd3dd8742110323c0ed581526020017f05227cbeb1683d376aa494f4f7584aa1b3756c5a5f7766c78fb8f0ecc0705636815250600990600261019d92919061028b565b503480156101aa57600080fd5b506040516113c03803806113c083398181016040528101906101cc91906103b2565b81600081905550806001819055506040516101e69061031b565b604051809103906000f080158015610202573d6000803e3d6000fd5b50600c60006101000a81548173ffffffffffffffffffffffffffffffffffffffff021916908373ffffffffffffffffffffffffffffffffffffffff16021790555033600b60006101000a81548173ffffffffffffffffffffffffffffffffffffffff021916908373ffffffffffffffffffffffffffffffffffffffff16021790555050506103f2565b82600281019282156102ba579160200282015b828111156102b957825182559160200191906001019061029e565b5b5090506102c79190610328565b5090565b8260028002810192821561030a579160200282015b82811115610309578251829060026102f992919061028b565b50916020019190600201906102e0565b5b5090506103179190610345565b5090565b61073780610c8983390190565b5b80821115610341576000816000905550600101610329565b5090565b5b80821115610365576000818161035c9190610369565b50600201610346565b5090565b506000815560010160009055565b600080fd5b6000819050919050565b61038f8161037c565b811461039a57600080fd5b50565b6000815190506103ac81610386565b92915050565b600080604083850312156103c9576103c8610377565b5b60006103d78582860161039d565b92505060206103e88582860161039d565b9150509250929050565b610888806104016000396000f3fe6080604052600436106100295760003560e01c8063c880dc571461002e578063d19e6ebb1461006b575b600080fd5b34801561003a57600080fd5b5061005560048036038101906100509190610336565b610087565b60405161006291906103a4565b60405180910390f35b610085600480360381019061008091906103bf565b610196565b005b6000808490506000849050600084905060006100b3600054856100aa919061041b565b8460015461024c565b9050600c60009054906101000a900473ffffffffffffffffffffffffffffffffffffffff1673ffffffffffffffffffffffffffffffffffffffff16635fe8c13b60036005600960405180608001604052808781526020016000548b610118919061041b565b81526020018881526020016001548152506040518563ffffffff1660e01b815260040161014894939291906106cd565b602060405180830381865afa158015610165573d6000803e3d6000fd5b505050506040513d601f19601f820116820180604052508101906101899190610740565b9450505050509392505050565b600a34146101d9576040517f08c379a00000000000000000000000000000000000000000000000000000000081526004016101d0906107f0565b60405180910390fd5b80600181905550600b60009054906101000a900473ffffffffffffffffffffffffffffffffffffffff1673ffffffffffffffffffffffffffffffffffffffff166108fc349081150290604051600060405180830381858888f19350505050158015610248573d6000803e3d6000fd5b5050565b60008084905060008490506000849050600383610269919061041b565b600380858486610279919061041b565b6102839190610810565b61028d919061041b565b6102979190610810565b8284866102a4919061041b565b6102ae919061041b565b60038685876102bd919061041b565b6102c79190610810565b6102d1919061041b565b6102db919061041b565b6102e5919061041b565b6102ef9190610810565b93505050509392505050565b600080fd5b6000819050919050565b61031381610300565b811461031e57600080fd5b50565b6000813590506103308161030a565b92915050565b60008060006060848603121561034f5761034e6102fb565b5b600061035d86828701610321565b935050602061036e86828701610321565b925050604061037f86828701610321565b9150509250925092565b60008115159050919050565b61039e81610389565b82525050565b60006020820190506103b96000830184610395565b92915050565b6000602082840312156103d5576103d46102fb565b5b60006103e384828501610321565b91505092915050565b7f4e487b7100000000000000000000000000000000000000000000000000000000600052601160045260246000fd5b600061042682610300565b915061043183610300565b9250828201905080821115610449576104486103ec565b5b92915050565b600060029050919050565b600081905092915050565b6000819050919050565b61047881610300565b82525050565b600061048a838361046f565b60208301905092915050565b60008160001c9050919050565b6000819050919050565b60006104c06104bb83610496565b6104a3565b9050919050565b60006104d382546104ad565b9050919050565b6000600182019050919050565b6104f08161044f565b6104fa818461045a565b925061050582610465565b8060005b8381101561053d5761051a826104c7565b610524878261047e565b965061052f836104da565b925050600181019050610509565b505050505050565b600060029050919050565b600081905092915050565b6000819050919050565b600081905092915050565b6105798161044f565b6105838184610565565b925061058e82610465565b8060005b838110156105c6576105a3826104c7565b6105ad878261047e565b96506105b8836104da565b925050600181019050610592565b505050505050565b60006105da8383610570565b60408301905092915050565b6000600282019050919050565b6105fc81610545565b6106068184610550565b92506106118261055b565b8060005b83811015610641578161062887826105ce565b9650610633836105e6565b925050600181019050610615565b505050505050565b600060049050919050565b600081905092915050565b6000819050919050565b6000602082019050919050565b61067f81610649565b6106898184610654565b92506106948261065f565b8060005b838110156106c55781516106ac878261047e565b96506106b783610669565b925050600181019050610698565b505050505050565b6000610180820190506106e360008301876104e7565b6106f060408301866105f3565b6106fd60c08301856104e7565b61070b610100830184610676565b95945050505050565b61071d81610389565b811461072857600080fd5b50565b60008151905061073a81610714565b92915050565b600060208284031215610756576107556102fb565b5b60006107648482850161072b565b91505092915050565b600082825260208201905092915050565b7f456c2076616c6f722064652065737461206f7065726163696f6e20657320646560008201527f2031302045544800000000000000000000000000000000000000000000000000602082015250565b60006107da60278361076d565b91506107e58261077e565b604082019050919050565b60006020820190508181036000830152610809816107cd565b9050919050565b600061081b82610300565b915061082683610300565b925082820261083481610300565b9150828204841483151761084b5761084a6103ec565b5b509291505056fea26469706673582212204563b3a5d9cfdedf67080ba5196ae9a9b0abfcae8d6a9288af1a64d100a8758e64736f6c634300081a00336080604052348015600f57600080fd5b506107188061001f6000396000f3fe608060405234801561001057600080fd5b506004361061002b5760003560e01c80635fe8c13b14610030575b600080fd5b61004a60048036038101906100459190610643565b610060565b60405161005791906106c7565b60405180910390f35b600061057d565b7f30644e72e131a029b85045b68181585d2833e84879b9709143e1f593f00000018110610098576000805260206000f35b50565b600060405183815284602082015285604082015260408160608360076107d05a03fa9150816100ce576000805260206000f35b825160408201526020830151606082015260408360808360066107d05a03fa9150816100fe576000805260206000f35b505050505050565b600060808601600087017f1e87f974a86385ae5e6bcc63d046b45a70fcb38d83376d91821ef7e843a1bfc981527f0ea0f7c760484aac1ea5440d510ead26b56e311fdbe3d7de27a7c28640034af460208201526101a960008801357f1015c05bcde837b7ee03dfbfda7f6ee01dc0bbc2c08e55e5bfa648107218db5a7f2fdbe1ded26d3c8c5ec574c16c23d733c71b335314c7e815102280e36d77cc1f8461009b565b6101f960208801357f06189da5e3dcd5bd7364421927f56f39a02f6a1d0f738d12469e9a41d01ad2df7f128623aace631da559193ca07b3ef9da3ba20c45bac014190c69bd0a7475188b8461009b565b61024960408801357f2027ae03285c04e3e90e8184ea7dfb6387b39d793a8802c5b18432fd4e5472197f08258e6629376bca43b68e380bc96e627f88ca075edea2f3d73a6c00f21b41ae8461009b565b61029960608801357f28e23a33e865ae86ad208505b01934dc61efb9c58c752a998a716ef4474f4a587f2596d004e2c407270a3333a5386f1f46815faf818e5501d7f54b40267eb28a778461009b565b833582527f30644e72e131a029b85045b68181585d97816a916871ca8d3c208c16d87cfd4760208501357f30644e72e131a029b85045b68181585d97816a916871ca8d3c208c16d87cfd4703066020830152843560408301526020850135606083015260408501356080830152606085013560a08301527f114de35dc50cad62b29ea026cf28abd7008232018811f42894e92998dd36777660c08301527f0ec033a1ff45ca1c28a4d33a5bf6f60f94bbfaffd975a34074e63391ca69a6a960e08301527f0593146809489a45018ef8127007ad7609c93d3cbf63315338a00d4bce4a02026101008301527f29448b3b3f655d1bbd420fb784728db4dd86de21a58b2c6f153a7bfa248ab0a96101208301527f29aafae57422ea7cea6ddee2fd47fada99b2c496dd4faac47b08b5070626f1526101408301527f148f50df3bcbd9a41c5bb0a689bc6d870a11cee138619304b0e929ab28945bf4610160830152600088015161018083015260206000018801516101a08301527f198e9393920d483a7260bfb731fb5d25f1aa493335a9e71297e485b7aef312c26101c08301527f1800deef121f1e76426a00665e5c4479674322d4f75edadd46debd5cd992f6ed6101e08301527f090689d0585ff075ec9e99ad690c3395bc4b313370b38ef355acdadcd122975b6102008301527f12c85ea5db8c6deb4aab71808dcb408fe3d1e7690c43d37b4ce6cc0166fa7daa610220830152853561024083015260208601356102608301527f1fecf97d6fcd52d5a57d65d0af27cead56954a56be1facb0a85d21126593fecd6102808301527f11a15c808d51bbce83817023228846e7dbad533c53c2f981d09887c6b2541da66102a08301527f2e69ede1dcec1a55605f693a13908aed53445da2449ebfd1e78e56a24c932ff16102c08301527f276c9b7fed4802cea174217ccf7140225afff687b1e8fbbab2395b8c3499c1e86102e08301526020826103008460086107d05a03fa82518116935050505095945050505050565b60405161038081016040526105956000840135610067565b6105a26020840135610067565b6105af6040840135610067565b6105bc6060840135610067565b6105c9818486888a610106565b8060005260206000f35b600080fd5b600080fd5b6000819050826020600202820111156105f9576105f86105d8565b5b92915050565b60008190508260406002028201111561061b5761061a6105d8565b5b92915050565b60008190508260206004028201111561063d5761063c6105d8565b5b92915050565b600080600080610180858703121561065e5761065d6105d3565b5b600061066c878288016105dd565b945050604061067d878288016105ff565b93505060c061068e878288016105dd565b9250506101006106a087828801610621565b91505092959194509250565b60008115159050919050565b6106c1816106ac565b82525050565b60006020820190506106dc60008301846106b8565b9291505056fea2646970667358221220a45f5f96b0f462323288ecaa03898ff6c525304ef08d51f7b53e538382cb53e264736f6c634300081a0033a264697066735822122082620e0e19358f827fca8c0a8cf7b27577dc678436322f7a3547ff818aa1f23564736f6c634300081a0033",
  "linkReferences": {},
  "deployedLinkReferences": {}
}