{
  "_format": "hh-sol-artifact-1",
  "contractName": "Perfil",
  "sourceName": "contracts/Perfil.sol",
  "abi": [
    {
      "inputs": [],
      "stateMutability": "nonpayable",
      "type": "constructor"
    },
    {
      "inputs": [
        {
          "internalType": "uint256",
          "name": "celular",
          "type": "uint256"
        },
        {
          "internalType": "string",
          "name": "email",
          "type": "string"
        }
      ],
      "name": "actualizarInfo",
      "outputs": [],
      "stateMutability": "nonpayable",
      "type": "function"
    },
    {
      "inputs": [],
      "name": "calcular_score",
      "outputs": [],
      "stateMutability": "payable",
      "type": "function"
    },
    {
      "inputs": [],
      "name": "darInfo",
      "outputs": [
        {
          "components": [
            {
              "components": [
                {
                  "internalType": "string",
                  "name": "nombre",
                  "type": "string"
                },
                {
                  "internalType": "uint256",
                  "name": "documento",
                  "type": "uint256"
                },
                {
                  "internalType": "string",
                  "name": "nacimiento",
                  "type": "string"
                },
                {
                  "internalType": "string",
                  "name": "expedicion",
                  "type": "string"
                }
              ],
              "internalType": "struct Perfil.InfoConstante",
              "name": "infoConst",
              "type": "tuple"
            },
            {
              "components": [
                {
                  "internalType": "uint256",
                  "name": "celular",
                  "type": "uint256"
                },
                {
                  "internalType": "string",
                  "name": "email",
                  "type": "string"
                }
              ],
              "internalType": "struct Perfil.InfoVariable",
              "name": "infoVar",
              "type": "tuple"
            },
            {
              "internalType": "uint256",
              "name": "scoreBancario",
              "type": "uint256"
            }
          ],
          "internalType": "struct Perfil.Usuario",
          "name": "infoUsuario",
          "type": "tuple"
        }
      ],
      "stateMutability": "view",
      "type": "function"
    },
    {
      "inputs": [
        {
          "internalType": "address",
          "name": "",
          "type": "address"
        }
      ],
      "name": "perfiles",
      "outputs": [
        {
          "components": [
            {
              "internalType": "string",
              "name": "nombre",
              "type": "string"
            },
            {
              "internalType": "uint256",
              "name": "documento",
              "type": "uint256"
            },
            {
              "internalType": "string",
              "name": "nacimiento",
              "type": "string"
            },
            {
              "internalType": "string",
              "name": "expedicion",
              "type": "string"
            }
          ],
          "internalType": "struct Perfil.InfoConstante",
          "name": "infoConst",
          "type": "tuple"
        },
        {
          "components": [
            {
              "internalType": "uint256",
              "name": "celular",
              "type": "uint256"
            },
            {
              "internalType": "string",
              "name": "email",
              "type": "string"
            }
          ],
          "internalType": "struct Perfil.InfoVariable",
          "name": "infoVar",
          "type": "tuple"
        },
        {
          "internalType": "uint256",
          "name": "scoreBancario",
          "type": "uint256"
        }
      ],
      "stateMutability": "view",
      "type": "function"
    },
    {
      "inputs": [
        {
          "internalType": "address",
          "name": "",
          "type": "address"
        },
        {
          "internalType": "uint256",
          "name": "",
          "type": "uint256"
        }
      ],
      "name": "productos",
      "outputs": [
        {
          "internalType": "string",
          "name": "tipo",
          "type": "string"
        },
        {
          "internalType": "string",
          "name": "entidad",
          "type": "string"
        },
        {
          "internalType": "uint256",
          "name": "saldo",
          "type": "uint256"
        },
        {
          "internalType": "bool",
          "name": "mora",
          "type": "bool"
        }
      ],
      "stateMutability": "view",
      "type": "function"
    },
    {
      "inputs": [
        {
          "internalType": "string",
          "name": "nombre",
          "type": "string"
        },
        {
          "internalType": "uint256",
          "name": "documento",
          "type": "uint256"
        },
        {
          "internalType": "string",
          "name": "nacimiento",
          "type": "string"
        },
        {
          "internalType": "string",
          "name": "expedicion",
          "type": "string"
        },
        {
          "internalType": "uint256",
          "name": "celular",
          "type": "uint256"
        },
        {
          "internalType": "string",
          "name": "email",
          "type": "string"
        }
      ],
      "name": "registro",
      "outputs": [],
      "stateMutability": "nonpayable",
      "type": "function"
    },
    {
      "inputs": [
        {
          "internalType": "address",
          "name": "usuario",
          "type": "address"
        },
        {
          "internalType": "string",
          "name": "entidad",
          "type": "string"
        },
        {
          "internalType": "string",
          "name": "producto",
          "type": "string"
        },
        {
          "internalType": "string",
          "name": "motivo",
          "type": "string"
        },
        {
          "internalType": "bool",
          "name": "negativo",
          "type": "bool"
        }
      ],
      "name": "reportar_usuario",
      "outputs": [],
      "stateMutability": "nonpayable",
      "type": "function"
    },
    {
      "inputs": [
        {
          "internalType": "address",
          "name": "",
          "type": "address"
        },
        {
          "internalType": "uint256",
          "name": "",
          "type": "uint256"
        }
      ],
      "name": "reportes",
      "outputs": [
        {
          "internalType": "uint256",
          "name": "timestamp",
          "type": "uint256"
        },
        {
          "internalType": "string",
          "name": "entidad",
          "type": "string"
        },
        {
          "internalType": "string",
          "name": "producto",
          "type": "string"
        },
        {
          "internalType": "string",
          "name": "motivo",
          "type": "string"
        },
        {
          "internalType": "bool",
          "name": "negativo",
          "type": "bool"
        }
      ],
      "stateMutability": "view",
      "type": "function"
    }
  ],
  "bytecode": "0x6080604052348015600f57600080fd5b5033600360006101000a81548173ffffffffffffffffffffffffffffffffffffffff021916908373ffffffffffffffffffffffffffffffffffffffff160217905550611fe4806100606000396000f3fe60806040526004361061007b5760003560e01c80639b8558021161004e5780639b85580214610169578063a517f2f114610194578063d71657f31461019e578063d910a332146101c75761007b565b80632a58214214610080578063499e1c47146100c057806356b55ab6146100ff5780637b1c087814610128575b600080fd5b34801561008c57600080fd5b506100a760048036038101906100a291906113d5565b6101f0565b6040516100b794939291906114cf565b60405180910390f35b3480156100cc57600080fd5b506100e760048036038101906100e29190611522565b61035a565b6040516100f693929190611656565b60405180910390f35b34801561010b57600080fd5b5061012660048036038101906101219190611700565b6105f4565b005b34801561013457600080fd5b5061014f600480360381019061014a91906113d5565b610839565b604051610160959493929190611810565b60405180910390f35b34801561017557600080fd5b5061017e610a31565b60405161018b919061197d565b60405180910390f35b61019c610d15565b005b3480156101aa57600080fd5b506101c560048036038101906101c091906119cb565b611031565b005b3480156101d357600080fd5b506101ee60048036038101906101e99190611aa7565b611206565b005b6002602052816000526040600020818154811061020c57600080fd5b90600052602060002090600402016000915091505080600001805461023090611b36565b80601f016020809104026020016040519081016040528092919081815260200182805461025c90611b36565b80156102a95780601f1061027e576101008083540402835291602001916102a9565b820191906000526020600020905b81548152906001019060200180831161028c57829003601f168201915b5050505050908060010180546102be90611b36565b80601f01602080910402602001604051908101604052809291908181526020018280546102ea90611b36565b80156103375780601f1061030c57610100808354040283529160200191610337565b820191906000526020600020905b81548152906001019060200180831161031a57829003601f168201915b5050505050908060020154908060030160009054906101000a900460ff16905084565b60006020528060005260406000206000915090508060000160405180608001604052908160008201805461038d90611b36565b80601f01602080910402602001604051908101604052809291908181526020018280546103b990611b36565b80156104065780601f106103db57610100808354040283529160200191610406565b820191906000526020600020905b8154815290600101906020018083116103e957829003601f168201915b505050505081526020016001820154815260200160028201805461042990611b36565b80601f016020809104026020016040519081016040528092919081815260200182805461045590611b36565b80156104a25780601f10610477576101008083540402835291602001916104a2565b820191906000526020600020905b81548152906001019060200180831161048557829003601f168201915b505050505081526020016003820180546104bb90611b36565b80601f01602080910402602001604051908101604052809291908181526020018280546104e790611b36565b80156105345780601f1061050957610100808354040283529160200191610534565b820191906000526020600020905b81548152906001019060200180831161051757829003601f168201915b50505050508152505090806004016040518060400160405290816000820154815260200160018201805461056790611b36565b80601f016020809104026020016040519081016040528092919081815260200182805461059390611b36565b80156105e05780601f106105b5576101008083540402835291602001916105e0565b820191906000526020600020905b8154815290600101906020018083116105c357829003601f168201915b505050505081525050908060060154905083565b600060405180608001604052808c8c8080601f016020809104026020016040519081016040528093929190818152602001838380828437600081840152601f19601f8201169050808301925050505050505081526020018a815260200189898080601f016020809104026020016040519081016040528093929190818152602001838380828437600081840152601f19601f82011690508083019250505050505050815260200187878080601f016020809104026020016040519081016040528093929190818152602001838380828437600081840152601f19601f8201169050808301925050505050505081525090506000604051806040016040528086815260200185858080601f016020809104026020016040519081016040528093929190818152602001838380828437600081840152601f19601f820116905080830192505050505050508152509050604051806060016040528083815260200182815260200160008152506000803373ffffffffffffffffffffffffffffffffffffffff1673ffffffffffffffffffffffffffffffffffffffff16815260200190815260200160002060008201518160000160008201518160000190816107ba9190611d42565b506020820151816001015560408201518160020190816107da9190611d42565b5060608201518160030190816107f09190611d42565b50505060208201518160040160008201518160000155602082015181600101908161081b9190611d42565b50505060408201518160060155905050505050505050505050505050565b6001602052816000526040600020818154811061085557600080fd5b90600052602060002090600502016000915091505080600001549080600101805461087f90611b36565b80601f01602080910402602001604051908101604052809291908181526020018280546108ab90611b36565b80156108f85780601f106108cd576101008083540402835291602001916108f8565b820191906000526020600020905b8154815290600101906020018083116108db57829003601f168201915b50505050509080600201805461090d90611b36565b80601f016020809104026020016040519081016040528092919081815260200182805461093990611b36565b80156109865780601f1061095b57610100808354040283529160200191610986565b820191906000526020600020905b81548152906001019060200180831161096957829003601f168201915b50505050509080600301805461099b90611b36565b80601f01602080910402602001604051908101604052809291908181526020018280546109c790611b36565b8015610a145780601f106109e957610100808354040283529160200191610a14565b820191906000526020600020905b8154815290600101906020018083116109f757829003601f168201915b5050505050908060040160009054906101000a900460ff16905085565b610a396112c8565b6000803373ffffffffffffffffffffffffffffffffffffffff1673ffffffffffffffffffffffffffffffffffffffff16815260200190815260200160002060405180606001604052908160008201604051806080016040529081600082018054610aa290611b36565b80601f0160208091040260200160405190810160405280929190818152602001828054610ace90611b36565b8015610b1b5780601f10610af057610100808354040283529160200191610b1b565b820191906000526020600020905b815481529060010190602001808311610afe57829003601f168201915b5050505050815260200160018201548152602001600282018054610b3e90611b36565b80601f0160208091040260200160405190810160405280929190818152602001828054610b6a90611b36565b8015610bb75780601f10610b8c57610100808354040283529160200191610bb7565b820191906000526020600020905b815481529060010190602001808311610b9a57829003601f168201915b50505050508152602001600382018054610bd090611b36565b80601f0160208091040260200160405190810160405280929190818152602001828054610bfc90611b36565b8015610c495780601f10610c1e57610100808354040283529160200191610c49565b820191906000526020600020905b815481529060010190602001808311610c2c57829003601f168201915b50505050508152505081526020016004820160405180604001604052908160008201548152602001600182018054610c8090611b36565b80601f0160208091040260200160405190810160405280929190818152602001828054610cac90611b36565b8015610cf95780601f10610cce57610100808354040283529160200191610cf9565b820191906000526020600020905b815481529060010190602001808311610cdc57829003601f168201915b5050505050815250508152602001600682015481525050905090565b600a3411610d58576040517f08c379a0000000000000000000000000000000000000000000000000000000008152600401610d4f90611e86565b60405180910390fd5b6000806000806103e8905060005b600160003373ffffffffffffffffffffffffffffffffffffffff1673ffffffffffffffffffffffffffffffffffffffff16815260200190815260200160002080549050811015610e5657600160003373ffffffffffffffffffffffffffffffffffffffff1673ffffffffffffffffffffffffffffffffffffffff1681526020019081526020016000208181548110610e0157610e00611ea6565b5b906000526020600020906005020160040160009054906101000a900460ff1615610e3957600185610e329190611f04565b9450610e49565b600184610e469190611f04565b93505b8080600101915050610d66565b5060005b600260003373ffffffffffffffffffffffffffffffffffffffff1673ffffffffffffffffffffffffffffffffffffffff16815260200190815260200160002080549050811015610f3657600260003373ffffffffffffffffffffffffffffffffffffffff1673ffffffffffffffffffffffffffffffffffffffff1681526020019081526020016000208181548110610ef557610ef4611ea6565b5b906000526020600020906004020160030160009054906101000a900460ff1615610f2957600183610f269190611f04565b92505b8080600101915050610e5a565b50816078610f449190611f38565b836032610f519190611f38565b856064610f5e9190611f38565b83610f699190611f7a565b610f739190611f04565b610f7d9190611f7a565b6000803373ffffffffffffffffffffffffffffffffffffffff1673ffffffffffffffffffffffffffffffffffffffff16815260200190815260200160002060060181905550600360009054906101000a900473ffffffffffffffffffffffffffffffffffffffff1673ffffffffffffffffffffffffffffffffffffffff166108fc349081150290604051600060405180830381858888f1935050505015801561102a573d6000803e3d6000fd5b5050505050565b600160008973ffffffffffffffffffffffffffffffffffffffff1673ffffffffffffffffffffffffffffffffffffffff1681526020019081526020016000206040518060a0016040528042815260200189898080601f016020809104026020016040519081016040528093929190818152602001838380828437600081840152601f19601f82011690508083019250505050505050815260200187878080601f016020809104026020016040519081016040528093929190818152602001838380828437600081840152601f19601f82011690508083019250505050505050815260200185858080601f016020809104026020016040519081016040528093929190818152602001838380828437600081840152601f19601f82011690508083019250505050505050815260200183151581525090806001815401808255809150506001900390600052602060002090600502016000909190919091506000820151816000015560208201518160010190816111ad9190611d42565b5060408201518160020190816111c39190611d42565b5060608201518160030190816111d99190611d42565b5060808201518160040160006101000a81548160ff02191690831515021790555050505050505050505050565b604051806040016040528084815260200183838080601f016020809104026020016040519081016040528093929190818152602001838380828437600081840152601f19601f820116905080830192505050505050508152506000803373ffffffffffffffffffffffffffffffffffffffff1673ffffffffffffffffffffffffffffffffffffffff1681526020019081526020016000206004016000820151816000015560208201518160010190816112bf9190611d42565b50905050505050565b60405180606001604052806112db6112f5565b81526020016112e861131d565b8152602001600081525090565b6040518060800160405280606081526020016000815260200160608152602001606081525090565b604051806040016040528060008152602001606081525090565b600080fd5b600080fd5b600073ffffffffffffffffffffffffffffffffffffffff82169050919050565b600061136c82611341565b9050919050565b61137c81611361565b811461138757600080fd5b50565b60008135905061139981611373565b92915050565b6000819050919050565b6113b28161139f565b81146113bd57600080fd5b50565b6000813590506113cf816113a9565b92915050565b600080604083850312156113ec576113eb611337565b5b60006113fa8582860161138a565b925050602061140b858286016113c0565b9150509250929050565b600081519050919050565b600082825260208201905092915050565b60005b8381101561144f578082015181840152602081019050611434565b60008484015250505050565b6000601f19601f8301169050919050565b600061147782611415565b6114818185611420565b9350611491818560208601611431565b61149a8161145b565b840191505092915050565b6114ae8161139f565b82525050565b60008115159050919050565b6114c9816114b4565b82525050565b600060808201905081810360008301526114e9818761146c565b905081810360208301526114fd818661146c565b905061150c60408301856114a5565b61151960608301846114c0565b95945050505050565b60006020828403121561153857611537611337565b5b60006115468482850161138a565b91505092915050565b600082825260208201905092915050565b600061156b82611415565b611575818561154f565b9350611585818560208601611431565b61158e8161145b565b840191505092915050565b6115a28161139f565b82525050565b600060808301600083015184820360008601526115c58282611560565b91505060208301516115da6020860182611599565b50604083015184820360408601526115f28282611560565b9150506060830151848203606086015261160c8282611560565b9150508091505092915050565b60006040830160008301516116316000860182611599565b50602083015184820360208601526116498282611560565b9150508091505092915050565b6000606082019050818103600083015261167081866115a8565b905081810360208301526116848185611619565b905061169360408301846114a5565b949350505050565b600080fd5b600080fd5b600080fd5b60008083601f8401126116c0576116bf61169b565b5b8235905067ffffffffffffffff8111156116dd576116dc6116a0565b5b6020830191508360018202830111156116f9576116f86116a5565b5b9250929050565b60008060008060008060008060008060c08b8d03121561172357611722611337565b5b60008b013567ffffffffffffffff8111156117415761174061133c565b5b61174d8d828e016116aa565b9a509a505060206117608d828e016113c0565b98505060408b013567ffffffffffffffff8111156117815761178061133c565b5b61178d8d828e016116aa565b975097505060608b013567ffffffffffffffff8111156117b0576117af61133c565b5b6117bc8d828e016116aa565b955095505060806117cf8d828e016113c0565b93505060a08b013567ffffffffffffffff8111156117f0576117ef61133c565b5b6117fc8d828e016116aa565b92509250509295989b9194979a5092959850565b600060a08201905061182560008301886114a5565b8181036020830152611837818761146c565b9050818103604083015261184b818661146c565b9050818103606083015261185f818561146c565b905061186e60808301846114c0565b9695505050505050565b600060808301600083015184820360008601526118958282611560565b91505060208301516118aa6020860182611599565b50604083015184820360408601526118c28282611560565b915050606083015184820360608601526118dc8282611560565b9150508091505092915050565b60006040830160008301516119016000860182611599565b50602083015184820360208601526119198282611560565b9150508091505092915050565b600060608301600083015184820360008601526119438282611878565b9150506020830151848203602086015261195d82826118e9565b91505060408301516119726040860182611599565b508091505092915050565b600060208201905081810360008301526119978184611926565b905092915050565b6119a8816114b4565b81146119b357600080fd5b50565b6000813590506119c58161199f565b92915050565b60008060008060008060008060a0898b0312156119eb576119ea611337565b5b60006119f98b828c0161138a565b985050602089013567ffffffffffffffff811115611a1a57611a1961133c565b5b611a268b828c016116aa565b9750975050604089013567ffffffffffffffff811115611a4957611a4861133c565b5b611a558b828c016116aa565b9550955050606089013567ffffffffffffffff811115611a7857611a7761133c565b5b611a848b828c016116aa565b93509350506080611a978b828c016119b6565b9150509295985092959890939650565b600080600060408486031215611ac057611abf611337565b5b6000611ace868287016113c0565b935050602084013567ffffffffffffffff811115611aef57611aee61133c565b5b611afb868287016116aa565b92509250509250925092565b7f4e487b7100000000000000000000000000000000000000000000000000000000600052602260045260246000fd5b60006002820490506001821680611b4e57607f821691505b602082108103611b6157611b60611b07565b5b50919050565b7f4e487b7100000000000000000000000000000000000000000000000000000000600052604160045260246000fd5b60008190508160005260206000209050919050565b60006020601f8301049050919050565b600082821b905092915050565b600060088302611bf87fffffffffffffffffffffffffffffffffffffffffffffffffffffffffffffffff82611bbb565b611c028683611bbb565b95508019841693508086168417925050509392505050565b6000819050919050565b6000611c3f611c3a611c358461139f565b611c1a565b61139f565b9050919050565b6000819050919050565b611c5983611c24565b611c6d611c6582611c46565b848454611bc8565b825550505050565b600090565b611c82611c75565b611c8d818484611c50565b505050565b5b81811015611cb157611ca6600082611c7a565b600181019050611c93565b5050565b601f821115611cf657611cc781611b96565b611cd084611bab565b81016020851015611cdf578190505b611cf3611ceb85611bab565b830182611c92565b50505b505050565b600082821c905092915050565b6000611d1960001984600802611cfb565b1980831691505092915050565b6000611d328383611d08565b9150826002028217905092915050565b611d4b82611415565b67ffffffffffffffff811115611d6457611d63611b67565b5b611d6e8254611b36565b611d79828285611cb5565b600060209050601f831160018114611dac5760008415611d9a578287015190505b611da48582611d26565b865550611e0c565b601f198416611dba86611b96565b60005b82811015611de257848901518255600182019150602085019450602081019050611dbd565b86831015611dff5784890151611dfb601f891682611d08565b8355505b6001600288020188555050505b505050505050565b7f456c2076616c6f722064652065737461206f7065726163696f6e20657320646560008201527f20302c3030303120455448000000000000000000000000000000000000000000602082015250565b6000611e70602b83611420565b9150611e7b82611e14565b604082019050919050565b60006020820190508181036000830152611e9f81611e63565b9050919050565b7f4e487b7100000000000000000000000000000000000000000000000000000000600052603260045260246000fd5b7f4e487b7100000000000000000000000000000000000000000000000000000000600052601160045260246000fd5b6000611f0f8261139f565b9150611f1a8361139f565b9250828201905080821115611f3257611f31611ed5565b5b92915050565b6000611f438261139f565b9150611f4e8361139f565b9250828202611f5c8161139f565b91508282048414831517611f7357611f72611ed5565b5b5092915050565b6000611f858261139f565b9150611f908361139f565b9250828203905081811115611fa857611fa7611ed5565b5b9291505056fea2646970667358221220a8398468a5b12ccea388bd52376d978d2dd692d6fbabe326c407a4800e89922d64736f6c634300081a0033",
  "linkReferences": {},
  "deployedLinkReferences": {}
}