{
  "_format": "hh-sol-artifact-1",
  "contractName": "Perfil",
  "sourceName": "contracts/Perfil.sol",
  "abi": [
    {
      "inputs": [],
      "stateMutability": "nonpayable",
      "type": "constructor"
    },
    {
      "inputs": [
        {
          "internalType": "uint256",
          "name": "celular",
          "type": "uint256"
        },
        {
          "internalType": "string",
          "name": "email",
          "type": "string"
        }
      ],
      "name": "actualizarInfo",
      "outputs": [],
      "stateMutability": "nonpayable",
      "type": "function"
    },
    {
      "inputs": [],
      "name": "calcular_score",
      "outputs": [],
      "stateMutability": "payable",
      "type": "function"
    },
    {
      "inputs": [
        {
          "internalType": "address",
          "name": "",
          "type": "address"
        }
      ],
      "name": "perfiles",
      "outputs": [
        {
          "components": [
            {
              "internalType": "string",
              "name": "nombre",
              "type": "string"
            },
            {
              "internalType": "uint256",
              "name": "documento",
              "type": "uint256"
            },
            {
              "internalType": "string",
              "name": "nacimiento",
              "type": "string"
            },
            {
              "internalType": "string",
              "name": "expedicion",
              "type": "string"
            }
          ],
          "internalType": "struct Perfil.InfoConstante",
          "name": "infoConst",
          "type": "tuple"
        },
        {
          "components": [
            {
              "internalType": "uint256",
              "name": "celular",
              "type": "uint256"
            },
            {
              "internalType": "string",
              "name": "email",
              "type": "string"
            }
          ],
          "internalType": "struct Perfil.InfoVariable",
          "name": "infoVar",
          "type": "tuple"
        },
        {
          "internalType": "uint256",
          "name": "scoreBancario",
          "type": "uint256"
        }
      ],
      "stateMutability": "view",
      "type": "function"
    },
    {
      "inputs": [
        {
          "internalType": "address",
          "name": "",
          "type": "address"
        },
        {
          "internalType": "uint256",
          "name": "",
          "type": "uint256"
        }
      ],
      "name": "productos",
      "outputs": [
        {
          "internalType": "string",
          "name": "tipo",
          "type": "string"
        },
        {
          "internalType": "string",
          "name": "entidad",
          "type": "string"
        },
        {
          "internalType": "uint256",
          "name": "saldo",
          "type": "uint256"
        },
        {
          "internalType": "bool",
          "name": "mora",
          "type": "bool"
        }
      ],
      "stateMutability": "view",
      "type": "function"
    },
    {
      "inputs": [
        {
          "internalType": "string",
          "name": "nombre",
          "type": "string"
        },
        {
          "internalType": "uint256",
          "name": "documento",
          "type": "uint256"
        },
        {
          "internalType": "string",
          "name": "nacimiento",
          "type": "string"
        },
        {
          "internalType": "string",
          "name": "expedicion",
          "type": "string"
        },
        {
          "internalType": "uint256",
          "name": "celular",
          "type": "uint256"
        },
        {
          "internalType": "string",
          "name": "email",
          "type": "string"
        }
      ],
      "name": "registro",
      "outputs": [],
      "stateMutability": "nonpayable",
      "type": "function"
    },
    {
      "inputs": [
        {
          "internalType": "address",
          "name": "usuario",
          "type": "address"
        },
        {
          "internalType": "string",
          "name": "entidad",
          "type": "string"
        },
        {
          "internalType": "string",
          "name": "producto",
          "type": "string"
        },
        {
          "internalType": "string",
          "name": "motivo",
          "type": "string"
        },
        {
          "internalType": "bool",
          "name": "negativo",
          "type": "bool"
        }
      ],
      "name": "reportar_usuario",
      "outputs": [],
      "stateMutability": "nonpayable",
      "type": "function"
    },
    {
      "inputs": [
        {
          "internalType": "address",
          "name": "",
          "type": "address"
        },
        {
          "internalType": "uint256",
          "name": "",
          "type": "uint256"
        }
      ],
      "name": "reportes",
      "outputs": [
        {
          "internalType": "uint256",
          "name": "timestamp",
          "type": "uint256"
        },
        {
          "internalType": "string",
          "name": "entidad",
          "type": "string"
        },
        {
          "internalType": "string",
          "name": "producto",
          "type": "string"
        },
        {
          "internalType": "string",
          "name": "motivo",
          "type": "string"
        },
        {
          "internalType": "bool",
          "name": "negativo",
          "type": "bool"
        }
      ],
      "stateMutability": "view",
      "type": "function"
    }
  ],
  "bytecode": "0x6080604052348015600f57600080fd5b5033600360006101000a81548173ffffffffffffffffffffffffffffffffffffffff021916908373ffffffffffffffffffffffffffffffffffffffff160217905550611b34806100606000396000f3fe6080604052600436106100705760003560e01c80637b1c08781161004e5780637b1c08781461011d578063a517f2f11461015e578063d71657f314610168578063d910a3321461019157610070565b80632a58214214610075578063499e1c47146100b557806356b55ab6146100f4575b600080fd5b34801561008157600080fd5b5061009c6004803603810190610097919061104c565b6101ba565b6040516100ac9493929190611146565b60405180910390f35b3480156100c157600080fd5b506100dc60048036038101906100d79190611199565b610324565b6040516100eb939291906112cd565b60405180910390f35b34801561010057600080fd5b5061011b60048036038101906101169190611377565b6105be565b005b34801561012957600080fd5b50610144600480360381019061013f919061104c565b610803565b604051610155959493929190611487565b60405180910390f35b6101666109fb565b005b34801561017457600080fd5b5061018f600480360381019061018a919061151b565b610d17565b005b34801561019d57600080fd5b506101b860048036038101906101b391906115f7565b610eec565b005b600260205281600052604060002081815481106101d657600080fd5b9060005260206000209060040201600091509150508060000180546101fa90611686565b80601f016020809104026020016040519081016040528092919081815260200182805461022690611686565b80156102735780601f1061024857610100808354040283529160200191610273565b820191906000526020600020905b81548152906001019060200180831161025657829003601f168201915b50505050509080600101805461028890611686565b80601f01602080910402602001604051908101604052809291908181526020018280546102b490611686565b80156103015780601f106102d657610100808354040283529160200191610301565b820191906000526020600020905b8154815290600101906020018083116102e457829003601f168201915b5050505050908060020154908060030160009054906101000a900460ff16905084565b60006020528060005260406000206000915090508060000160405180608001604052908160008201805461035790611686565b80601f016020809104026020016040519081016040528092919081815260200182805461038390611686565b80156103d05780601f106103a5576101008083540402835291602001916103d0565b820191906000526020600020905b8154815290600101906020018083116103b357829003601f168201915b50505050508152602001600182015481526020016002820180546103f390611686565b80601f016020809104026020016040519081016040528092919081815260200182805461041f90611686565b801561046c5780601f106104415761010080835404028352916020019161046c565b820191906000526020600020905b81548152906001019060200180831161044f57829003601f168201915b5050505050815260200160038201805461048590611686565b80601f01602080910402602001604051908101604052809291908181526020018280546104b190611686565b80156104fe5780601f106104d3576101008083540402835291602001916104fe565b820191906000526020600020905b8154815290600101906020018083116104e157829003601f168201915b50505050508152505090806004016040518060400160405290816000820154815260200160018201805461053190611686565b80601f016020809104026020016040519081016040528092919081815260200182805461055d90611686565b80156105aa5780601f1061057f576101008083540402835291602001916105aa565b820191906000526020600020905b81548152906001019060200180831161058d57829003601f168201915b505050505081525050908060060154905083565b600060405180608001604052808c8c8080601f016020809104026020016040519081016040528093929190818152602001838380828437600081840152601f19601f8201169050808301925050505050505081526020018a815260200189898080601f016020809104026020016040519081016040528093929190818152602001838380828437600081840152601f19601f82011690508083019250505050505050815260200187878080601f016020809104026020016040519081016040528093929190818152602001838380828437600081840152601f19601f8201169050808301925050505050505081525090506000604051806040016040528086815260200185858080601f016020809104026020016040519081016040528093929190818152602001838380828437600081840152601f19601f820116905080830192505050505050508152509050604051806060016040528083815260200182815260200160008152506000803373ffffffffffffffffffffffffffffffffffffffff1673ffffffffffffffffffffffffffffffffffffffff16815260200190815260200160002060008201518160000160008201518160000190816107849190611892565b506020820151816001015560408201518160020190816107a49190611892565b5060608201518160030190816107ba9190611892565b5050506020820151816004016000820151816000015560208201518160010190816107e59190611892565b50505060408201518160060155905050505050505050505050505050565b6001602052816000526040600020818154811061081f57600080fd5b90600052602060002090600502016000915091505080600001549080600101805461084990611686565b80601f016020809104026020016040519081016040528092919081815260200182805461087590611686565b80156108c25780601f10610897576101008083540402835291602001916108c2565b820191906000526020600020905b8154815290600101906020018083116108a557829003601f168201915b5050505050908060020180546108d790611686565b80601f016020809104026020016040519081016040528092919081815260200182805461090390611686565b80156109505780601f1061092557610100808354040283529160200191610950565b820191906000526020600020905b81548152906001019060200180831161093357829003601f168201915b50505050509080600301805461096590611686565b80601f016020809104026020016040519081016040528092919081815260200182805461099190611686565b80156109de5780601f106109b3576101008083540402835291602001916109de565b820191906000526020600020905b8154815290600101906020018083116109c157829003601f168201915b5050505050908060040160009054906101000a900460ff16905085565b600a3411610a3e576040517f08c379a0000000000000000000000000000000000000000000000000000000008152600401610a35906119d6565b60405180910390fd5b6000806000806103e8905060005b600160003373ffffffffffffffffffffffffffffffffffffffff1673ffffffffffffffffffffffffffffffffffffffff16815260200190815260200160002080549050811015610b3c57600160003373ffffffffffffffffffffffffffffffffffffffff1673ffffffffffffffffffffffffffffffffffffffff1681526020019081526020016000208181548110610ae757610ae66119f6565b5b906000526020600020906005020160040160009054906101000a900460ff1615610b1f57600185610b189190611a54565b9450610b2f565b600184610b2c9190611a54565b93505b8080600101915050610a4c565b5060005b600260003373ffffffffffffffffffffffffffffffffffffffff1673ffffffffffffffffffffffffffffffffffffffff16815260200190815260200160002080549050811015610c1c57600260003373ffffffffffffffffffffffffffffffffffffffff1673ffffffffffffffffffffffffffffffffffffffff1681526020019081526020016000208181548110610bdb57610bda6119f6565b5b906000526020600020906004020160030160009054906101000a900460ff1615610c0f57600183610c0c9190611a54565b92505b8080600101915050610b40565b50816078610c2a9190611a88565b836032610c379190611a88565b856064610c449190611a88565b83610c4f9190611aca565b610c599190611a54565b610c639190611aca565b6000803373ffffffffffffffffffffffffffffffffffffffff1673ffffffffffffffffffffffffffffffffffffffff16815260200190815260200160002060060181905550600360009054906101000a900473ffffffffffffffffffffffffffffffffffffffff1673ffffffffffffffffffffffffffffffffffffffff166108fc349081150290604051600060405180830381858888f19350505050158015610d10573d6000803e3d6000fd5b5050505050565b600160008973ffffffffffffffffffffffffffffffffffffffff1673ffffffffffffffffffffffffffffffffffffffff1681526020019081526020016000206040518060a0016040528042815260200189898080601f016020809104026020016040519081016040528093929190818152602001838380828437600081840152601f19601f82011690508083019250505050505050815260200187878080601f016020809104026020016040519081016040528093929190818152602001838380828437600081840152601f19601f82011690508083019250505050505050815260200185858080601f016020809104026020016040519081016040528093929190818152602001838380828437600081840152601f19601f8201169050808301925050505050505081526020018315158152509080600181540180825580915050600190039060005260206000209060050201600090919091909150600082015181600001556020820151816001019081610e939190611892565b506040820151816002019081610ea99190611892565b506060820151816003019081610ebf9190611892565b5060808201518160040160006101000a81548160ff02191690831515021790555050505050505050505050565b604051806040016040528084815260200183838080601f016020809104026020016040519081016040528093929190818152602001838380828437600081840152601f19601f820116905080830192505050505050508152506000803373ffffffffffffffffffffffffffffffffffffffff1673ffffffffffffffffffffffffffffffffffffffff168152602001908152602001600020600401600082015181600001556020820151816001019081610fa59190611892565b50905050505050565b600080fd5b600080fd5b600073ffffffffffffffffffffffffffffffffffffffff82169050919050565b6000610fe382610fb8565b9050919050565b610ff381610fd8565b8114610ffe57600080fd5b50565b60008135905061101081610fea565b92915050565b6000819050919050565b61102981611016565b811461103457600080fd5b50565b60008135905061104681611020565b92915050565b6000806040838503121561106357611062610fae565b5b600061107185828601611001565b925050602061108285828601611037565b9150509250929050565b600081519050919050565b600082825260208201905092915050565b60005b838110156110c65780820151818401526020810190506110ab565b60008484015250505050565b6000601f19601f8301169050919050565b60006110ee8261108c565b6110f88185611097565b93506111088185602086016110a8565b611111816110d2565b840191505092915050565b61112581611016565b82525050565b60008115159050919050565b6111408161112b565b82525050565b6000608082019050818103600083015261116081876110e3565b9050818103602083015261117481866110e3565b9050611183604083018561111c565b6111906060830184611137565b95945050505050565b6000602082840312156111af576111ae610fae565b5b60006111bd84828501611001565b91505092915050565b600082825260208201905092915050565b60006111e28261108c565b6111ec81856111c6565b93506111fc8185602086016110a8565b611205816110d2565b840191505092915050565b61121981611016565b82525050565b6000608083016000830151848203600086015261123c82826111d7565b91505060208301516112516020860182611210565b506040830151848203604086015261126982826111d7565b9150506060830151848203606086015261128382826111d7565b9150508091505092915050565b60006040830160008301516112a86000860182611210565b50602083015184820360208601526112c082826111d7565b9150508091505092915050565b600060608201905081810360008301526112e7818661121f565b905081810360208301526112fb8185611290565b905061130a604083018461111c565b949350505050565b600080fd5b600080fd5b600080fd5b60008083601f84011261133757611336611312565b5b8235905067ffffffffffffffff81111561135457611353611317565b5b6020830191508360018202830111156113705761136f61131c565b5b9250929050565b60008060008060008060008060008060c08b8d03121561139a57611399610fae565b5b60008b013567ffffffffffffffff8111156113b8576113b7610fb3565b5b6113c48d828e01611321565b9a509a505060206113d78d828e01611037565b98505060408b013567ffffffffffffffff8111156113f8576113f7610fb3565b5b6114048d828e01611321565b975097505060608b013567ffffffffffffffff81111561142757611426610fb3565b5b6114338d828e01611321565b955095505060806114468d828e01611037565b93505060a08b013567ffffffffffffffff81111561146757611466610fb3565b5b6114738d828e01611321565b92509250509295989b9194979a5092959850565b600060a08201905061149c600083018861111c565b81810360208301526114ae81876110e3565b905081810360408301526114c281866110e3565b905081810360608301526114d681856110e3565b90506114e56080830184611137565b9695505050505050565b6114f88161112b565b811461150357600080fd5b50565b600081359050611515816114ef565b92915050565b60008060008060008060008060a0898b03121561153b5761153a610fae565b5b60006115498b828c01611001565b985050602089013567ffffffffffffffff81111561156a57611569610fb3565b5b6115768b828c01611321565b9750975050604089013567ffffffffffffffff81111561159957611598610fb3565b5b6115a58b828c01611321565b9550955050606089013567ffffffffffffffff8111156115c8576115c7610fb3565b5b6115d48b828c01611321565b935093505060806115e78b828c01611506565b9150509295985092959890939650565b6000806000604084860312156116105761160f610fae565b5b600061161e86828701611037565b935050602084013567ffffffffffffffff81111561163f5761163e610fb3565b5b61164b86828701611321565b92509250509250925092565b7f4e487b7100000000000000000000000000000000000000000000000000000000600052602260045260246000fd5b6000600282049050600182168061169e57607f821691505b6020821081036116b1576116b0611657565b5b50919050565b7f4e487b7100000000000000000000000000000000000000000000000000000000600052604160045260246000fd5b60008190508160005260206000209050919050565b60006020601f8301049050919050565b600082821b905092915050565b6000600883026117487fffffffffffffffffffffffffffffffffffffffffffffffffffffffffffffffff8261170b565b611752868361170b565b95508019841693508086168417925050509392505050565b6000819050919050565b600061178f61178a61178584611016565b61176a565b611016565b9050919050565b6000819050919050565b6117a983611774565b6117bd6117b582611796565b848454611718565b825550505050565b600090565b6117d26117c5565b6117dd8184846117a0565b505050565b5b81811015611801576117f66000826117ca565b6001810190506117e3565b5050565b601f82111561184657611817816116e6565b611820846116fb565b8101602085101561182f578190505b61184361183b856116fb565b8301826117e2565b50505b505050565b600082821c905092915050565b60006118696000198460080261184b565b1980831691505092915050565b60006118828383611858565b9150826002028217905092915050565b61189b8261108c565b67ffffffffffffffff8111156118b4576118b36116b7565b5b6118be8254611686565b6118c9828285611805565b600060209050601f8311600181146118fc57600084156118ea578287015190505b6118f48582611876565b86555061195c565b601f19841661190a866116e6565b60005b828110156119325784890151825560018201915060208501945060208101905061190d565b8683101561194f578489015161194b601f891682611858565b8355505b6001600288020188555050505b505050505050565b7f456c2076616c6f722064652065737461206f7065726163696f6e20657320646560008201527f20302c3030303120455448000000000000000000000000000000000000000000602082015250565b60006119c0602b83611097565b91506119cb82611964565b604082019050919050565b600060208201905081810360008301526119ef816119b3565b9050919050565b7f4e487b7100000000000000000000000000000000000000000000000000000000600052603260045260246000fd5b7f4e487b7100000000000000000000000000000000000000000000000000000000600052601160045260246000fd5b6000611a5f82611016565b9150611a6a83611016565b9250828201905080821115611a8257611a81611a25565b5b92915050565b6000611a9382611016565b9150611a9e83611016565b9250828202611aac81611016565b91508282048414831517611ac357611ac2611a25565b5b5092915050565b6000611ad582611016565b9150611ae083611016565b9250828203905081811115611af857611af7611a25565b5b9291505056fea2646970667358221220b8076f9002175856a66cbe38a8b23e62e8c81240f7bfe4bff0e3222b5d47b01864736f6c634300081a0033",
  "linkReferences": {},
  "deployedLinkReferences": {}
}