{
  "_format": "hh-sol-artifact-1",
  "contractName": "Perfil",
  "sourceName": "contracts/Perfil.sol",
  "abi": [
    {
      "inputs": [],
      "stateMutability": "nonpayable",
      "type": "constructor"
    },
    {
      "inputs": [
        {
          "internalType": "uint256",
          "name": "celular",
          "type": "uint256"
        },
        {
          "internalType": "string",
          "name": "email",
          "type": "string"
        }
      ],
      "name": "actualizarInfo",
      "outputs": [],
      "stateMutability": "nonpayable",
      "type": "function"
    },
    {
      "inputs": [],
      "name": "calcular_score",
      "outputs": [],
      "stateMutability": "payable",
      "type": "function"
    },
    {
      "inputs": [],
      "name": "darInfo",
      "outputs": [
        {
          "components": [
            {
              "components": [
                {
                  "internalType": "string",
                  "name": "nombre",
                  "type": "string"
                },
                {
                  "internalType": "uint256",
                  "name": "documento",
                  "type": "uint256"
                },
                {
                  "internalType": "string",
                  "name": "nacimiento",
                  "type": "string"
                },
                {
                  "internalType": "string",
                  "name": "expedicion",
                  "type": "string"
                }
              ],
              "internalType": "struct Perfil.InfoConstante",
              "name": "infoConst",
              "type": "tuple"
            },
            {
              "components": [
                {
                  "internalType": "uint256",
                  "name": "celular",
                  "type": "uint256"
                },
                {
                  "internalType": "string",
                  "name": "email",
                  "type": "string"
                }
              ],
              "internalType": "struct Perfil.InfoVariable",
              "name": "infoVar",
              "type": "tuple"
            },
            {
              "internalType": "uint256",
              "name": "scoreBancario",
              "type": "uint256"
            }
          ],
          "internalType": "struct Perfil.Usuario",
          "name": "infoUsuario",
          "type": "tuple"
        }
      ],
      "stateMutability": "view",
      "type": "function"
    },
    {
      "inputs": [
        {
          "internalType": "address",
          "name": "",
          "type": "address"
        }
      ],
      "name": "perfiles",
      "outputs": [
        {
          "components": [
            {
              "internalType": "string",
              "name": "nombre",
              "type": "string"
            },
            {
              "internalType": "uint256",
              "name": "documento",
              "type": "uint256"
            },
            {
              "internalType": "string",
              "name": "nacimiento",
              "type": "string"
            },
            {
              "internalType": "string",
              "name": "expedicion",
              "type": "string"
            }
          ],
          "internalType": "struct Perfil.InfoConstante",
          "name": "infoConst",
          "type": "tuple"
        },
        {
          "components": [
            {
              "internalType": "uint256",
              "name": "celular",
              "type": "uint256"
            },
            {
              "internalType": "string",
              "name": "email",
              "type": "string"
            }
          ],
          "internalType": "struct Perfil.InfoVariable",
          "name": "infoVar",
          "type": "tuple"
        },
        {
          "internalType": "uint256",
          "name": "scoreBancario",
          "type": "uint256"
        }
      ],
      "stateMutability": "view",
      "type": "function"
    },
    {
      "inputs": [
        {
          "internalType": "address",
          "name": "",
          "type": "address"
        },
        {
          "internalType": "uint256",
          "name": "",
          "type": "uint256"
        }
      ],
      "name": "productos",
      "outputs": [
        {
          "internalType": "string",
          "name": "tipo",
          "type": "string"
        },
        {
          "internalType": "string",
          "name": "entidad",
          "type": "string"
        },
        {
          "internalType": "uint256",
          "name": "saldo",
          "type": "uint256"
        },
        {
          "internalType": "bool",
          "name": "mora",
          "type": "bool"
        }
      ],
      "stateMutability": "view",
      "type": "function"
    },
    {
      "inputs": [
        {
          "internalType": "string",
          "name": "nombre",
          "type": "string"
        },
        {
          "internalType": "uint256",
          "name": "documento",
          "type": "uint256"
        },
        {
          "internalType": "string",
          "name": "nacimiento",
          "type": "string"
        },
        {
          "internalType": "string",
          "name": "expedicion",
          "type": "string"
        },
        {
          "internalType": "uint256",
          "name": "celular",
          "type": "uint256"
        },
        {
          "internalType": "string",
          "name": "email",
          "type": "string"
        }
      ],
      "name": "registro",
      "outputs": [],
      "stateMutability": "nonpayable",
      "type": "function"
    },
    {
      "inputs": [
        {
          "internalType": "address",
          "name": "usuario",
          "type": "address"
        },
        {
          "internalType": "string",
          "name": "entidad",
          "type": "string"
        },
        {
          "internalType": "string",
          "name": "producto",
          "type": "string"
        },
        {
          "internalType": "string",
          "name": "motivo",
          "type": "string"
        },
        {
          "internalType": "bool",
          "name": "negativo",
          "type": "bool"
        }
      ],
      "name": "reportar_usuario",
      "outputs": [],
      "stateMutability": "nonpayable",
      "type": "function"
    },
    {
      "inputs": [
        {
          "internalType": "address",
          "name": "",
          "type": "address"
        },
        {
          "internalType": "uint256",
          "name": "",
          "type": "uint256"
        }
      ],
      "name": "reportes",
      "outputs": [
        {
          "internalType": "uint256",
          "name": "timestamp",
          "type": "uint256"
        },
        {
          "internalType": "string",
          "name": "entidad",
          "type": "string"
        },
        {
          "internalType": "string",
          "name": "producto",
          "type": "string"
        },
        {
          "internalType": "string",
          "name": "motivo",
          "type": "string"
        },
        {
          "internalType": "bool",
          "name": "negativo",
          "type": "bool"
        }
      ],
      "stateMutability": "view",
      "type": "function"
    },
    {
      "inputs": [],
      "name": "usuarioRegistrado",
      "outputs": [
        {
          "internalType": "bool",
          "name": "registrado",
          "type": "bool"
        }
      ],
      "stateMutability": "view",
      "type": "function"
    },
    {
      "inputs": [
        {
          "internalType": "uint256",
          "name": "",
          "type": "uint256"
        }
      ],
      "name": "usuarios",
      "outputs": [
        {
          "internalType": "address",
          "name": "",
          "type": "address"
        }
      ],
      "stateMutability": "view",
      "type": "function"
    }
  ],
  "bytecode": "0x6080604052348015600f57600080fd5b5033600460006101000a81548173ffffffffffffffffffffffffffffffffffffffff021916908373ffffffffffffffffffffffffffffffffffffffff16021790555061220e806100606000396000f3fe6080604052600436106100915760003560e01c80637b1c0878116100595780637b1c0878146101a65780639b855802146101e7578063a517f2f114610212578063d71657f31461021c578063d910a3321461024557610091565b8063198713cf146100965780632a582142146100d35780632ad1aad714610113578063499e1c471461013e57806356b55ab61461017d575b600080fd5b3480156100a257600080fd5b506100bd60048036038101906100b8919061152f565b61026e565b6040516100ca919061159d565b60405180910390f35b3480156100df57600080fd5b506100fa60048036038101906100f591906115e4565b6102ad565b60405161010a94939291906116de565b60405180910390f35b34801561011f57600080fd5b50610128610417565b6040516101359190611731565b60405180910390f35b34801561014a57600080fd5b506101656004803603810190610160919061174c565b6104af565b60405161017493929190611880565b60405180910390f35b34801561018957600080fd5b506101a4600480360381019061019f919061192a565b610749565b005b3480156101b257600080fd5b506101cd60048036038101906101c891906115e4565b6109f1565b6040516101de959493929190611a3a565b60405180910390f35b3480156101f357600080fd5b506101fc610be9565b6040516102099190611ba7565b60405180910390f35b61021a610ecd565b005b34801561022857600080fd5b50610243600480360381019061023e9190611bf5565b6111e9565b005b34801561025157600080fd5b5061026c60048036038101906102679190611cd1565b6113be565b005b6003818154811061027e57600080fd5b906000526020600020016000915054906101000a900473ffffffffffffffffffffffffffffffffffffffff1681565b600260205281600052604060002081815481106102c957600080fd5b9060005260206000209060040201600091509150508060000180546102ed90611d60565b80601f016020809104026020016040519081016040528092919081815260200182805461031990611d60565b80156103665780601f1061033b57610100808354040283529160200191610366565b820191906000526020600020905b81548152906001019060200180831161034957829003601f168201915b50505050509080600101805461037b90611d60565b80601f01602080910402602001604051908101604052809291908181526020018280546103a790611d60565b80156103f45780601f106103c9576101008083540402835291602001916103f4565b820191906000526020600020905b8154815290600101906020018083116103d757829003601f168201915b5050505050908060020154908060030160009054906101000a900460ff16905084565b6000805b6003805490508110156104ab573373ffffffffffffffffffffffffffffffffffffffff166003828154811061045357610452611d91565b5b9060005260206000200160009054906101000a900473ffffffffffffffffffffffffffffffffffffffff1673ffffffffffffffffffffffffffffffffffffffff160361049e57600191505b808060010191505061041b565b5090565b6000602052806000526040600020600091509050806000016040518060800160405290816000820180546104e290611d60565b80601f016020809104026020016040519081016040528092919081815260200182805461050e90611d60565b801561055b5780601f106105305761010080835404028352916020019161055b565b820191906000526020600020905b81548152906001019060200180831161053e57829003601f168201915b505050505081526020016001820154815260200160028201805461057e90611d60565b80601f01602080910402602001604051908101604052809291908181526020018280546105aa90611d60565b80156105f75780601f106105cc576101008083540402835291602001916105f7565b820191906000526020600020905b8154815290600101906020018083116105da57829003601f168201915b5050505050815260200160038201805461061090611d60565b80601f016020809104026020016040519081016040528092919081815260200182805461063c90611d60565b80156106895780601f1061065e57610100808354040283529160200191610689565b820191906000526020600020905b81548152906001019060200180831161066c57829003601f168201915b5050505050815250509080600401604051806040016040529081600082015481526020016001820180546106bc90611d60565b80601f01602080910402602001604051908101604052809291908181526020018280546106e890611d60565b80156107355780601f1061070a57610100808354040283529160200191610735565b820191906000526020600020905b81548152906001019060200180831161071857829003601f168201915b505050505081525050908060060154905083565b600060405180608001604052808c8c8080601f016020809104026020016040519081016040528093929190818152602001838380828437600081840152601f19601f8201169050808301925050505050505081526020018a815260200189898080601f016020809104026020016040519081016040528093929190818152602001838380828437600081840152601f19601f82011690508083019250505050505050815260200187878080601f016020809104026020016040519081016040528093929190818152602001838380828437600081840152601f19601f8201169050808301925050505050505081525090506000604051806040016040528086815260200185858080601f016020809104026020016040519081016040528093929190818152602001838380828437600081840152601f19601f820116905080830192505050505050508152509050604051806060016040528083815260200182815260200160008152506000803373ffffffffffffffffffffffffffffffffffffffff1673ffffffffffffffffffffffffffffffffffffffff168152602001908152602001600020600082015181600001600082015181600001908161090f9190611f9b565b5060208201518160010155604082015181600201908161092f9190611f9b565b5060608201518160030190816109459190611f9b565b5050506020820151816004016000820151816000015560208201518160010190816109709190611f9b565b505050604082015181600601559050506003339080600181540180825580915050600190039060005260206000200160009091909190916101000a81548173ffffffffffffffffffffffffffffffffffffffff021916908373ffffffffffffffffffffffffffffffffffffffff160217905550505050505050505050505050565b60016020528160005260406000208181548110610a0d57600080fd5b906000526020600020906005020160009150915050806000015490806001018054610a3790611d60565b80601f0160208091040260200160405190810160405280929190818152602001828054610a6390611d60565b8015610ab05780601f10610a8557610100808354040283529160200191610ab0565b820191906000526020600020905b815481529060010190602001808311610a9357829003601f168201915b505050505090806002018054610ac590611d60565b80601f0160208091040260200160405190810160405280929190818152602001828054610af190611d60565b8015610b3e5780601f10610b1357610100808354040283529160200191610b3e565b820191906000526020600020905b815481529060010190602001808311610b2157829003601f168201915b505050505090806003018054610b5390611d60565b80601f0160208091040260200160405190810160405280929190818152602001828054610b7f90611d60565b8015610bcc5780601f10610ba157610100808354040283529160200191610bcc565b820191906000526020600020905b815481529060010190602001808311610baf57829003601f168201915b5050505050908060040160009054906101000a900460ff16905085565b610bf1611480565b6000803373ffffffffffffffffffffffffffffffffffffffff1673ffffffffffffffffffffffffffffffffffffffff16815260200190815260200160002060405180606001604052908160008201604051806080016040529081600082018054610c5a90611d60565b80601f0160208091040260200160405190810160405280929190818152602001828054610c8690611d60565b8015610cd35780601f10610ca857610100808354040283529160200191610cd3565b820191906000526020600020905b815481529060010190602001808311610cb657829003601f168201915b5050505050815260200160018201548152602001600282018054610cf690611d60565b80601f0160208091040260200160405190810160405280929190818152602001828054610d2290611d60565b8015610d6f5780601f10610d4457610100808354040283529160200191610d6f565b820191906000526020600020905b815481529060010190602001808311610d5257829003601f168201915b50505050508152602001600382018054610d8890611d60565b80601f0160208091040260200160405190810160405280929190818152602001828054610db490611d60565b8015610e015780601f10610dd657610100808354040283529160200191610e01565b820191906000526020600020905b815481529060010190602001808311610de457829003601f168201915b50505050508152505081526020016004820160405180604001604052908160008201548152602001600182018054610e3890611d60565b80601f0160208091040260200160405190810160405280929190818152602001828054610e6490611d60565b8015610eb15780601f10610e8657610100808354040283529160200191610eb1565b820191906000526020600020905b815481529060010190602001808311610e9457829003601f168201915b5050505050815250508152602001600682015481525050905090565b600a3411610f10576040517f08c379a0000000000000000000000000000000000000000000000000000000008152600401610f07906120df565b60405180910390fd5b6000806000806103e8905060005b600160003373ffffffffffffffffffffffffffffffffffffffff1673ffffffffffffffffffffffffffffffffffffffff1681526020019081526020016000208054905081101561100e57600160003373ffffffffffffffffffffffffffffffffffffffff1673ffffffffffffffffffffffffffffffffffffffff1681526020019081526020016000208181548110610fb957610fb8611d91565b5b906000526020600020906005020160040160009054906101000a900460ff1615610ff157600185610fea919061212e565b9450611001565b600184610ffe919061212e565b93505b8080600101915050610f1e565b5060005b600260003373ffffffffffffffffffffffffffffffffffffffff1673ffffffffffffffffffffffffffffffffffffffff168152602001908152602001600020805490508110156110ee57600260003373ffffffffffffffffffffffffffffffffffffffff1673ffffffffffffffffffffffffffffffffffffffff16815260200190815260200160002081815481106110ad576110ac611d91565b5b906000526020600020906004020160030160009054906101000a900460ff16156110e1576001836110de919061212e565b92505b8080600101915050611012565b508160786110fc9190612162565b8360326111099190612162565b8560646111169190612162565b8361112191906121a4565b61112b919061212e565b61113591906121a4565b6000803373ffffffffffffffffffffffffffffffffffffffff1673ffffffffffffffffffffffffffffffffffffffff16815260200190815260200160002060060181905550600460009054906101000a900473ffffffffffffffffffffffffffffffffffffffff1673ffffffffffffffffffffffffffffffffffffffff166108fc349081150290604051600060405180830381858888f193505050501580156111e2573d6000803e3d6000fd5b5050505050565b600160008973ffffffffffffffffffffffffffffffffffffffff1673ffffffffffffffffffffffffffffffffffffffff1681526020019081526020016000206040518060a0016040528042815260200189898080601f016020809104026020016040519081016040528093929190818152602001838380828437600081840152601f19601f82011690508083019250505050505050815260200187878080601f016020809104026020016040519081016040528093929190818152602001838380828437600081840152601f19601f82011690508083019250505050505050815260200185858080601f016020809104026020016040519081016040528093929190818152602001838380828437600081840152601f19601f82011690508083019250505050505050815260200183151581525090806001815401808255809150506001900390600052602060002090600502016000909190919091506000820151816000015560208201518160010190816113659190611f9b565b50604082015181600201908161137b9190611f9b565b5060608201518160030190816113919190611f9b565b5060808201518160040160006101000a81548160ff02191690831515021790555050505050505050505050565b604051806040016040528084815260200183838080601f016020809104026020016040519081016040528093929190818152602001838380828437600081840152601f19601f820116905080830192505050505050508152506000803373ffffffffffffffffffffffffffffffffffffffff1673ffffffffffffffffffffffffffffffffffffffff1681526020019081526020016000206004016000820151816000015560208201518160010190816114779190611f9b565b50905050505050565b60405180606001604052806114936114ad565b81526020016114a06114d5565b8152602001600081525090565b6040518060800160405280606081526020016000815260200160608152602001606081525090565b604051806040016040528060008152602001606081525090565b600080fd5b600080fd5b6000819050919050565b61150c816114f9565b811461151757600080fd5b50565b60008135905061152981611503565b92915050565b600060208284031215611545576115446114ef565b5b60006115538482850161151a565b91505092915050565b600073ffffffffffffffffffffffffffffffffffffffff82169050919050565b60006115878261155c565b9050919050565b6115978161157c565b82525050565b60006020820190506115b2600083018461158e565b92915050565b6115c18161157c565b81146115cc57600080fd5b50565b6000813590506115de816115b8565b92915050565b600080604083850312156115fb576115fa6114ef565b5b6000611609858286016115cf565b925050602061161a8582860161151a565b9150509250929050565b600081519050919050565b600082825260208201905092915050565b60005b8381101561165e578082015181840152602081019050611643565b60008484015250505050565b6000601f19601f8301169050919050565b600061168682611624565b611690818561162f565b93506116a0818560208601611640565b6116a98161166a565b840191505092915050565b6116bd816114f9565b82525050565b60008115159050919050565b6116d8816116c3565b82525050565b600060808201905081810360008301526116f8818761167b565b9050818103602083015261170c818661167b565b905061171b60408301856116b4565b61172860608301846116cf565b95945050505050565b600060208201905061174660008301846116cf565b92915050565b600060208284031215611762576117616114ef565b5b6000611770848285016115cf565b91505092915050565b600082825260208201905092915050565b600061179582611624565b61179f8185611779565b93506117af818560208601611640565b6117b88161166a565b840191505092915050565b6117cc816114f9565b82525050565b600060808301600083015184820360008601526117ef828261178a565b915050602083015161180460208601826117c3565b506040830151848203604086015261181c828261178a565b91505060608301518482036060860152611836828261178a565b9150508091505092915050565b600060408301600083015161185b60008601826117c3565b5060208301518482036020860152611873828261178a565b9150508091505092915050565b6000606082019050818103600083015261189a81866117d2565b905081810360208301526118ae8185611843565b90506118bd60408301846116b4565b949350505050565b600080fd5b600080fd5b600080fd5b60008083601f8401126118ea576118e96118c5565b5b8235905067ffffffffffffffff811115611907576119066118ca565b5b602083019150836001820283011115611923576119226118cf565b5b9250929050565b60008060008060008060008060008060c08b8d03121561194d5761194c6114ef565b5b60008b013567ffffffffffffffff81111561196b5761196a6114f4565b5b6119778d828e016118d4565b9a509a5050602061198a8d828e0161151a565b98505060408b013567ffffffffffffffff8111156119ab576119aa6114f4565b5b6119b78d828e016118d4565b975097505060608b013567ffffffffffffffff8111156119da576119d96114f4565b5b6119e68d828e016118d4565b955095505060806119f98d828e0161151a565b93505060a08b013567ffffffffffffffff811115611a1a57611a196114f4565b5b611a268d828e016118d4565b92509250509295989b9194979a5092959850565b600060a082019050611a4f60008301886116b4565b8181036020830152611a61818761167b565b90508181036040830152611a75818661167b565b90508181036060830152611a89818561167b565b9050611a9860808301846116cf565b9695505050505050565b60006080830160008301518482036000860152611abf828261178a565b9150506020830151611ad460208601826117c3565b5060408301518482036040860152611aec828261178a565b91505060608301518482036060860152611b06828261178a565b9150508091505092915050565b6000604083016000830151611b2b60008601826117c3565b5060208301518482036020860152611b43828261178a565b9150508091505092915050565b60006060830160008301518482036000860152611b6d8282611aa2565b91505060208301518482036020860152611b878282611b13565b9150506040830151611b9c60408601826117c3565b508091505092915050565b60006020820190508181036000830152611bc18184611b50565b905092915050565b611bd2816116c3565b8114611bdd57600080fd5b50565b600081359050611bef81611bc9565b92915050565b60008060008060008060008060a0898b031215611c1557611c146114ef565b5b6000611c238b828c016115cf565b985050602089013567ffffffffffffffff811115611c4457611c436114f4565b5b611c508b828c016118d4565b9750975050604089013567ffffffffffffffff811115611c7357611c726114f4565b5b611c7f8b828c016118d4565b9550955050606089013567ffffffffffffffff811115611ca257611ca16114f4565b5b611cae8b828c016118d4565b93509350506080611cc18b828c01611be0565b9150509295985092959890939650565b600080600060408486031215611cea57611ce96114ef565b5b6000611cf88682870161151a565b935050602084013567ffffffffffffffff811115611d1957611d186114f4565b5b611d25868287016118d4565b92509250509250925092565b7f4e487b7100000000000000000000000000000000000000000000000000000000600052602260045260246000fd5b60006002820490506001821680611d7857607f821691505b602082108103611d8b57611d8a611d31565b5b50919050565b7f4e487b7100000000000000000000000000000000000000000000000000000000600052603260045260246000fd5b7f4e487b7100000000000000000000000000000000000000000000000000000000600052604160045260246000fd5b60008190508160005260206000209050919050565b60006020601f8301049050919050565b600082821b905092915050565b600060088302611e517fffffffffffffffffffffffffffffffffffffffffffffffffffffffffffffffff82611e14565b611e5b8683611e14565b95508019841693508086168417925050509392505050565b6000819050919050565b6000611e98611e93611e8e846114f9565b611e73565b6114f9565b9050919050565b6000819050919050565b611eb283611e7d565b611ec6611ebe82611e9f565b848454611e21565b825550505050565b600090565b611edb611ece565b611ee6818484611ea9565b505050565b5b81811015611f0a57611eff600082611ed3565b600181019050611eec565b5050565b601f821115611f4f57611f2081611def565b611f2984611e04565b81016020851015611f38578190505b611f4c611f4485611e04565b830182611eeb565b50505b505050565b600082821c905092915050565b6000611f7260001984600802611f54565b1980831691505092915050565b6000611f8b8383611f61565b9150826002028217905092915050565b611fa482611624565b67ffffffffffffffff811115611fbd57611fbc611dc0565b5b611fc78254611d60565b611fd2828285611f0e565b600060209050601f8311600181146120055760008415611ff3578287015190505b611ffd8582611f7f565b865550612065565b601f19841661201386611def565b60005b8281101561203b57848901518255600182019150602085019450602081019050612016565b868310156120585784890151612054601f891682611f61565b8355505b6001600288020188555050505b505050505050565b7f456c2076616c6f722064652065737461206f7065726163696f6e20657320646560008201527f20302c3030303120455448000000000000000000000000000000000000000000602082015250565b60006120c9602b8361162f565b91506120d48261206d565b604082019050919050565b600060208201905081810360008301526120f8816120bc565b9050919050565b7f4e487b7100000000000000000000000000000000000000000000000000000000600052601160045260246000fd5b6000612139826114f9565b9150612144836114f9565b925082820190508082111561215c5761215b6120ff565b5b92915050565b600061216d826114f9565b9150612178836114f9565b9250828202612186816114f9565b9150828204841483151761219d5761219c6120ff565b5b5092915050565b60006121af826114f9565b91506121ba836114f9565b92508282039050818111156121d2576121d16120ff565b5b9291505056fea26469706673582212206b57c37e2c46db604737c89b10c4b6dfe9f526faddea11319d1104de5eca539e64736f6c634300081a0033",
  "linkReferences": {},
  "deployedLinkReferences": {}
}